:100E670054656D70657261747572650048756D695A
:100E7700646974790054696D650062757320313A4D
:100E8700006D696E0062757320323A0062757320D7
:030E9700333A00EB
:040FE900022F0000D3
:1008DB00120A89E4FF120F64E4FF120E9A7BFF7A6F
:1008EB000E7967750D087D03E4FF120DE87BFF7A27
:1008FB000E7973750D087D04E4FF120DE87BFF7A0A
:10090B000E797C750D087D05E4FF120DE87BFF7AEF
:10091B000E7981750D08E4FDFF120DE8750C02755B
:10092B000D08AB30AA2FE4FD7F28120CF77BFF7A62
:10093B000E7988750D08E4FD7F40120DE87BFF7A78
:10094B000E798C750D087D01E4FF120DE8750C0214
:10095B00750D08AB30AA2F7D017F28120CF77BFF9A
:10096B007A0E7988750D087D017F40120DE87BFFAB
:10097B007A0E7993750D087D02E4FF120DE8750C64
:10098B0002750D08AB30AA2F7D027F28120CF77B66
:10099B00FF7A0E7988750D087D027F40120DE87F76
:1009AB00F47E01120F290530E5307002052F020984
:0109BB001823
:100F2900E4FDFCC3ED9FEE6480F8EC6480985010FA
:100F39000079027BC7DBFED9FC0DBD00010C80E303
:010F49002285
:100003000000000000000000002F000000000700B7
:10001300070000147F147F1400242A7F2A12006231
:1000230064081323003649552250000005030000DD
:1000330000001C224100000041221C000014083E65
:1000430008140008083E0808000000A0600000082B
:10005300080808080000606000000020100804027F
:10006300003E5149453E0000427F4000004261513D
:100073004946002141454B31001814127F100027D7
:1000830045454539003C4A4949300001710905039A
:1000930000364949493600064949291E00003636CB
:1000A300000000005636000000081422410000142E
:1000B300141414140000412214080002015109060B
:1000C30000324959513E007C1211127C007F49498C
:1000D3004936003E41414122007F4141221C007FBD
:1000E30049494941007F09090901003E4149497ACB
:1000F300007F0808087F0000417F41000020404145
:100103003F01007F08142241007F40404040007FB0
:10011300020C027F007F0408107F003E4141413EF4
:10012300007F09090906003E4151215E007F09193C
:1001330029460046494949310001017F0101003F39
:100143004040403F001F2040201F003F4038403FB9
:10015300006314081463000708700807006151491D
:10016300454300007F41410000552A552A550000B0
:1001730041417F000004020102040040404040402E
:10018300000001020400002054545478007F4844C6
:10019300443800384444442000384444487F0038FD
:1001A3005454541800087E0901020018A4A4A47C26
:1001B300007F080404780000447D400000408084F0
:1001C3007D00007F102844000000417F4000007C38
:1001D30004180478007C0804047800384444443844
:1001E30000FC242424180018242418FC007C080490
:1001F300040800485454542000043F444020003C69
:100203004040207C001C2040201C003C4030403CEF
:10021300004428102844001CA0A0A07C004464547F
:100223004C441414141414140000000000000000C3
:100233000000000000000000000000F800000000C3
:10024300000000333000000000100C06100C060004
:10025300000000000000000040C07840C07840006B
:10026300043F04043F040400007088FC08300000CD
:10027300001820FF211E0000F008F000E018000025
:1002830000211C031E211E0000F0088870000000DE
:100293001E2123241927211010160E000000000030
:1002A3000000000000000000000000E0180402004D
:1002B300000000071820400000020418E0000000BE
:1002C3000040201807000000404080F080404000BC
:1002D3000202010F01020200000000F00000000012
:1002E3000101011F010101000000000000000000E6
:1002F30080B070000000000000000000000000005B
:1003030000010101010101010000000000000000E3
:10031300003030000000000000000000806018047E
:10032300006018060100000000E010080810E0005B
:10033300000F102020100F00001010F80000000024
:100343000020203F2020000000700808088870006B
:1003530000302824222130000030088888483000EB
:100363000018202020110E000000C02010F800000B
:1003730000070424243F240000F8088888080800A4
:100383000019212020110E0000E0108888180000B9
:10039300000F112020110E0000380808C83808008B
:1003A3000000003F0000000000708808088870000B
:1003B300001C222121221C0000E010080810E0008C
:1003C3000000312222110F00000000C0C000000015
:1003D300000000303000000000000080000000003A
:1003E3000000806000000000000080402010080032
:1003F30000010204081020004040404040404000FB
:1004030004040404040404000008102040800000D5
:100413000020100804020100007048080808F000DA
:100423000000003036010000C030C828E810E000AA
:100433000718272423140B000000C038E000000035
:10044300203C23020227382008F88888887000009F
:10045300203F202020110E00C03008080808380073
:10046300071820202010080008F808080810E000EA
:10047300203F202020100F0008F88888E80810008B
:10048300203F20202320180008F88888E80810005F
:10049300203F200003000000C03008080838000097
:1004A30007182020221E020008F808000008F80898
:1004B300203F210101213F20000808F8080800001F
:1004C3000020203F2020000000000808F808080052
:1004D300C08080807F00000008F888C028180800CA
:1004E300203F20012638200008F808000000000003
:1004F300203F20202020300008F8F800F8F80800FA
:10050300203F003F003F200008F830C00008F808F3
:10051300203F200007183F00E01008080810E00003
:100523000F10202020100F0008F808080808F0001A
:10053300203F210101010000E01008080810E0003D
:100543000F18242438504F0008F8888888887000D2
:10055300203F2000030C3020007088080808380072
:100563000038202121221C00180808F80808180068
:100573000000203F2000000008F808000008F808E9
:10058300001F202020201F000878880000C838089A
:10059300000007380E010000F80800F80008F80012
:1005A300033C0700073C03000818688080681808AC
:1005B30020302C03032C30200838C800C83808002A
:1005C3000000203F2000000010080808C838080079
:1005D3002038262120201800000000FE020202001D
:1005E3000000007F40404000000C30C000000000CD
:1005F300000000010638C00000020202FE000000F5
:10060300004040407F00000000000402020204009A
:1006130000000000000000000000000000000000D7
:1006230080808080808080800002020400000000BF
:1006330000000000000000000000808080800000B7
:100643000019242222223F2008F8008080000000A5
:10065300003F112020110E00000000808080000068
:10066300000E112020201100000000808088F80077
:10067300000E112020103F200000808080800000A9
:10068300001F222222221300008080F0888888180D
:100693000020203F20200000000080808080800018
:1006A300006B94949493600008F8008080800000AD
:1006B300203F210000203F20008098980000000088
:1006C3000020203F202000000000008098980000B8
:1006D30000C08080807F000008F8000080808000D8
:1006E300203F24022D302000000808F800000000FD
:1006F3000020203F202000008080808080808000B8
:10070300203F20003F20003F808000808080000049
:10071300203F210000203F200000808080800000D7
:10072300001F202020201F00808000808000000008
:1007330080FFA12020110E00000000808080800037
:10074300000E112020A0FF80808080008080800028
:1007530020203F2120000100000080808080800055
:100763000033242424241900008080E080800000CA
:100773000000001F20200000808000000080800017
:10078300001F202020103F20808080000080808078
:1007930000010E3008060100808000800080808008
:1007A3000F300C030C300F0000808000808080002D
:1007B3000020312E0E312000808080000080808058
:1007C30080818E7018060100008080808080800008
:1007D3000021302C2221300000000000807C020226
:1007E30000000000003F404000000000FF00000048
:1007F30000000000FF0000000002027C80000000F7
:100803000040403F00000000000601010202040412
:1008130000000000000000000000F8494A4C48F8BE
:10082300484C4A49F800000010101312121212FF2C
:100833001212121213101000000000FE20202020BC
:10084300203F2020202000000080601F02020202BF
:100853000202FE00000000001010D0FF901000FE06
:10086300020202FE00000000040300FF0083601F79
:100873000000003F4040780080828282FE828282B4
:100883008282FE8282828000008040300F0000005E
:100893000000FF00000000000000181610D0B897F9
:1008A30090909092941000000020108C8380414619
:1008B30028102844438080001010D0FF901000FCC3
:1008C30024E4242223E20000040300FF0083601FCA
:0808D300804126182641800037
:100F4A00EF4E60157D087C07ED1DAA0470011C4A4E
:090F5A0070F6EF1F70EA1E80E73B
:010F6300226B
:100F64008F08E5087006FD7FA6120E3EE508B40161
:090F740007E4FD7FA7120E3E22E6
:100E9A008F08E508700DFD7FC8120E3EE4FD7FA1A4
:100EAA00120E3EE508B4010EE4FD7FC0120E3EE4C8
:070EBA00FD7FA0120E3E2295
:080FE0007F01AE071FEE70FA5D
:010FE80022E6
:0F0FAA00D291D290120FE0C291120FE0C29022AA
:0A0FD600C291D290120FE0D29122D6
:0F0FB900D291120FE0D290120FE0C290020FE01F
:020EC100AD077B
:100EC300E4FCC290ED30E704D2918002C291120F8C
:100ED300E0D290120FE0C290ED25E0FD0CBC08E2D9
:010EE30022EC
:0D0E3100120E3EE4FDFF120E3EE4FD7F10A8
:100E3E00AB05AA07120FAA7F78120EC1120FB9EBDB
:100E4E0060047F408002E4FF120EC1120FB9AF02A0
:090E5E00120EC1120FB9020FD6E9
:100F0700A907ED24B0FFE4FD120E3EE954F0C454E6
:100F17000F4410FFE4FD120E3EE9540FFFE4FD02FB
:020F27000E3E7C
:100F9500E4FD7F8D120E3EE4FD7F14120E3EE4FD4E
:050FA5007FAF020E3ECB
:0E0FC800E4FD7F8D120E37E4FD7FAE020E3E7B
:100EE400E4F9E924B0FFE4FD120E31E4F5087D01D4
:100EF400E4FF120E3E0508E508C3948040F009B9EA
:020F040008E003
:010F060022C8
:0409BC008F128D13F6
:1009C000E4F516E515C313FDF517E4F518F519E57B
:1009D00015B40808751A00751B068029E515131350
:1009E00013541FFF7E00E515540760059000018039
:1009F00003900000E5822FFFE5833EFE7C00120B92
:100A0000798E1A8F1BEB24E0F516AD13AF12120F7F
:100A100007E4F518F519C3E519951BE518951A5063
:100A200067E517FD7C00AE18AF19120B8BED4C700B
:100A30000FE51564086009AD130513AF12120F0717
:100A4000E515B4081075F006E516A42403F582E553
:100A5000F034008013E515B4102E75F010E516A4DF
:100A6000242BF582E5F03402F583E5822519F58221
:100A7000E5833518F583E493FF7D01120E3E0519D9
:080A8000E51970920518808E43
:010A8800224B
:040F7D008F12A90521
:100F81007F017E00AD0119ED6009AD127C00120BED
:030F91007980F173
:010F9400223A
:080CF7008F088D098A0A8B0B9E
:100CFF00E4F510F511E50DB40803751002E4F50ED7
:100D0F00E50EC3950C5069C3E50C950E14FD7F0AD3
:100D1F00120F7DAC0AAD0BCFCDCFCECCCE120B8B3D
:100D2F007C007D0A120B8B8D0FE5117025E50C14DD
:100D3F00FFE50EC39F501BE50F7014E50DC3132580
:100D4F0010850EF0A42508FF850D157B20801875E2
:100D5F001101E50DC3132510850EF0A42508FFE53D
:100D6F000F2430FB850D15AD091209BC050E8090BF
:010D7F002251
:0A0DE8008F088D098B0A8A0B890C15
:100DF200E4F50EAB0AAA0BA90C850E8275830012CC
:100E02000B4C602AAF0E050E8F82758300120B4CBD
:100E1200FB850D15AD09AF081209BCE50DB4080438
:0E0E220074068004E50DC3132508F50880C58D
:010E3000229F
:060C6C008F278D288B2963
:100C7200E52A131313541FFF7E00E52A54077C0054
:100C820060047D0180027D00ED2FFFEC3EFEAD2A67
:100C92007C00120B798E2D8F2EE4F52BF52CC3E5FB
:100CA2002C952EE52B952D504BE52AFD7C00AE2B85
:100CB200AF2C120B8BED4C7009AD280528AF271213
:100CC2000F07E52AB4102DE529C43354E0241BF59F
:100CD20082E43408F583E582252CF582E583352B01
:100CE200F583E493FF7D01120E3E052CE52C70AED8
:040CF200052B80AAA4
:010CF60022DB
:060D80008F1C8D1D8B1E6F
:100D8600E4F523F524E51F131313541FFFE51F5441
:100D96000760047E0180027E00EF2EF51FE4F52534
:100DA600E525C3951F503AE525251DFDAF1C120FFD
:100DB60007E4F526E526C3951E5022AB20AA21A9F5
:100DC600220524E524AE237002052314F5828E83C2
:100DD600120B4CFF7D01120E3E052680D70525809D
:010DE600BF4D
:010DE70022E9
:100A8900C2927FC87E00120F4AD292E4FD7FAE1255
:100A99000E31E4FD7F40120E3EE4FD7F81120E3ED1
:100AA900E4FD7FCF120E3EE4FD7FA1120E3EE4FD70
:100AB9007FC8120E3EE4FD7FA6120E3EE4FD7FA81C
:100AC900120E3EE4FD7F3F120E3EE4FD7FD3120E6F
:100AD9003EE4FDFF120E3EE4FD7FD5120E3EE4FD1D
:100AE9007F80120E3EE4FD7FD9120E3EE4FD7FF1B8
:100AF900120E3EE4FD7FDA120E3EE4FD7F12120E65
:100B09003EE4FD7FDB120E3EE4FD7F40120E3EE423
:100B1900FD7F20120E3EE4FD7F02120E3EE4FD7FB2
:100B29008D120E3EE4FD7F14120E3EE4FD7FA412E9
:100B39000E3EE4FD7FA6120E3E120EE4E4FD7FAFE9
:030B4900020E3E5B
:03000000020BE010
:0C0BE000787FE4F6D8FD758130020C2708
:100B4C00BB010CE58229F582E5833AF583E022505E
:100B5C0006E92582F8E622BBFE06E92582F8E222A8
:0D0B6C00E58229F582E5833AF583E49322C2
:100B7900EF8DF0A4A8F0CF8CF0A428CE8DF0A42E90
:020B8900FE224A
:100B8B00BC000BBE0029EF8DF084FFADF022E4CC4E
:100B9B00F875F008EF2FFFEE33FEEC33FCEE9DEC17
:100BAB00984005FCEE9DFE0FD5F0E9E4CEFD22ED5D
:100BBB00F8F5F0EE8420D21CFEADF075F008EF2FA7
:100BCB00FFED33FD4007985006D5F0F222C398FD98
:050BDB000FD5F0EA2235
:100BEC000208DBE493A3F8E493A34003F68001F23C
:100BFC0008DFF48029E493A3F85407240CC8C3330A
:100C0C00C4540F4420C8834004F456800146F6DFD8
:100C1C00E4800B0102040810204080900FE9E47E70
:100C2C00019360BCA3FF543F30E509541FFEE493CD
:100C3C00A360010ECF54C025E060A840B8E493A394
:100C4C00FAE493A3F8E493A3C8C582C8CAC583CABF
:100C5C00F0A3C8C582C8CAC583CADFE9DEE780BE77
:010FED000003
:00000001FF
