:1012CB0054656D70657261747572653A0048756D21
:1012DB0069646974793A0054696D653A004C6967C1
:1012EB0068743A003A0062757320313A006D696E8A
:1012FB000062757320323A0062757320333A0048EE
:10130B00454C5000627573313A20006D696E0A00CE
:10131B00627573323A2000627573333A200065723E
:04132B00726F72006B
:10146E00013300012900012E0C012F00012D000275
:10147E00270065012C00012B00013C39013D28019C
:10148E002563012600063500000000000001300033
:10149E00013400013B00013100012A00013200013C
:0214AE00240018
:10174300758901E4F58A758C4CC28DD28CD2A9D2ED
:04175300AFC2B92246
:1016B50053877F75985053890F438920758BFD7526
:0916C5008DFDC2ABD28ED2AC2225
:0917CC00D288D2A8C28AD2AA2256
:09177F0075F00A84E5F02430FF46
:081788008F993099FDC29922EE
:0615A6007BFF7A137916A9
:0615AC008B0D8A0E890F71
:1015B200E4FEAB0DAA0EA90F8E82758300120FB73F
:0915C200FF60061217880E80E993
:0115CB0022FD
:1008FE00120EF4E4FF1216CEE4FF1215581216FF74
:10090E001213D77FAC1211EB8E278F287BFF7A1232
:10091E0079CB7515087D03E4FF1214257BFF7A123F
:10092E0079D87515087D04E4FF1214257BFF7A1221
:10093E0079E27515087D05E4FF1214257BFF7A1206
:10094E0079E87515087D06E4FF1214257BFF7A12EF
:10095E0079EF7515087D057F2C1214257BFF7A1211
:10096E0079EF7515087D057F3C1214257BFF7A12F1
:10097E0079F1751508E4FDFF1214257BFF7A1279C3
:10098E00F8751508E4FD7F401214257BFF7A127965
:10099E00FC7515087D01E4FF1214257BFF7A127990
:1009AE00F87515087D017F401214257BFF7A1379A7
:1009BE00037515087D02E4FF1214257BFF7A127968
:1009CE00F87515087D027F40121425E52EC4540FCC
:1009DE0075F00AA4FFE52E540F7C002FFBEC35F0CA
:1009EE00FA7514027515087D057F20121162E52F28
:1009FE00C4540F75F00AA4FFE52F540F7C002FFB93
:100A0E00EC35F0FA7514027515087D057F3012115C
:100A1E0062E52DC4540F75F00AA4FFE52D540F7C2A
:100A2E00002FFBEC35F0FA7514027515087D057F65
:100A3E0040121162751403751508AB28AA277D069E
:100A4E007F28121162E554FB7A00751402751508A1
:100A5E007D037F48121162E555FB7A00751402750D
:100A6E0015087D047F4812116212174312157F126A
:100A7E0017CC7F851213388F2E7F831213388F2F4A
:100A8E007F811213388F2D1216B51214B18F3BE5DC
:100A9E0034FB7A007514017515087D07E4FF1211F9
:100AAE0062E534703EE531B40106121757E4F531B4
:100ABE00E52AB40107D28CD2A9E4F52A751D087B6C
:100ACE0020E4FD7F58120E27751D087B207D017FC7
:100ADE0058120E27751D087B207D027F58120E2797
:100AEE00020BDF12176BC28CC2A9753101752A0178
:100AFE00E53464017045751D087B3CFD7F58120E70
:100B0E0027751D087B207D017F58120E27751D0845
:100B1E007B207D027F58120E27E53BB45504053C21
:100B2E008007E53BB44414153CE53CFB7A00751494
:100B3E0002751508E4FD7F28121162E53464027017
:100B4E0045751D087B20FD7F58120E27751D087BED
:100B5E003C7D017F58120E27751D087B207D027F7C
:100B6E0058120E27E53BB45504053D8007E53BB40E
:100B7E004414153DE53DFB7A007514027515087D8C
:100B8E00017F28121162E53464037045751D087BE0
:100B9E0020FD7F58120E27751D087B207D017F5882
:100BAE00120E27751D087B3C7D027F58120E27E51D
:100BBE003BB4550405258007E53BB444141525E5E3
:100BCE0025FB7A007514027515087D027F28121117
:100BDE0062D2A8E4F53BE52664016003020A98F5AB
:100BEE0026153C153D1525E53CFB7A00751402755E
:100BFE001508E4FD7F28121162E53DFB7A0075149D
:100C0E00027515087D017F28121162E525FB7A0019
:100C1E007514027515087D027F281211627F8512E8
:100C2E0013388F2E7F831213388F2F7F8112133834
:100C3E008F2D7FAC1211EB8E278F281216FF1213F9
:100C4E00D7E52EC4540F75F00AA4FFE52E540F7C81
:100C5E00002FFBEC35F0FA7514027515087D057F33
:100C6E0020121162E52FC4540F75F00AA4FFE52F70
:100C7E00540F7C002FFBEC35F0FA75140275150835
:100C8E007D057F30121162E52DC4540F75F00AA454
:100C9E00FFE52D540F7C002FFBEC35F0FA75140296
:100CAE007515087D057F40121162E52BC3940A501D
:100CBE0003020A98E4F52B751403751508AB28AAE0
:100CCE00277D067F28121162E554FB7A0075140207
:100CDE007515087D037F48121162E555FB7A007584
:0F0CEE0014027515087D047F48121162020A98DE
:03000B0002167B5F
:10167B00C0E0C0D0052C758A00758C4CE52CC3944A
:10168B00144008752C00052B752601D0D0D0E03204
:030013000214EAEA
:1014EA00C0E0C083C082C0D075D000C000C001C0B7
:1014FA0002C003C006C0077BFF7A13790A1215AC33
:10150A0030B3FDD007D006D003D002D001D000D02E
:08151A00D0D082D083D0E03272
:03000300021717CA
:10171700C0E0C0D0C2A80534E534C39404400375C3
:071727003400D0D0D0E03205
:03002300020CFDCF
:100CFD00C0E0C0F0C083C082C0D075D000C000C0BD
:0F0D0D0001C002C003C006C007209803020E10E9
:100D1C00C29885990BE50B640A600C74352530F884
:100D2C00A60B0530020E10E53564517060E5367087
:100D3C005C7BFF7A13790F1215ACE53C75F00A84D5
:100D4C002430FF121788E53C12177F1215A67BFF83
:100D5C007A13791B1215ACE53D75F00A842430FF2B
:100D6C00121788E53D12177F1215A67BFF7A1379AF
:100D7C00221215ACE52575F00A842430FF12178871
:100D8C00E52512177F7BFF7A137916805FE53564B2
:030D9C0053705C35
:100D9F00E53624D0F50C24FE601D1460302402705B
:100DAF0042E53875F00AA4FFE53775F064A42F25E6
:100DBF00392430F53C8035E53875F00AA4FFE53766
:100DCF0075F064A42F25392430F53D801FE5387563
:100DDF00F00AA4FFE53775F064A42F25392430F508
:0C0DEF002580097BFF7A1379291215ACCE
:100DFB007530007535007536007537007538007520
:050E0B003900753A00FA
:100E1000D007D006D003D002D001D000D0D0D082ED
:070E2000D083D0F0D0E032D6
:10165A00E4FDFCC3ED9FEE6480F8EC6480985010C2
:10166A000079027BC7DBFED9FC0DBD00010C80E3CB
:01167A00224D
:040006007F12DFFE88
:01000A0022D3
:0F179000E4FEEEC39F5008007D14DDFE0E80F3D3
:01179F002227
:100026000000000000000000002F00000000070094
:10003600070000147F147F1400242A7F2A1200620E
:1000460064081323003649552250000005030000BA
:1000560000001C224100000041221C000014083E42
:1000660008140008083E0808000000A06000000808
:10007600080808080000606000000020100804025C
:10008600003E5149453E0000427F4000004261511A
:100096004946002141454B31001814127F100027B4
:1000A60045454539003C4A49493000017109050377
:1000B60000364949493600064949291E00003636A8
:1000C600000000005636000000081422410000140B
:1000D60014141414000041221408000201510906E8
:1000E60000324959513E007C1211127C007F494969
:1000F6004936003E41414122007F4141221C007F9A
:1001060049494941007F09090901003E4149497AA7
:10011600007F0808087F0000417F41000020404121
:100126003F01007F08142241007F40404040007F8D
:10013600020C027F007F0408107F003E4141413ED1
:10014600007F09090906003E4151215E007F091919
:1001560029460046494949310001017F0101003F16
:100166004040403F001F2040201F003F4038403F96
:1001760000631408146300070870080700615149FA
:10018600454300007F41410000552A552A5500008D
:1001960041417F000004020102040040404040400B
:1001A600000001020400002054545478007F4844A3
:1001B600443800384444442000384444487F0038DA
:1001C6005454541800087E0901020018A4A4A47C03
:1001D600007F080404780000447D400000408084CD
:1001E6007D00007F102844000000417F4000007C15
:1001F60004180478007C0804047800384444443821
:1002060000FC242424180018242418FC007C08046C
:10021600040800485454542000043F444020003C45
:100226004040207C001C2040201C003C4030403CCC
:10023600004428102844001CA0A0A07C004464545C
:100246004C441414141414140000000000000000A0
:100256000000000000000000000000F800000000A0
:10026600000000333000000000100C06100C0600E1
:10027600000000000000000040C07840C078400048
:10028600043F04043F040400007088FC08300000AA
:10029600001820FF211E0000F008F000E018000002
:1002A60000211C031E211E0000F0088870000000BB
:1002B6001E2123241927211010160E00000000000D
:1002C6000000000000000000000000E0180402002A
:1002D600000000071820400000020418E00000009B
:1002E6000040201807000000404080F08040400099
:1002F6000202010F01020200000000F000000000EF
:100306000101011F010101000000000000000000C2
:1003160080B0700000000000000000000000000037
:1003260000010101010101010000000000000000C0
:10033600003030000000000000000000806018045B
:10034600006018060100000000E010080810E00038
:10035600000F102020100F00001010F80000000001
:100366000020203F20200000007008080888700048
:1003760000302824222130000030088888483000C8
:100386000018202020110E000000C02010F80000E8
:1003960000070424243F240000F808888808080081
:1003A6000019212020110E0000E010888818000096
:1003B600000F112020110E0000380808C838080068
:1003C6000000003F000000000070880808887000E8
:1003D600001C222121221C0000E010080810E00069
:1003E6000000312222110F00000000C0C0000000F2
:1003F6000000003030000000000000800000000017
:10040600000080600000000000008040201008000E
:1004160000010204081020004040404040404000D7
:1004260004040404040404000008102040800000B2
:100436000020100804020100007048080808F000B7
:100446000000003036010000C030C828E810E00087
:100456000718272423140B000000C038E000000012
:10046600203C23020227382008F88888887000007C
:10047600203F202020110E00C03008080808380050
:10048600071820202010080008F808080810E000C7
:10049600203F202020100F0008F88888E808100068
:1004A600203F20202320180008F88888E80810003C
:1004B600203F200003000000C03008080838000074
:1004C60007182020221E020008F808000008F80875
:1004D600203F210101213F20000808F808080000FC
:1004E6000020203F2020000000000808F80808002F
:1004F600C08080807F00000008F888C028180800A7
:10050600203F20012638200008F8080000000000DF
:10051600203F20202020300008F8F800F8F80800D6
:10052600203F003F003F200008F830C00008F808D0
:10053600203F200007183F00E01008080810E000E0
:100546000F10202020100F0008F808080808F000F7
:10055600203F210101010000E01008080810E0001A
:100566000F18242438504F0008F8888888887000AF
:10057600203F2000030C302000708808080838004F
:100586000038202121221C00180808F80808180045
:100596000000203F2000000008F808000008F808C6
:1005A600001F202020201F000878880000C8380877
:1005B600000007380E010000F80800F80008F800EF
:1005C600033C0700073C0300081868808068180889
:1005D60020302C03032C30200838C800C838080007
:1005E6000000203F2000000010080808C838080056
:1005F6002038262120201800000000FE02020200FA
:100606000000007F40404000000C30C000000000A9
:10061600000000010638C00000020202FE000000D1
:10062600004040407F000000000004020202040077
:1006360000000000000000000000000000000000B4
:10064600808080808080808000020204000000009C
:100656000000000000000000000080808080000094
:100666000019242222223F2008F800808000000082
:10067600003F112020110E00000000808080000045
:10068600000E112020201100000000808088F80054
:10069600000E112020103F20000080808080000086
:1006A600001F222222221300008080F088888818EA
:1006B6000020203F202000000000808080808000F5
:1006C600006B94949493600008F80080808000008A
:1006D600203F210000203F20008098980000000065
:1006E6000020203F20200000000000809898000095
:1006F60000C08080807F000008F8000080808000B5
:10070600203F24022D302000000808F800000000D9
:100716000020203F20200000808080808080800094
:10072600203F20003F20003F808000808080000026
:10073600203F210000203F200000808080800000B4
:10074600001F202020201F008080008080000000E5
:1007560080FFA12020110E00000000808080800014
:10076600000E112020A0FF80808080008080800005
:1007760020203F2120000100000080808080800032
:100786000033242424241900008080E080800000A7
:100796000000001F202000008080000000808000F4
:1007A600001F202020103F20808080000080808055
:1007B60000010E30080601008080008000808080E5
:1007C6000F300C030C300F0000808000808080000A
:1007D6000020312E0E312000808080000080808035
:1007E60080818E70180601000080808080808000E5
:1007F6000021302C2221300000000000807C020203
:1008060000000000003F404000000000FF00000024
:1008160000000000FF0000000002027C80000000D3
:100826000040403F000000000006010102020404EF
:1008360000000000000000000000F8494A4C48F89B
:10084600484C4A49F800000010101312121212FF09
:100856001212121213101000000000FE2020202099
:10086600203F2020202000000080601F020202029C
:100876000202FE00000000001010D0FF901000FEE3
:10088600020202FE00000000040300FF0083601F56
:100896000000003F4040780080828282FE82828291
:1008A6008282FE8282828000008040300F0000003B
:1008B6000000FF00000000000000181610D0B897D6
:1008C60090909092941000000020108C83804146F6
:1008D60028102844438080001010D0FF901000FCA0
:1008E60024E4242223E20000040300FF0083601FA7
:0808F600804126182641800014
:10169B00EF4E60157D087C07ED1DAA0470011C4AF6
:0916AB0070F6EF1F70EA1E80E7E3
:0116B4002213
:1016CE008F10E5107006FD7FA612152FE510B401E0
:0916DE0007E4FD7FA712152F227D
:101558008F10E510700DFD7FC812152FE4FD7FA1D7
:1015680012152FE510B4010EE4FD7FC012152FE40B
:07157800FD7FA012152F22D8
:0817D5007F01AE071FEE70FA60
:0117DD0022E9
:0F17A000D291D2901217D5C2911217D5C29022B2
:0A001600C291D2901217D5D29122A8
:0F17AF00D2911217D5D2901217D5C2900217D52A
:0215F200AD0743
:1015F400E4FCC290ED30E704D2918002C29112174C
:10160400D5D2901217D5C290ED25E0FD0CBC08E2AE
:0116140022B3
:0D15220012152FE4FDFF12152FE4FD7F10C0
:10152F00AB05AA071217A07F781215F21217AFEBAF
:10153F0060047F408002E4FF1215F21217AFAF0272
:09154F001215F21217AF0200168A
:10163800A907ED24B0FFE4FD12152FE954F0C454B6
:101648000F4410FFE4FD12152FE9540FFFE4FD02CB
:02165800152F4C
:10172E00E4FD7F8D12152FE4FD7F1412152FE4FDBD
:05173E007FAF02152F32
:0E17BE00E4FD7F8D121528E4FD7FAE02152F8D
:10161500E4F9E924B0FFE4FD121522E4F5107D019B
:10162500E4FF12152F0510E510C3948040F009B9A9
:0216350008E0CB
:011637002290
:040E27008F1A8D1B76
:100E2B00E4F51EE51DC313FDF51FE4F520F521E5E3
:100E3B001DB408087522007523068029E51D1313C0
:100E4B0013541FFF7E00E51D5407600590000180C1
:100E5B0003900000E5822FFFE5833EFE7C00120F1E
:100E6B00E48E228F23EB24E0F51EAD1BAF1A121676
:100E7B0038E4F520F521C3E5219523E52095225093
:100E8B0067E51FFD7C00AE20AF21120FF6ED4C7015
:100E9B000FE51D64086009AD1B051BAF1A12163850
:100EAB00E51DB4081075F006E51EA42426F582E5B1
:100EBB00F034008013E51DB4102E75F010E51EA460
:100ECB00244EF582E5F03402F583E5822521F58287
:100EDB00E5833520F583E493FF7D0112152F052162
:080EEB00E52170920520808EC4
:010EF30022DC
:0416E7008F1AA905A8
:1016EB007F017E00AD0119ED6009AD1A7C00120F70
:0316FB00E480F197
:0116FE0022C9
:081162008F108D118A128B130E
:10116A00E4F518F519E515B40803751802E4F5163F
:10117A00E516C395145069C3E514951614FD7F0A44
:10118A001216E7AC12AD13CFCDCFCECCCE120FF6DE
:10119A007C007D0A120FF68D17E5197025E51414E7
:1011AA00FFE516C39F501BE5177014E515C31325F9
:1011BA00188516F0A42510FF85151D7B208018754B
:1011CA001901E515C31325188516F0A42510FFE5A6
:1011DA00172430FB85151DAD11120E2705168090B8
:0111EA0022E2
:0A1425008F108D118B128A138914A9
:10142F00E4F516AB12AA13A9148516827583001260
:10143F000FB7602AAF1605168F82758300120FB78C
:10144F00FB85151DAD11AF10120E27E515B408045D
:0E145F0074068004E515C3132510F51080C532
:01146D00225C
:0610D7008F498D4A8B4B8E
:1010DD00E54C131313541FFF7E00E54C54077C00A1
:1010ED0060047D0180027D00ED2FFFEC3EFEAD4CD6
:1010FD007C00120FE48E4F8F50E4F54DF54EC3E595
:10110D004E9550E54D954F504BE54CFD7C00AE4D49
:10111D00AF4E120FF6ED4C7009AD4A054AAF4912AC
:10112D001638E54CB4102DE54BC43354E0243EF590
:10113D0082E43408F583E582254EF582E583354D4D
:10114D00F583E493FF7D0112152F054EE54E70AE2C
:04115D00054D80AA12
:01116100226B
:061263008F3E8D3F8B4021
:10126900E4F545F546E541131313541FFFE54154D1
:101279000760047E0180027E00EF2EF541E4F54708
:10128900E547C39541503AE547253FFDAF3E121664
:1012990038E4F548E548C395405022AB42AA43A932
:1012A900440546E546AE457002054514F5828E8330
:1012B900120FB7FF7D0112152F054880D70547800A
:0112C900BF65
:0112CA002201
:100EF400C2927FC87E0012169BD292E4FD7FAE128E
:100F04001522E4FD7F4012152FE4FD7F8112152F79
:100F1400E4FD7FCF12152FE4FD7FA112152FE4FD10
:100F24007FC812152FE4FD7FA612152FE4FD7FA8BC
:100F340012152FE4FD7F3F12152FE4FD7FD3121508
:100F44002FE4FDFF12152FE4FD7FD512152FE4FDCC
:100F54007F8012152FE4FD7FD912152FE4FD7FF158
:100F640012152FE4FD7FDA12152FE4FD7F121215FE
:100F74002FE4FD7FDB12152FE4FD7F4012152FE4D3
:100F8400FD7F2012152FE4FD7F0212152FE4FD7F53
:100F94008D12152FE4FD7F1412152FE4FD7FA4128A
:100FA400152FE4FD7FA612152F121615E4FD7FAF51
:030FB40002152FF4
:1016FF00C2937F147E0012165AD2931200062093C3
:08170F00063093FD2093FD223A
:1015CC00E4F515F5143093FD120006E51525E0F54C
:1015DC00153093064315012093FD0514E514C394AF
:0515EC000840E2AF150C
:0115F10022D7
:1013D7001215CC8F101215CC8F111215CC8F12123B
:1013E70015CC8F131215CC8F51120006E51025115D
:1013F700FFE433FE7C00EF2512FFEC3EFEEF2513E2
:10140700FFEC3EFEEFB55113ECB5060F8510558581
:0D14170011538512548513527F01227F006E
:0114240022A5
:10157F00C2B5C2B6E4FD7F8E121386E4FD7F8012E2
:10158F001386E4FD7F821213867D127F84121386E9
:07159F007D807F8E021386A0
:02138600A907B5
:10138800D2B5E4FB7E007401A803088005C333CE00
:1013980033CED8F9FFE9F582EF558224FF92B4D213
:1013A800B6C2B60BBB08DDE4FB7E007401A80308D7
:1013B8008005C333CE33CED8F9FFEDF582EF5582E1
:0E13C80024FF92B4D2B6C2B60BBB08DDC2B58C
:0113D60022F4
:09132F00E4FD7F8E1213867F801D
:02133800AD07FF
:10133A00E4F9430501D2B5FB7E007401A8030880D5
:10134A0005C333CE33CED8F9FFEDF582EF558224AB
:10135A00FF92B4C2B6D2B60BBB08DDE4FBD2B6C26A
:10136A00B630B40DA8037401088002C333D8FC4216
:0B137A00010BBB08E8C2B5C2B4AF0114
:011385002245
:1017570012132FAD0753057F7F801213867D807F7D
:041767008E02138655
:10176B0012132FAD074305807F801213867D807F78
:04177B008E02138641
:0211EB00AD074E
:1011ED00E4F511F512C2B6C2B5F5107E007480A8F3
:1011FD0010088006CEA2E713CE13D8F8FFEDFBEF53
:10120D005B24FF92B4D2B6C2B60510E510B408DB6C
:10121D00E4F510D2B6C2B630B71B7E80E4A8100834
:10122D008005CEC313CE13D8F94212EE42117F01C1
:10123D007E0012165A0510E510C3941040D5D2B594
:10124D00AE11E5127808088005CEC313CE13D8F978
:05125D00FF8E11F512E7
:011262002269
:1014B100E4F51020B0167F14FE12165A30B0FD7FED
:1014C100147E0012165A751055AF102220B1177FE5
:1014D100147E0012165A30B1FD7F147E0012165A86
:0814E100751044AF1022AF109A
:0114E90022E0
:0300000002104BA0
:0C104B00787FE4F6D8FD75815502109204
:100FB700BB010CE58229F582E5833AF583E02250EF
:100FC70006E92582F8E622BBFE06E92582F8E22239
:0D0FD700E58229F582E5833AF583E4932253
:100FE400EF8DF0A4A8F0CF8CF0A428CE8DF0A42E21
:020FF400FE22DB
:100FF600BC000BBE0029EF8DF084FFADF022E4CCDF
:10100600F875F008EF2FFFEE33FEEC33FCEE9DECA7
:10101600984005FCEE9DFE0FD5F0E9E4CEFD22EDED
:10102600F8F5F0EE8420D21CFEADF075F008EF2F37
:10103600FFED33FD4007985006D5F0F222C398FD28
:051046000FD5F0EA22C5
:101057000208FEE493A3F8E493A34003F68001F2A9
:1010670008DFF48029E493A3F85407240CC8C3339A
:10107700C4540F4420C8834004F456800146F6DF69
:10108700E4800B010204081020408090146EE47E77
:10109700019360BCA3FF543F30E509541FFEE4935E
:1010A700A360010ECF54C025E060A840B8E493A325
:1010B700FAE493A3F8E493A3C8C582C8CAC583CA50
:1010C700F0A3C8C582C8CAC583CADFE9DEE780BE08
:0114B000003B
:00000001FF
