:1011700054656D70657261747572653A0048756D7D
:1011800069646974793A0054696D653A004C69671D
:1011900068743A003A0062757320313A006D696EE6
:1011A0000062757320323A0062757320333A00484A
:1011B000454C5000627573313A20006D696E0A002B
:1011C000627573323A2000627573333A200065729B
:0411D000726F7200C8
:10137800012F00012800012C0C012D00012B000277
:10138800260001012A000129000136390137280108
:1013980024630125000630000000000000012E0033
:10157D00758901E4F58A758C4CC28DD28CD2A9D2B5
:04158D00AFC2B9220E
:1015060053877F75985053890F438920758BFD75D6
:091516008DFDC2ABD28ED2AC22D5
:05000300C28AD2AA220E
:0915910075F00A84E5F02430FF36
:08159A008F993099FDC29922DE
:0613F7007BFF7A1179BBB7
:0613FD008B0D8A0E890F22
:10140300E4FEAB0DAA0EA90F8E82758300120E6B3C
:09141300FF600612159A0E80E933
:01141C0022AD
:1008FE00E4F5A0120DA8E4FF12151FE4FF1213A9D0
:10090E001215501212257FAC12109F8E268F277B48
:10091E00FF7A1179707515087D03E4FF1212C17B01
:10092E00FF7A11797D7515087D04E4FF1212C17BE3
:10093E00FF7A1179877515087D05E4FF1212C17BC8
:10094E00FF7A11798D7515087D06E4FF1212C17BB1
:10095E00FF7A1179947515087D057F2C1212C17BD3
:10096E00FF7A1179947515087D057F3C1212C17BB3
:10097E00FF7A117996751508E4FDFF1212C17BFFFF
:10098E007A11799D751508E4FD7F401212C17BFF27
:10099E007A1179A17515087D01E4FF1212C17BFF52
:1009AE007A11799D7515087D017F401212C17BFF6A
:1009BE007A1179A87515087D02E4FF1212C17BFF2A
:1009CE007A11799D7515087D027F401212C1E52CB2
:1009DE00C4540F75F00AA4FFE52C540F7C002FFBB6
:1009EE00EC35F0FA7514027515087D057F2012108E
:1009FE0016E52DC4540F75F00AA4FFE52D540F7C97
:100A0E00002FFBEC35F0FA7514027515087D057F85
:100A1E0030121016E52BC4540F75F00AA4FFE52B07
:100A2E00540F7C002FFBEC35F0FA75140275150887
:100A3E007D057F40121016751403751508AB27AA95
:100A4E00267D067F28121016E54EFB7A00751402DD
:100A5E007515087D037F48121016E54FFB7A007559
:100A6E0014027515087D047F4812101612157D129A
:100A7E0013D01200037F851212738F2C7F831212F4
:100A8E00738F2D7F811212738F2B121506E525B4ED
:100A9E0001FBE4F525153615371524E536FB7A00EE
:100AAE00751402751508E4FD7F28121016E537FB44
:100ABE007A007514027515087D017F28121016E54F
:100ACE0024FB7A007514027515087D027F2812101A
:100ADE00167F851212738F2C7F831212738F2D7FC8
:100AEE00811212738F2B7FAC12109F8E268F2712BE
:100AFE001550121225E52CC4540F75F00AA4FFE50B
:100B0E002C540F7C002FFBEC35F0FA751402751582
:100B1E00087D057F20121016E52DC4540F75F00ABE
:100B2E00A4FFE52D540F7C002FFBEC35F0FA751465
:100B3E00027515087D057F30121016E52BC4540F73
:100B4E0075F00AA4FFE52B540F7C002FFBEC35F05B
:100B5E00FA7514027515087D057F40121016E529E9
:100B6E00C3940A5003020A9BE4F529751403751504
:100B7E0008AB27AA267D067F28121016E54EFB7AB3
:100B8E00007514027515087D037F48121016E54F87
:100B9E00FB7A007514027515087D047F4812101635
:030BAE00020A9B9D
:03000B000214CC10
:1014CC00C0E0C0D0052A758A00758C4CE52AC394FF
:1014DC00144008752A000529752501D0D0D0E032BA
:0300130002130ACB
:10130A00C0E0C083C082C0D075D000C000C001C098
:10131A0002C003C006C0077BFF7A1179AF1213FD22
:10132A0030B3FDD007D006D003D002D001D000D010
:08133A00D0D082D083D0E03254
:03002300020BB11C
:100BB100C0E0C0F0C083C082C0D075D000C000C00A
:0F0BC10001C002C003C006C007209803020CC485
:100BD000C29885990BE50B640A600C7430252EF8D9
:100BE000A60B052E020CC4E53064517060E531702F
:100BF0005C7BFF7A1179B41213FDE53675F00A8437
:100C00002430FF12159AE5361215911213F77BFF67
:100C10007A1179C01213FDE53775F00A842430FF8C
:100C200012159AE5371215911213F77BFF7A117995
:100C3000C71213FDE52475F00A842430FF12159ABB
:100C4000E5241215917BFF7A1179BB805FE5306452
:030C500053705C82
:100C5300E53124D0F50C24FE601D146030240270AD
:100C630042E53375F00AA4FFE53275F064A42F253D
:100C7300342430F5368035E53375F00AA4FFE532C8
:100C830075F064A42F25342430F537801FE53375C0
:100C9300F00AA4FFE53275F064A42F25342430F55F
:0C0CA3002480097BFF7A1179CE1213FD2A
:100CAF00752E007530007531007532007533007583
:050CBF00340075350052
:100CC400D007D006D003D002D001D000D0D0D0823B
:070CD400D083D0F0D0E03224
:1014AB00E4FDFCC3ED9FEE6480F8EC648098501073
:1014BB000079027BC7DBFED9FC0DBD00010C80E37C
:0114CB0022FE
:04000E007F12DFFE80
:0100120022CB
:100026000000000000000000002F00000000070094
:10003600070000147F147F1400242A7F2A1200620E
:1000460064081323003649552250000005030000BA
:1000560000001C224100000041221C000014083E42
:1000660008140008083E0808000000A06000000808
:10007600080808080000606000000020100804025C
:10008600003E5149453E0000427F4000004261511A
:100096004946002141454B31001814127F100027B4
:1000A60045454539003C4A49493000017109050377
:1000B60000364949493600064949291E00003636A8
:1000C600000000005636000000081422410000140B
:1000D60014141414000041221408000201510906E8
:1000E60000324959513E007C1211127C007F494969
:1000F6004936003E41414122007F4141221C007F9A
:1001060049494941007F09090901003E4149497AA7
:10011600007F0808087F0000417F41000020404121
:100126003F01007F08142241007F40404040007F8D
:10013600020C027F007F0408107F003E4141413ED1
:10014600007F09090906003E4151215E007F091919
:1001560029460046494949310001017F0101003F16
:100166004040403F001F2040201F003F4038403F96
:1001760000631408146300070870080700615149FA
:10018600454300007F41410000552A552A5500008D
:1001960041417F000004020102040040404040400B
:1001A600000001020400002054545478007F4844A3
:1001B600443800384444442000384444487F0038DA
:1001C6005454541800087E0901020018A4A4A47C03
:1001D600007F080404780000447D400000408084CD
:1001E6007D00007F102844000000417F4000007C15
:1001F60004180478007C0804047800384444443821
:1002060000FC242424180018242418FC007C08046C
:10021600040800485454542000043F444020003C45
:100226004040207C001C2040201C003C4030403CCC
:10023600004428102844001CA0A0A07C004464545C
:100246004C441414141414140000000000000000A0
:100256000000000000000000000000F800000000A0
:10026600000000333000000000100C06100C0600E1
:10027600000000000000000040C07840C078400048
:10028600043F04043F040400007088FC08300000AA
:10029600001820FF211E0000F008F000E018000002
:1002A60000211C031E211E0000F0088870000000BB
:1002B6001E2123241927211010160E00000000000D
:1002C6000000000000000000000000E0180402002A
:1002D600000000071820400000020418E00000009B
:1002E6000040201807000000404080F08040400099
:1002F6000202010F01020200000000F000000000EF
:100306000101011F010101000000000000000000C2
:1003160080B0700000000000000000000000000037
:1003260000010101010101010000000000000000C0
:10033600003030000000000000000000806018045B
:10034600006018060100000000E010080810E00038
:10035600000F102020100F00001010F80000000001
:100366000020203F20200000007008080888700048
:1003760000302824222130000030088888483000C8
:100386000018202020110E000000C02010F80000E8
:1003960000070424243F240000F808888808080081
:1003A6000019212020110E0000E010888818000096
:1003B600000F112020110E0000380808C838080068
:1003C6000000003F000000000070880808887000E8
:1003D600001C222121221C0000E010080810E00069
:1003E6000000312222110F00000000C0C0000000F2
:1003F6000000003030000000000000800000000017
:10040600000080600000000000008040201008000E
:1004160000010204081020004040404040404000D7
:1004260004040404040404000008102040800000B2
:100436000020100804020100007048080808F000B7
:100446000000003036010000C030C828E810E00087
:100456000718272423140B000000C038E000000012
:10046600203C23020227382008F88888887000007C
:10047600203F202020110E00C03008080808380050
:10048600071820202010080008F808080810E000C7
:10049600203F202020100F0008F88888E808100068
:1004A600203F20202320180008F88888E80810003C
:1004B600203F200003000000C03008080838000074
:1004C60007182020221E020008F808000008F80875
:1004D600203F210101213F20000808F808080000FC
:1004E6000020203F2020000000000808F80808002F
:1004F600C08080807F00000008F888C028180800A7
:10050600203F20012638200008F8080000000000DF
:10051600203F20202020300008F8F800F8F80800D6
:10052600203F003F003F200008F830C00008F808D0
:10053600203F200007183F00E01008080810E000E0
:100546000F10202020100F0008F808080808F000F7
:10055600203F210101010000E01008080810E0001A
:100566000F18242438504F0008F8888888887000AF
:10057600203F2000030C302000708808080838004F
:100586000038202121221C00180808F80808180045
:100596000000203F2000000008F808000008F808C6
:1005A600001F202020201F000878880000C8380877
:1005B600000007380E010000F80800F80008F800EF
:1005C600033C0700073C0300081868808068180889
:1005D60020302C03032C30200838C800C838080007
:1005E6000000203F2000000010080808C838080056
:1005F6002038262120201800000000FE02020200FA
:100606000000007F40404000000C30C000000000A9
:10061600000000010638C00000020202FE000000D1
:10062600004040407F000000000004020202040077
:1006360000000000000000000000000000000000B4
:10064600808080808080808000020204000000009C
:100656000000000000000000000080808080000094
:100666000019242222223F2008F800808000000082
:10067600003F112020110E00000000808080000045
:10068600000E112020201100000000808088F80054
:10069600000E112020103F20000080808080000086
:1006A600001F222222221300008080F088888818EA
:1006B6000020203F202000000000808080808000F5
:1006C600006B94949493600008F80080808000008A
:1006D600203F210000203F20008098980000000065
:1006E6000020203F20200000000000809898000095
:1006F60000C08080807F000008F8000080808000B5
:10070600203F24022D302000000808F800000000D9
:100716000020203F20200000808080808080800094
:10072600203F20003F20003F808000808080000026
:10073600203F210000203F200000808080800000B4
:10074600001F202020201F008080008080000000E5
:1007560080FFA12020110E00000000808080800014
:10076600000E112020A0FF80808080008080800005
:1007760020203F2120000100000080808080800032
:100786000033242424241900008080E080800000A7
:100796000000001F202000008080000000808000F4
:1007A600001F202020103F20808080000080808055
:1007B60000010E30080601008080008000808080E5
:1007C6000F300C030C300F0000808000808080000A
:1007D6000020312E0E312000808080000080808035
:1007E60080818E70180601000080808080808000E5
:1007F6000021302C2221300000000000807C020203
:1008060000000000003F404000000000FF00000024
:1008160000000000FF0000000002027C80000000D3
:100826000040403F000000000006010102020404EF
:1008360000000000000000000000F8494A4C48F89B
:10084600484C4A49F800000010101312121212FF09
:100856001212121213101000000000FE2020202099
:10086600203F2020202000000080601F020202029C
:100876000202FE00000000001010D0FF901000FEE3
:10088600020202FE00000000040300FF0083601F56
:100896000000003F4040780080828282FE82828291
:1008A6008282FE8282828000008040300F0000003B
:1008B6000000FF00000000000000181610D0B897D6
:1008C60090909092941000000020108C83804146F6
:1008D60028102844438080001010D0FF901000FCA0
:1008E60024E4242223E20000040300FF0083601FA7
:0808F600804126182641800014
:1014EC00EF4E60157D087C07ED1DAA0470011C4AA7
:0914FC0070F6EF1F70EA1E80E794
:0115050022C3
:10151F008F10E5107006FD7FA612134FE510B40172
:09152F0007E4FD7FA712134F220F
:1013A9008F10E510700DFD7FC812134FE4FD7FA16A
:1013B90012134FE510B4010EE4FD7FC012134FE480
:0713C900FD7FA012134F226B
:0815CE007F01AE071FEE70FA69
:0115D60022F2
:0F15A200D291D2901215CEC2911215CEC29022C4
:0A001600C291D2901215CED29122B1
:0F15B100D2911215CED2901215CEC2900215CE45
:02144300AD07F3
:10144500E4FCC290ED30E704D2918002C2911215FE
:10145500CED2901215CEC290ED25E0FD0CBC08E26F
:011465002264
:0D13420012134FE4FDFF12134FE4FD7F1066
:10134F00AB05AA071215A27F781214431215B1EB41
:10135F0060047F408002E4FF1214431215B1AF0204
:09136F001214431215B10200161C
:10148900A907ED24B0FFE4FD12134FE954F0C45449
:101499000F4410FFE4FD12134FE9540FFFE4FD025E
:0214A900134FDF
:10156800E4FD7F8D12134FE4FD7F1412134FE4FD49
:051578007FAF02134FDC
:0E15C000E4FD7F8D121348E4FD7FAE02134F51
:10146600E4F9E924B0FFE4FD121342E4F5107D012E
:10147600E4FF12134F0510E510C3948040F009B93C
:0214860008E07C
:011488002241
:040CDB008F1A8D1BC4
:100CDF00E4F51EE51DC313FDF51FE4F520F521E531
:100CEF001DB408087522007523068029E51D13130E
:100CFF0013541FFF7E00E51D54076005900001800F
:100D0F0003900000E5822FFFE5833EFE7C00120E6C
:100D1F00988E228F23EB24E0F51EAD1BAF1A121411
:100D2F0089E4F520F521C3E5219523E5209522508F
:100D3F0067E51FFD7C00AE20AF21120EAAED4C70AF
:100D4F000FE51D64086009AD1B051BAF1A1214894E
:100D5F00E51DB4081075F006E51EA42426F582E5FE
:100D6F00F034008013E51DB4102E75F010E51EA4AD
:100D7F00244EF582E5F03402F583E5822521F582D4
:100D8F00E5833520F583E493FF7D0112134F052191
:080D9F00E52170920520808E11
:010DA7002229
:041538008F1AA90558
:10153C007F017E00AD0119ED6009AD1A7C00120E21
:03154C009880F193
:01154F002279
:081016008F108D118A128B135B
:10101E00E4F518F519E515B40803751802E4F5168C
:10102E00E516C395145069C3E514951614FD7F0A91
:10103E00121538AC12AD13CFCDCFCECCCE120EAA28
:10104E007C007D0A120EAA8D17E5197025E5141481
:10105E00FFE516C39F501BE5177014E515C3132546
:10106E00188516F0A42510FF85151D7B2080187598
:10107E001901E515C31325188516F0A42510FFE5F3
:10108E00172430FB85151DAD11120CDB0516809053
:01109E00222F
:0A12C1008F108D118B128A1389140F
:1012CB00E4F516AB12AA13A91485168275830012C6
:1012DB000E6B602AAF1605168F82758300120E6B8C
:1012EB00FB85151DAD11AF10120CDBE515B4080411
:0E12FB0074068004E515C3132510F51080C598
:0113090022C1
:060F8B008F438D448B45ED
:100F9100E546131313541FFF7E00E54654077C00FA
:100FA10060047D0180027D00ED2FFFEC3EFEAD4629
:100FB1007C00120E988E498F4AE4F547F548C3E547
:100FC10048954AE5479549504BE546FD7C00AE47BB
:100FD100AF48120EAAED4C7009AD440544AF43125F
:100FE1001489E546B4102DE545C43354E0243EF59B
:100FF10082E43408F583E5822548F582E5833547A7
:10100100F583E493FF7D0112134F0548E54870AE67
:04101100054780AA65
:0110150022B8
:061108008F388D398B3A8F
:10110E00E4F53FF540E53B131313541FFFE53B5445
:10111E000760047E0180027E00EF2EF53BE4F54170
:10112E00E541C3953B503AE5412539FDAF381214E0
:10113E0089E4F542E542C3953A5022AB3CAA3DA95B
:10114E003E0540E540AE3F7002053F14F5828E83AA
:10115E00120E6BFF7D0112134F054280D7054180A1
:01116E00BFC1
:01116F00225D
:100DA800C2927FC87E001214ECD292E4FD7FAE128C
:100DB8001342E4FD7F4012134FE4FD7F8112134F6D
:100DC800E4FD7FCF12134FE4FD7FA112134FE4FD22
:100DD8007FC812134FE4FD7FA612134FE4FD7FA8CE
:100DE80012134FE4FD7F3F12134FE4FD7FD312131C
:100DF8004FE4FDFF12134FE4FD7FD512134FE4FDBE
:100E08007F8012134FE4FD7FD912134FE4FD7FF169
:100E180012134FE4FD7FDA12134FE4FD7F12121311
:100E28004FE4FD7FDB12134FE4FD7F4012134FE4C4
:100E3800FD7F2012134FE4FD7F0212134FE4FD7F64
:100E48008D12134FE4FD7F1412134FE4FD7FA4129B
:100E5800134FE4FD7FA612134F121466E4FD7FAF13
:030E680002134F23
:10155000C2937F147E001214ABD29312000E20931C
:08156000063093FD2093FD22EB
:10141D00E4F515F5143093FD12000EE51525E0F5F4
:10142D00153093064315012093FD0514E514C3945F
:05143D000840E2AF15BC
:011442002287
:1012250012141D8F1012141D8F1112141D8F1212FE
:10123500141D8F1312141D8F4B12000EE51025116E
:10124500FFE433FE7C00EF2512FFEC3EFEEF251395
:10125500FFEC3EFEEFB54B13ECB5060F85104F8541
:0D126500114D85124E85134C7F01227F0034
:011272002259
:1013D000C2B5C2B6E4FD7F8E1211D4E4FD7F801247
:1013E00011D4E4FD7F821211D47D127F841211D4B6
:0713F0007D807F8E0211D405
:0211D400A90769
:1011D600D2B5E4FB7E007401A803088005C333CEB4
:1011E60033CED8F9FFE9F582EF558224FF92B4D2C7
:1011F600B6C2B60BBB08DDE4FB7E007401A803088B
:101206008005C333CE33CED8F9FFEDF582EF558294
:0E12160024FF92B4D2B6C2B60BBB08DDC2B53F
:0112240022A7
:02127300AD07C5
:10127500E4F9430501D2B5FB7E007401A80308809B
:1012850005C333CE33CED8F9FFEDF582EF55822471
:10129500FF92B4C2B6D2B60BBB08DDE4FBD2B6C230
:1012A500B630B40DA8037401088002C333D8FC42DC
:0B12B500010BBB08E8C2B5C2B4AF01DA
:0112C000220B
:02109F00AD079B
:1010A100E4F510F511C2B6C2B5FB7E007480A80349
:1010B100088006CEA2E713CE13D8F8FFEDF582EF34
:1010C100558224FF92B4D2B6C2B60BBB08DCE4FB56
:1010D100D2B6C2B630B7147E80E4A803088005CE2C
:1010E100C313CE13D8F94211EE42100BBB10E1D25B
:1010F100B5AE10E5117808088005CEC313CE13D81C
:06110100F9FF8E10F5114C
:0111070022C5
:03000000020EFFEE
:0C0EFF00787FE4F6D8FD75814F020F46A5
:100E6B00BB010CE58229F582E5833AF583E022503C
:100E7B0006E92582F8E622BBFE06E92582F8E22286
:0D0E8B00E58229F582E5833AF583E49322A0
:100E9800EF8DF0A4A8F0CF8CF0A428CE8DF0A42E6E
:020EA800FE2228
:100EAA00BC000BBE0029EF8DF084FFADF022E4CC2C
:100EBA00F875F008EF2FFFEE33FEEC33FCEE9DECF5
:100ECA00984005FCEE9DFE0FD5F0E9E4CEFD22ED3B
:100EDA00F8F5F0EE8420D21CFEADF075F008EF2F85
:100EEA00FFED33FD4007985006D5F0F222C398FD76
:050EFA000FD5F0EA2213
:100F0B000208FEE493A3F8E493A34003F68001F2F6
:100F1B0008DFF48029E493A3F85407240CC8C333E7
:100F2B00C4540F4420C8834004F456800146F6DFB6
:100F3B00E4800B0102040810204080901378E47EBB
:100F4B00019360BCA3FF543F30E509541FFEE493AB
:100F5B00A360010ECF54C025E060A840B8E493A372
:100F6B00FAE493A3F8E493A3C8C582C8CAC583CA9D
:100F7B00F0A3C8C582C8CAC583CADFE9DEE780BE55
:0113A8000044
:00000001FF
