:1014550054656D70657261747572653A0048756D95
:1014650069646974793A0054696D653A004C696735
:1014750068743A003A0062757320313A006D696EFE
:0F1485000062757320323A0062757320333A00AB
:10141200013300012900012D0C012E00012C0002D4
:10142200270065012F00012B00013C39013D2801F5
:10143200256301260006350000000000000130008F
:10144200013400013B00013100012A000132000198
:02145200240074
:1008FE00120EFCE4FF1216BDE4FF12153B12170791
:10090E0012137B7FAC1211F38E278F287BFF7A1484
:10091E0079557515087D03E4FF1213C97BFF7A1410
:10092E0079627515087D04E4FF1213C97BFF7A14F2
:10093E00796C7515087D05E4FF1213C97BFF7A14D7
:10094E0079727515087D06E4FF1213C97BFF7A14C0
:10095E0079797515087D057F2C1213C97BFF7A14E2
:10096E0079797515087D057F3C1213C97BFF7A14C2
:10097E00797B751508E4FDFF1213C97BFF7A147994
:10098E0082751508E4FD7F401213C97BFF7A147936
:10099E00867515087D01E4FF1213C97BFF7A147961
:1009AE00827515087D017F401213C97BFF7A147979
:1009BE008D7515087D02E4FF1213C97BFF7A147939
:1009CE00827515087D027F401213C9E52DC4540FA0
:1009DE0075F00AA4FFE52D540F7C002FFBEC35F0CB
:1009EE00FA7514027515087D057F2012116AE52E21
:1009FE00C4540F75F00AA4FFE52E540F7C002FFB94
:100A0E00EC35F0FA7514027515087D057F3012115C
:100A1E006AE52CC4540F75F00AA4FFE52C540F7C24
:100A2E00002FFBEC35F0FA7514027515087D057F65
:100A3E004012116A751403751508AB28AA277D0696
:100A4E007F2812116AE554FB7A0075140275150899
:100A5E007D037F4812116AE555FB7A007514027505
:100A6E0015087D047F4812116A121773121562124F
:100A7E0017DD7F851212DC8F2D7F831212DC8F2EF5
:100A8E007F811212DC8F2C1216D61214948F3BAF6C
:100A9E0034EFFB7A007514017515087D07E4FF121B
:100AAE00116AE534703EE531B4010612174BE4F5D8
:100ABE0031E52AB40107D28CD2A9E4F52A751D08B6
:100ACE007B20E4FD7F58120E2F751D087B207D01C3
:100ADE007F58120E2F751D087B207D027F58120E37
:100AEE002F020BE312175FC28CC2A9753101752A52
:100AFE0001E53464017046751D087B3CFD7F58127C
:100B0E000E2F751D087B207D017F58120E2F751D2F
:100B1E00087B207D027F58120E2FE53BB45504054D
:100B2E003C8007E53BB44415153CAF3CEFFB7A0027
:100B3E00751402751508E4FD7F2812116AE53464F8
:100B4E00027046751D087B20FD7F58120E2F751DF5
:100B5E00087B3C7D017F58120E2F751D087B207D72
:100B6E00027F58120E2FE53BB45504053D8007E574
:100B7E003BB44415153DAF3DEFFB7A00751402757D
:100B8E0015087D017F2812116AE5346403704675DD
:100B9E001D087B20FD7F58120E2F751D087B207DB2
:100BAE00017F58120E2F751D087B3C7D027F581257
:100BBE000E2FE53BB4550405258007E53BB44415DF
:100BCE001525AF25EFFB7A007514027515087D0209
:100BDE007F2812116AD2A8E4F53BE5266401600372
:100BEE00020A98F526153C153D1525AF3CEFFB7A0C
:100BFE0000751402751508E4FD7F2812116AAF3DC9
:100C0E00EFFB7A007514027515087D017F2812110D
:100C1E006AAF25EFFB7A007514027515087D027F09
:100C2E002812116A7F851212DC8F2D7F831212DC3F
:100C3E008F2E7F811212DC8F2C7FAC1211F38E2738
:100C4E008F2812170712137BE52DC4540F75F00A67
:100C5E00A4FFE52D540F7C002FFBEC35F0FA751434
:100C6E00027515087D057F2012116AE52EC4540FFA
:100C7E0075F00AA4FFE52E540F7C002FFBEC35F027
:100C8E00FA7514027515087D057F3012116AE52C70
:100C9E00C4540F75F00AA4FFE52C540F7C002FFBF3
:100CAE00EC35F0FA7514027515087D057F401211AA
:100CBE006AE52BC3940A5003020A98E4F52B7514C7
:100CCE0003751508AB28AA277D067F2812116AE541
:100CDE0054FB7A007514027515087D037F481211B6
:100CEE006AE555FB7A007514027515087D047F4878
:060CFE0012116A020A98BF
:10166200E4FDFCC3ED9FEE6480F8EC6480985010BA
:101672000079027BC7DBFED9FC0DBD00010C80E3C3
:011682002245
:040006007F12DFFE88
:01000A0022D3
:0F179800E4FEEEC39F5008007D14DDFE0E80F3CB
:0117A700221F
:100026000000000000000000002F00000000070094
:10003600070000147F147F1400242A7F2A1200620E
:1000460064081323003649552250000005030000BA
:1000560000001C224100000041221C000014083E42
:1000660008140008083E0808000000A06000000808
:10007600080808080000606000000020100804025C
:10008600003E5149453E0000427F4000004261511A
:100096004946002141454B31001814127F100027B4
:1000A60045454539003C4A49493000017109050377
:1000B60000364949493600064949291E00003636A8
:1000C600000000005636000000081422410000140B
:1000D60014141414000041221408000201510906E8
:1000E60000324959513E007C1211127C007F494969
:1000F6004936003E41414122007F4141221C007F9A
:1001060049494941007F09090901003E4149497AA7
:10011600007F0808087F0000417F41000020404121
:100126003F01007F08142241007F40404040007F8D
:10013600020C027F007F0408107F003E4141413ED1
:10014600007F09090906003E4151215E007F091919
:1001560029460046494949310001017F0101003F16
:100166004040403F001F2040201F003F4038403F96
:1001760000631408146300070870080700615149FA
:10018600454300007F41410000552A552A5500008D
:1001960041417F000004020102040040404040400B
:1001A600000001020400002054545478007F4844A3
:1001B600443800384444442000384444487F0038DA
:1001C6005454541800087E0901020018A4A4A47C03
:1001D600007F080404780000447D400000408084CD
:1001E6007D00007F102844000000417F4000007C15
:1001F60004180478007C0804047800384444443821
:1002060000FC242424180018242418FC007C08046C
:10021600040800485454542000043F444020003C45
:100226004040207C001C2040201C003C4030403CCC
:10023600004428102844001CA0A0A07C004464545C
:100246004C441414141414140000000000000000A0
:100256000000000000000000000000F800000000A0
:10026600000000333000000000100C06100C0600E1
:10027600000000000000000040C07840C078400048
:10028600043F04043F040400007088FC08300000AA
:10029600001820FF211E0000F008F000E018000002
:1002A60000211C031E211E0000F0088870000000BB
:1002B6001E2123241927211010160E00000000000D
:1002C6000000000000000000000000E0180402002A
:1002D600000000071820400000020418E00000009B
:1002E6000040201807000000404080F08040400099
:1002F6000202010F01020200000000F000000000EF
:100306000101011F010101000000000000000000C2
:1003160080B0700000000000000000000000000037
:1003260000010101010101010000000000000000C0
:10033600003030000000000000000000806018045B
:10034600006018060100000000E010080810E00038
:10035600000F102020100F00001010F80000000001
:100366000020203F20200000007008080888700048
:1003760000302824222130000030088888483000C8
:100386000018202020110E000000C02010F80000E8
:1003960000070424243F240000F808888808080081
:1003A6000019212020110E0000E010888818000096
:1003B600000F112020110E0000380808C838080068
:1003C6000000003F000000000070880808887000E8
:1003D600001C222121221C0000E010080810E00069
:1003E6000000312222110F00000000C0C0000000F2
:1003F6000000003030000000000000800000000017
:10040600000080600000000000008040201008000E
:1004160000010204081020004040404040404000D7
:1004260004040404040404000008102040800000B2
:100436000020100804020100007048080808F000B7
:100446000000003036010000C030C828E810E00087
:100456000718272423140B000000C038E000000012
:10046600203C23020227382008F88888887000007C
:10047600203F202020110E00C03008080808380050
:10048600071820202010080008F808080810E000C7
:10049600203F202020100F0008F88888E808100068
:1004A600203F20202320180008F88888E80810003C
:1004B600203F200003000000C03008080838000074
:1004C60007182020221E020008F808000008F80875
:1004D600203F210101213F20000808F808080000FC
:1004E6000020203F2020000000000808F80808002F
:1004F600C08080807F00000008F888C028180800A7
:10050600203F20012638200008F8080000000000DF
:10051600203F20202020300008F8F800F8F80800D6
:10052600203F003F003F200008F830C00008F808D0
:10053600203F200007183F00E01008080810E000E0
:100546000F10202020100F0008F808080808F000F7
:10055600203F210101010000E01008080810E0001A
:100566000F18242438504F0008F8888888887000AF
:10057600203F2000030C302000708808080838004F
:100586000038202121221C00180808F80808180045
:100596000000203F2000000008F808000008F808C6
:1005A600001F202020201F000878880000C8380877
:1005B600000007380E010000F80800F80008F800EF
:1005C600033C0700073C0300081868808068180889
:1005D60020302C03032C30200838C800C838080007
:1005E6000000203F2000000010080808C838080056
:1005F6002038262120201800000000FE02020200FA
:100606000000007F40404000000C30C000000000A9
:10061600000000010638C00000020202FE000000D1
:10062600004040407F000000000004020202040077
:1006360000000000000000000000000000000000B4
:10064600808080808080808000020204000000009C
:100656000000000000000000000080808080000094
:100666000019242222223F2008F800808000000082
:10067600003F112020110E00000000808080000045
:10068600000E112020201100000000808088F80054
:10069600000E112020103F20000080808080000086
:1006A600001F222222221300008080F088888818EA
:1006B6000020203F202000000000808080808000F5
:1006C600006B94949493600008F80080808000008A
:1006D600203F210000203F20008098980000000065
:1006E6000020203F20200000000000809898000095
:1006F60000C08080807F000008F8000080808000B5
:10070600203F24022D302000000808F800000000D9
:100716000020203F20200000808080808080800094
:10072600203F20003F20003F808000808080000026
:10073600203F210000203F200000808080800000B4
:10074600001F202020201F008080008080000000E5
:1007560080FFA12020110E00000000808080800014
:10076600000E112020A0FF80808080008080800005
:1007760020203F2120000100000080808080800032
:100786000033242424241900008080E080800000A7
:100796000000001F202000008080000000808000F4
:1007A600001F202020103F20808080000080808055
:1007B60000010E30080601008080008000808080E5
:1007C6000F300C030C300F0000808000808080000A
:1007D6000020312E0E312000808080000080808035
:1007E60080818E70180601000080808080808000E5
:1007F6000021302C2221300000000000807C020203
:1008060000000000003F404000000000FF00000024
:1008160000000000FF0000000002027C80000000D3
:100826000040403F000000000006010102020404EF
:1008360000000000000000000000F8494A4C48F89B
:10084600484C4A49F800000010101312121212FF09
:100856001212121213101000000000FE2020202099
:10086600203F2020202000000080601F020202029C
:100876000202FE00000000001010D0FF901000FEE3
:10088600020202FE00000000040300FF0083601F56
:100896000000003F4040780080828282FE82828291
:1008A6008282FE8282828000008040300F0000003B
:1008B6000000FF00000000000000181610D0B897D6
:1008C60090909092941000000020108C83804146F6
:1008D60028102844438080001010D0FF901000FCA0
:1008E60024E4242223E20000040300FF0083601FA7
:0808F600804126182641800014
:1016A300EF4E60157D087C07ED1DAA0470011C4AEE
:0916B30070F6EF1F70EA1E80E7DB
:0116BC00220B
:1016BD008F10E5107006FD7FA6121512E510B4010E
:0916CD0007E4FD7FA712151222AB
:10153B008F10E510700DFD7FC8121512E4FD7FA111
:10154B00121512E510B4010EE4FD7FC0121512E462
:07155B00FD7FA01215122212
:0817D4007F01AE071FEE70FA61
:0117DC0022EA
:0F17A800D291D2901217D4C2911217D4C29022AC
:0A001600C291D2901217D4D29122A9
:0F17B700D2911217D4D2901217D4C2900217D425
:0215FA00AD073B
:1015FC00E4FCC290ED30E704D2918002C291121744
:10160C00D4D2901217D4C290ED25E0FD0CBC08E2A8
:01161C0022AB
:0D150500121512E4FDFF121512E4FD7F1017
:10151200AB05AA071217A87F781215FA1217B7EBB4
:1015220060047F408002E4FF1215FA1217B7AF027F
:091532001215FA1217B702001697
:10164000A907ED24B0FFE4FD121512E954F0C454CB
:101650000F4410FFE4FD121512E9540FFFE4FD02E0
:02166000151261
:10173600E4FD7F8D121512E4FD7F14121512E4FDEF
:051746007FAF02151247
:0E17C600E4FD7F8D12150BE4FD7FAE021512BF
:10161D00E4F9E924B0FFE4FD121505E4F5107D01B0
:10162D00E4FF1215120510E510C3948040F009B9BE
:02163D0008E0C3
:01163F002288
:040E2F008F1A8D1B6E
:100E3300E4F51EE51DC313FDF51FE4F520F521E5DB
:100E43001DB408087522007523068029E51D1313B8
:100E530013541FFF7E00E51D5407600590000180B9
:100E630003900000E5822FFFE5833EFE7C00120F16
:100E7300EC8E228F23EB24E0F51EAD1BAF1A121666
:100E830040E4F520F521C3E5219523E52095225083
:100E930067E51FFD7C00AE20AF21120FFEED4C7005
:100EA3000FE51D64086009AD1B051BAF1A12164040
:100EB300E51DB4081075F006E51EA42426F582E5A9
:100EC300F034008013E51DB4102E75F010E51EA458
:100ED300244EF582E5F03402F583E5822521F5827F
:100EE300E5833520F583E493FF7D01121512052177
:080EF300E52170920520808EBC
:010EFB0022D4
:0416EF008F1AA905A0
:1016F3007F017E00AD0119ED6009AD1A7C00120F68
:03170300EC80F186
:0117060022C0
:08116A008F108D118A128B1306
:10117200E4F518F519E515B40803751802E4F51637
:10118200E516C395145069C3E514951614FD7F0A3C
:101192001216EFAC12AD13CFCDCFCECCCE120FFEC6
:1011A2007C007D0A120FFE8D17E5197025E51414D7
:1011B200FFE516C39F501BE5177014E515C31325F1
:1011C200188516F0A42510FF85151D7B2080187543
:1011D2001901E515C31325188516F0A42510FFE59E
:1011E200172430FB85151DAD11120E2F05168090A8
:0111F20022DA
:0A13C9008F108D118B128A13891406
:1013D300E4F516AB12AA13A91485168275830012BD
:1013E3000FBF602AAF1605168F82758300120FBFD9
:1013F300FB85151DAD11AF10120E2FE515B40804B2
:0E14030074068004E515C3132510F51080C58E
:0114110022B8
:0610DF008F498D4A8B4B86
:1010E500E54C131313541FFF7E00E54C54077C0099
:1010F50060047D0180027D00ED2FFFEC3EFEAD4CCE
:101105007C00120FEC8E4F8F50E4F54DF54EC3E584
:101115004E9550E54D954F504BE54CFD7C00AE4D41
:10112500AF4E120FFEED4C7009AD4A054AAF49129C
:101135001640E54CB4102DE54BC43354E0243EF580
:1011450082E43408F583E582254EF582E583354D45
:10115500F583E493FF7D01121512054EE54E70AE41
:04116500054D80AA0A
:011169002263
:06126B008F3E8D3F8B4019
:10127100E4F545F546E541131313541FFFE54154C9
:101281000760047E0180027E00EF2EF541E4F54700
:10129100E547C39541503AE547253FFDAF3E12165C
:1012A10040E4F548E548C395405022AB42AA43A922
:1012B100440546E546AE457002054514F5828E8328
:1012C100120FBFFF7D01121512054880D705478017
:0112D100BF5D
:0112D20022F9
:100EFC00C2927FC87E001216A3D292E4FD7FAE127E
:100F0C001505E4FD7F40121512E4FD7F81121512C8
:100F1C00E4FD7FCF121512E4FD7FA1121512E4FD42
:100F2C007FC8121512E4FD7FA6121512E4FD7FA8EE
:100F3C00121512E4FD7F3F121512E4FD7FD312153A
:100F4C0012E4FDFF121512E4FD7FD5121512E4FD1B
:100F5C007F80121512E4FD7FD9121512E4FD7FF18A
:100F6C00121512E4FD7FDA121512E4FD7F12121530
:100F7C0012E4FD7FDB121512E4FD7F40121512E422
:100F8C00FD7F20121512E4FD7F02121512E4FD7F85
:100F9C008D121512E4FD7F14121512E4FD7FA412BC
:100FAC001512E4FD7FA612151212161DE4FD7FAF7B
:030FBC0002151209
:10170700C2937F147E00121662D2931200062093B2
:08171700063093FD2093FD2232
:10158900E4F515F5143093FD120006E51525E0F58F
:10159900153093064315012093FD0514E514C394F2
:0515A9000840E2AF154F
:0115AE00221A
:10137B001215898F101215898F111215898F121260
:10138B0015898F131215898F51120006E51025113F
:10139B00FFE433FE7C00EF2512FFEC3EFEEF25133E
:1013AB00FFEC3EFEEFB55113ECB5060F85105585DE
:0D13BB0011538512548513527F01227F00CB
:0113C8002202
:10156200C2B5C2B6E4FD7F8E12132AE4FD7F80125B
:10157200132AE4FD7F8212132A7D127F8412132A1A
:071582007D807F8E02132A19
:02132A00A90711
:10132C00D2B5E4FB7E007401A803088005C333CE5C
:10133C0033CED8F9FFE9F582EF558224FF92B4D26F
:10134C00B6C2B60BBB08DDE4FB7E007401A8030833
:10135C008005C333CE33CED8F9FFEDF582EF55823D
:0E136C0024FF92B4D2B6C2B60BBB08DDC2B5E8
:01137A002250
:0912D300E4FD7F8E12132A7F80D6
:0212DC00AD075C
:1012DE00E4F9430501D2B5FB7E007401A803088032
:1012EE0005C333CE33CED8F9FFEDF582EF55822408
:1012FE00FF92B4C2B6D2B60BBB08DDE4FBD2B6C2C7
:10130E00B630B40DA8037401088002C333D8FC4272
:0B131E00010BBB08E8C2B5C2B4AF0170
:0113290022A1
:10174B001212D3AD0753057F7F8012132A7D807F42
:04175B008E02132ABD
:10175F001212D3AD074305807F8012132A7D807F3D
:04176F008E02132AA9
:0211F300AD0746
:1011F500E4F511F512C2B6C2B5F5107E007480A8EB
:1012050010088006CEA2E713CE13D8F8FFEDFBEF4A
:101215005B24FF92B4D2B6C2B60510E510B408DB64
:10122500E4F510D2B6C2B630B71B7E80E4A810082C
:101235008005CEC313CE13D8F94212EE42117F01B9
:101245007E001216620510E510C3941040D5D2B584
:10125500AE11E5127808088005CEC313CE13D8F970
:05126500FF8E11F512DF
:01126A002261
:10149400E4F51020B0167F14FE12166230B0FD7F02
:1014A400147E00121662751055AF102220B1177FFA
:1014B400147E0012166230B1FD7F147E0012166293
:0814C400751044AF1022AF10B7
:0114CC0022FD
:1015D50048454C5000627573313A20006D696E0ABA
:1015E50000627573323A2000627573333A200065E4
:0515F50072726F72002C
:10177300758901E4F58A758C4CC28DD28CD2A9D2BD
:04178300AFC2B92216
:1016D60053877F75985053890F438920758BFD7505
:0916E6008DFDC2ABD28ED2AC2204
:0917DD00D288D2A8C28AD2AA2245
:0917870075F00A84E5F02430FF3E
:081790008F993099FDC29922E6
:0615AF007BFF7A1579E1D3
:0615B5008B0D8A0E890F68
:1015BB00E4FEAB0DAA0EA90F8E82758300120FBF2E
:0915CB00FF60061217900E80E982
:0115D40022F4
:03000B0002168357
:10168300C0E0C0D0052F758A00758C4CE52FC3943C
:10169300144008752F00052B752601D0D0D0E032F9
:030013000214CD07
:1014CD00C0E0C083C082C0D075D000C000C001C0D4
:1014DD0002C003C006C0077BFF7A1579D51215B57A
:1014ED0030B3FDD007D006D003D002D001D000D04C
:0814FD00D0D082D083D0E03290
:0300030002171FC2
:10171F00C0E0C0D0C2A80534E534C39404400375BB
:07172F003400D0D0D0E032FD
:03002300020D04C7
:100D0400C0E0C0F0C083C082C0D075D000C000C0B5
:0F0D140001C002C003C006C007209803020E18DA
:100D2300C29885990BE50B640A600DAF3074352FBB
:100D3300F8A60B0530020E18E53564517060E536F0
:100D4300705C7BFF7A1579DA1215B5E53C75F00A0C
:100D5300842430FF121790E53C1217871215AF7BDE
:100D6300FF7A1579E61215B5E53D75F00A8424304E
:100D7300FF121790E53D1217871215AF7BFF7A1507
:100D830079ED1215B5E52575F00A842430FF1217A5
:100D930090E5251217877BFF7A1579E1805FE535AA
:040DA3006453705CC9
:100DA700E53624D0F50C24FE601D14603024027053
:100DB70042E53875F00AA4FFE53775F064A42F25DE
:100DC700392430F53C8035E53875F00AA4FFE5375E
:100DD70075F064A42F25392430F53D801FE538755B
:100DE700F00AA4FFE53775F064A42F25392430F500
:0C0DF7002580097BFF7A1579F41215B5F0
:100E03007530007535007536007537007538007517
:050E13003900753A00F2
:100E1800D007D006D003D002D001D000D0D0D082E5
:070E2800D083D0F0D0E032CE
:0300000002105398
:0C105300787FE4F6D8FD75815502109AF4
:100FBF00BB010CE58229F582E5833AF583E02250E7
:100FCF0006E92582F8E622BBFE06E92582F8E22231
:0D0FDF00E58229F582E5833AF583E493224B
:100FEC00EF8DF0A4A8F0CF8CF0A428CE8DF0A42E19
:020FFC00FE22D3
:100FFE00BC000BBE0029EF8DF084FFADF022E4CCD7
:10100E00F875F008EF2FFFEE33FEEC33FCEE9DEC9F
:10101E00984005FCEE9DFE0FD5F0E9E4CEFD22EDE5
:10102E00F8F5F0EE8420D21CFEADF075F008EF2F2F
:10103E00FFED33FD4007985006D5F0F222C398FD20
:05104E000FD5F0EA22BD
:10105F000208FEE493A3F8E493A34003F68001F2A1
:10106F0008DFF48029E493A3F85407240CC8C33392
:10107F00C4540F4420C8834004F456800146F6DF61
:10108F00E4800B0102040810204080901412E47ECB
:10109F00019360BCA3FF543F30E509541FFEE49356
:1010AF00A360010ECF54C025E060A840B8E493A31D
:1010BF00FAE493A3F8E493A3C8C582C8CAC583CA48
:1010CF00F0A3C8C582C8CAC583CADFE9DEE780BE00
:011454000097
:00000001FF
