:101A820020203A20203A2020003D3D3D3D3D3D3D75
:101A92003D3D3D3D3D3D3D3D3D3D3D3D3D3D0042AC
:101AA200555320313A003A0042555320323A00420F
:101AB200555320333A00543A20204320204C3A20F8
:0B1AC2002020252020483A202025008D
:101A3600011600010D0101110C0112000110000236
:101A46000B0065011300010F00021F00DF022100D9
:101A5600D2020800C7010A000618000000000000B4
:0F1A6600011400011700011E00011500010E0000
:10002E0012165CE4FF121D9BE4FF121BF2121DE57B
:10003E001219E87FAC1218C88E0B8F0C7BFF7A1A40
:10004E007982752910E4FD7F20121B17E511C45427
:10005E000F75F00AA4FFE511540F7C002FFFEC354D
:10006E00F0FE7D0A12175EAA06AB077528017529E8
:10007E0010E4FD7F2012183FE511C4540F75F00AED
:10008E00A4FFE511540F7C002FFFEC35F0FE7D0A26
:10009E0012175EAA04AB05752801752910E4FD7FC1
:1000AE002812183FE512C4540F75F00AA4FFE5128A
:1000BE00540F7C002FFFEC35F0FE7D0A12175EAA5E
:1000CE0006AB07752801752910E4FD7F3812183F1D
:1000DE00E512C4540F75F00AA4FFE512540F7C000C
:1000EE002FFFEC35F0FE7D0A12175EAA04AB0575E4
:1000FE002801752910E4FD7F4012183FE510C45405
:10010E000F75F00AA4FFE510540F7C002FFFEC359D
:10011E00F0FE7D0A12175EAA06AB07752801752937
:10012E0010E4FD7F5012183FE510C4540F75F00A0D
:10013E00A4FFE510540F7C002FFFEC35F0FE7D0A76
:10014E0012175EAA04AB05752801752910E4FD7F10
:10015E005812183F7BFF7A1A798B7529087D02E4B5
:10016E00FF121B177BFF7A1A79A17529087D03E40C
:10017E00FF121B17AE1FAF207C007D3C12175E7C5A
:10018E00007D0A12175EAA06AB07752801752908AD
:10019E007D037F2A12183FAE1FAF207C007D3C12DC
:1001AE00175E7C007D0A12175EAA04AB0575280146
:1001BE007529087D037F3012183F7BFF7A1A79A8C4
:1001CE007529087D037F37121B17AE1FAF207C00E9
:1001DE007D3C12175E7E007F0ACFCDCFCECCCE12E5
:1001EE00175EAA06AB077528017529087D037F3CAB
:1001FE0012183FAE1FAF207C007D3C12175E7E00B2
:10020E007F0ACFCDCFCECCCE12175EAA04AB05752A
:10021E0028017529087D037F4212183F7BFF7A1A49
:10022E0079AA7529087D04E4FF121B17AE21AF22AF
:10023E007C007D3C12175E7C007D0A12175EAA06BA
:10024E00AB077528017529087D047F2A12183FAE69
:10025E0021AF227C007D3C12175E7C007D0A1217B6
:10026E005EAA04AB057528017529087D047F30123E
:10027E00183F7BFF7A1A79A87529087D047F3712FB
:10028E001B17AE21AF227C007D3C12175E7E007FD5
:10029E000ACFCDCFCECCCE12175EAA06AB077528ED
:1002AE00017529087D047F3C12183FAE21AF227CD8
:1002BE00007D3C12175E7E007F0ACFCDCFCECCCE16
:1002CE0012175EAA04AB057528017529087D047FF7
:1002DE004212183F7BFF7A1A79B17529087D05E421
:1002EE00FF121B17AE08AF097C007D3C12175E7C17
:1002FE00007D0A12175EAA06AB077528017529083C
:10030E007D057F2A12183FAE08AF097C007D3C1296
:10031E00175E7C007D0A12175EAA04AB05752801D4
:10032E007529087D057F3012183F7BFF7A1A79A850
:10033E007529087D057F37121B17AE08AF097C00A3
:10034E007D3C12175E7E007F0ACFCDCFCECCCE1273
:10035E00175EAA06AB077528017529087D057F3C37
:10036E0012183FAE08AF097C007D3C12175E7E006E
:10037E007F0ACFCDCFCECCCE12175EAA04AB0575B9
:10038E0028017529087D057F4212183F7BFF7A1AD6
:10039E00798B7529087D06E4FF121B177BFF7A1AED
:1003AE0079B87529087D07E4FF121B17E53BFB7A28
:1003BE00007528027529087D077F0C12183FAE0BB9
:1003CE00AF0C7C007D0512174CEF2401FFE43EFEBE
:1003DE007D0312175EAA06AB077528037529087DE3
:1003EE00077F3412183FE53CFB7A00752802752909
:1003FE00087D077F6412183F121C19121EC37F85D9
:10040E001219498F117F831219498F127F81121988
:10041E00498F10121DB4121DFD121E2B121ACD8FF4
:10042E001E121368D3E52094B4E51F94005007758F
:10043E0031087B2A80057531087B207D037F4812A9
:10044E00158FD3E52294B4E5219400500775310839
:10045E007B2A80057531087B207D047F4812158F1D
:10046E00D3E50994B4E508940050077531087B2A4A
:10047E0080057531087B207D057F4812158FE51E9E
:10048E00B45403630DFFE517703EE515B401061273
:10049E001E56E4F515E50EB40107D28CD2A9E4F58B
:1004AE000E7531087B207D037F4E12158F75310836
:1004BE007B207D047F4E12158F7531087B207D05C4
:1004CE007F4E12158F020795121E6AC28CC2A97535
:1004DE001501750E01E517640160030205C975313A
:1004EE00087B3C7D037F4E12158F7531087B207D76
:1004FE00047F4E12158F7531087B207D057F4E12BD
:10050E00158FE51E6455700A0520E5207015051F30
:10051E008011E51E644460030205C9E520152070B4
:10052E0002151FAE1FAF207C007D3C12175E7C00B3
:10053E007D0A12175EAA06AB077528017529087D7C
:10054E00037F2A12183FAE1FAF207C007D3C12178E
:10055E005E7C007D0A12175EAA04AB057528017534
:10056E0029087D037F3012183FAE1FAF207C007D1F
:10057E003C12175E7E007F0ACFCDCFCECCCE1217A7
:10058E005EAA06AB077528017529087D037F3C120C
:10059E00183FAE1FAF207C007D3C12175E7E007FA1
:1005AE000ACFCDCFCECCCE12175EAA04AB057528DE
:1005BE00017529087D037F4212183FE5176402601A
:1005CE00030206AF7531087B207D037F4E12158F17
:1005DE007531087B3C7D047F4E12158F7531087B7B
:1005EE00207D057F4E12158FE51E6455700A05227B
:1005FE00E522701505218011E51E64446003020694
:10060E00AFE522152270021521AE21AF227C007DAE
:10061E003C12175E7C007D0A12175EAA06AB0775A8
:10062E0028017529087D047F2A12183FAE21AF22BA
:10063E007C007D3C12175E7C007D0A12175EAA04B8
:10064E00AB057528017529087D047F3012183FAE61
:10065E0021AF227C007D3C12175E7E007F0ACFCD3B
:10066E00CFCECCCE12175EAA06AB07752801752920
:10067E00087D047F3C12183FAE21AF227C007D3CEA
:10068E0012175E7E007F0ACFCDCFCECCCE12175E74
:10069E00AA04AB057528017529087D047F4212183E
:1006AE003FE517640360030207957531087B207DD3
:1006BE00037F4E12158F7531087B207D047F4E12FD
:1006CE00158F7531087B3C7D057F4E12158FE51E0B
:1006DE006455700A0509E509701505088011E51EB7
:1006EE0064446003020795E509150970021508AE0A
:1006FE0008AF097C007D3C12175E7C007D0A121744
:10070E005EAA06AB077528017529087D057F2A129A
:10071E00183FAE08AF097C007D3C12175E7C007D51
:10072E000A12175EAA04AB057528017529087D0506
:10073E007F3012183FAE08AF097C007D3C12175E69
:10074E007E007F0ACFCDCFCECCCE12175EAA06ABDF
:10075E00077528017529087D057F3C12183FAE08E4
:10076E00AF097C007D3C12175E7E007F0ACFCDCF95
:10077E00CECCCE12175EAA04AB05752801752908DA
:10078E007D057F4212183FD2A8E4F51EE50A6401EA
:10079E00600302042AF50AD3E5209400E51F9400B5
:1007AE004008E52015207002151FD3E5229400E5C0
:1007BE002194004008E522152270021521D3E50987
:1007CE009400E50894004008E50915097002150823
:1007DE00AE1FAF207C007D3C12175E7C007D0A129E
:1007EE00175EAA06AB077528017529087D037F2AB7
:1007FE0012183FAE1FAF207C007D3C12175E7C00AE
:10080E007D0A12175EAA04AB057528017529087DAD
:10081E00037F3012183FAE1FAF207C007D3C1217B5
:10082E005E7E007F0ACFCDCFCECCCE12175EAA064B
:10083E00AB077528017529087D037F3C12183FAE62
:10084E001FAF207C007D3C12175E7E007F0ACFCD4D
:10085E00CFCECCCE12175EAA04AB05752801752932
:10086E00087D037F4212183FAE21AF227C007D3CF3
:10087E0012175E7C007D0A12175EAA06AB0775285A
:10088E00017529087D047F2A12183FAE21AF227C04
:10089E00007D3C12175E7C007D0A12175EAA04AB27
:1008AE00057528017529087D047F3012183FAE2189
:1008BE00AF227C007D3C12175E7E007F0ACFCDCF2B
:1008CE00CECCCE12175EAA06AB0775280175290885
:1008DE007D047F3C12183FAE21AF227C007D3C127E
:1008EE00175E7E007F0ACFCDCFCECCCE12175EAA7A
:1008FE0004AB057528017529087D047F4212183F47
:10090E00AE08AF097C007D3C12175E7C007D0A129A
:10091E00175EAA06AB077528017529087D057F2A83
:10092E0012183FAE08AF097C007D3C12175E7C00AA
:10093E007D0A12175EAA04AB057528017529087D7C
:10094E00057F3012183FAE08AF097C007D3C1217B0
:10095E005E7E007F0ACFCDCFCECCCE12175EAA061A
:10096E00AB077528017529087D057F3C12183FAE2F
:10097E0008AF097C007D3C12175E7E007F0ACFCD4A
:10098E00CFCECCCE12175EAA04AB05752801752901
:10099E00087D057F4212183F7F851219498F117FFE
:1009AE00831219498F127F811219498F107FAC1251
:1009BE0018C88E0B8F0CE511C4540F75F00AA4FFE6
:1009CE00E511540F7C002FFFEC35F0FE7D0A121757
:1009DE005EAA06AB07752801752910E4FD7F20126B
:1009EE00183FE511C4540F75F00AA4FFE511540F1A
:1009FE007C002FFFEC35F0FE7D0A12175EAA04ABC9
:100A0E0005752801752910E4FD7F2812183FE5129F
:100A1E00C4540F75F00AA4FFE512540F7C002FFF8B
:100A2E00EC35F0FE7D0A12175EAA06AB077528019B
:100A3E00752910E4FD7F3812183FE512C4540F7566
:100A4E00F00AA4FFE512540F7C002FFFEC35F0FEE8
:100A5E007D0A12175EAA04AB05752801752910E4EC
:100A6E00FD7F4012183FE510C4540F75F00AA4FF25
:100A7E00E510540F7C002FFFEC35F0FE7D0A1217A7
:100A8E005EAA06AB07752801752910E4FD7F50128A
:100A9E00183FE510C4540F75F00AA4FFE510540F6B
:100AAE007C002FFFEC35F0FE7D0A12175EAA04AB18
:100ABE0005752801752910E4FD7F5812183FE50FC2
:100ACE00C3940A500302042AE4F50FC2AF121DE5C7
:100ADE001219E8D2AFE53BFB7A007528027529089A
:100AEE007D077F0C12183FAE0BAF0C7C007D0512FC
:100AFE00174CEF2401FFE43EFE7D0312175EAA069B
:100B0E00AB077528037529087D077F3412183FE55A
:100B1E003CFB7A007528027529087D077F64121840
:100B2E003FC3E50C941EE50B94004006E4F53D0230
:100B3E00042AE50C75F003A4FFC374649FF53D020F
:020B4E00042A77
:101D4000E4FDFCC3ED9FEE6480F8EC6480985010D5
:101D50000079027BC7DBFED9FC0DBD00010C80E3DE
:011D60002260
:040006007F12DFFE88
:01000A0022D3
:0F1E7E00E4FEEEC39F5008007D14DDFE0E80F3DE
:011E8D002232
:100B50000000000000000000002F0000000007005F
:100B6000070000147F147F1400242A7F2A120062D9
:100B70006408132300364955225000000503000085
:100B800000001C224100000041221C000014083E0D
:100B900008140008083E0808000000A060000008D3
:100BA0000808080800006060000000201008040227
:100BB000003E5149453E0000427F400000426151E5
:100BC0004946002141454B31001814127F1000277F
:100BD00045454539003C4A49493000017109050342
:100BE00000364949493600064949291E0000363673
:100BF00000000000563600000008142241000014D6
:100C000014141414000041221408000201510906B2
:100C100000324959513E007C1211127C007F494933
:100C20004936003E41414122007F4141221C007F64
:100C300049494941007F09090901003E4149497A72
:100C4000007F0808087F0000417F410000204041EC
:100C50003F01007F08142241007F40404040007F58
:100C6000020C027F007F0408107F003E4141413E9C
:100C7000007F09090906003E4151215E007F0919E4
:100C800029460046494949310001017F0101003FE1
:100C90004040403F001F2040201F003F4038403F61
:100CA00000631408146300070870080700615149C5
:100CB000454300007F41410000552A552A55000058
:100CC00041417F00000402010204004040404040D6
:100CD000000001020400002054545478007F48446E
:100CE000443800384444442000384444487F0038A5
:100CF0005454541800087E0901020018A4A4A47CCE
:100D0000007F080404780000447D40000040808497
:100D10007D00007F102844000000417F4000007CDF
:100D200004180478007C08040478003844444438EB
:100D300000FC242424180018242418FC007C080437
:100D4000040800485454542000043F444020003C10
:100D50004040207C001C2040201C003C4030403C97
:100D6000004428102844001CA0A0A07C0044645427
:100D70004C4414141414141400000000000000006B
:100D80000000000000000000000000F8000000006B
:100D9000000000333000000000100C06100C0600AC
:100DA000000000000000000040C07840C078400013
:100DB000043F04043F040400007088FC0830000075
:100DC000001820FF211E0000F008F000E0180000CD
:100DD00000211C031E211E0000F008887000000086
:100DE0001E2123241927211010160E0000000000D8
:100DF0000000000000000000000000E018040200F5
:100E0000000000071820400000020418E000000065
:100E10000040201807000000404080F08040400063
:100E20000202010F01020200000000F000000000B9
:100E30000101011F0101010000000000000000008D
:100E400080B0700000000000000000000000000002
:100E5000000101010101010100000000000000008B
:100E60000030300000000000000000008060180426
:100E7000006018060100000000E010080810E00003
:100E8000000F102020100F00001010F800000000CC
:100E90000020203F20200000007008080888700013
:100EA0000030282422213000003008888848300093
:100EB0000018202020110E000000C02010F80000B3
:100EC00000070424243F240000F80888880808004C
:100ED0000019212020110E0000E010888818000061
:100EE000000F112020110E0000380808C838080033
:100EF0000000003F000000000070880808887000B3
:100F0000001C222121221C0000E010080810E00033
:100F10000000312222110F00000000C0C0000000BC
:100F200000000030300000000000008000000000E1
:100F300000008060000000000000804020100800D9
:100F400000010204081020004040404040404000A2
:100F5000040404040404040000081020408000007D
:100F60000020100804020100007048080808F00082
:100F70000000003036010000C030C828E810E00052
:100F80000718272423140B000000C038E0000000DD
:100F9000203C23020227382008F888888870000047
:100FA000203F202020110E00C0300808080838001B
:100FB000071820202010080008F808080810E00092
:100FC000203F202020100F0008F88888E808100033
:100FD000203F20202320180008F88888E808100007
:100FE000203F200003000000C0300808083800003F
:100FF00007182020221E020008F808000008F80840
:10100000203F210101213F20000808F808080000C6
:101010000020203F2020000000000808F8080800F9
:10102000C08080807F00000008F888C02818080071
:10103000203F20012638200008F8080000000000AA
:10104000203F20202020300008F8F800F8F80800A1
:10105000203F003F003F200008F830C00008F8089B
:10106000203F200007183F00E01008080810E000AB
:101070000F10202020100F0008F808080808F000C2
:10108000203F210101010000E01008080810E000E5
:101090000F18242438504F0008F88888888870007A
:1010A000203F2000030C302000708808080838001A
:1010B0000038202121221C00180808F80808180010
:1010C0000000203F2000000008F808000008F80891
:1010D000001F202020201F000878880000C8380842
:1010E000000007380E010000F80800F80008F800BA
:1010F000033C0700073C0300081868808068180854
:1011000020302C03032C30200838C800C8380800D1
:101110000000203F2000000010080808C838080020
:101120002038262120201800000000FE02020200C4
:101130000000007F40404000000C30C00000000074
:10114000000000010638C00000020202FE0000009C
:10115000004040407F000000000004020202040042
:10116000000000000000000000000000000000007F
:101170008080808080808080000202040000000067
:10118000000000000000000000008080808000005F
:101190000019242222223F2008F80080800000004D
:1011A000003F112020110E00000000808080000010
:1011B000000E112020201100000000808088F8001F
:1011C000000E112020103F20000080808080000051
:1011D000001F222222221300008080F088888818B5
:1011E0000020203F202000000000808080808000C0
:1011F000006B94949493600008F800808080000055
:10120000203F210000203F2000809898000000002F
:101210000020203F2020000000000080989800005F
:1012200000C08080807F000008F80000808080007F
:10123000203F24022D302000000808F800000000A4
:101240000020203F2020000080808080808080005F
:10125000203F20003F20003F8080008080800000F1
:10126000203F210000203F2000008080808000007F
:10127000001F202020201F008080008080000000B0
:1012800080FFA12020110E000000008080808000DF
:10129000000E112020A0FF808080800080808000D0
:1012A00020203F21200001000000808080808000FD
:1012B0000033242424241900008080E08080000072
:1012C0000000001F202000008080000000808000BF
:1012D000001F202020103F20808080000080808020
:1012E00000010E30080601008080008000808080B0
:1012F0000F300C030C300F000080800080808000D5
:101300000020312E0E3120008080800000808080FF
:1013100080818E70180601000080808080808000AF
:101320000021302C2221300000000000807C0202CD
:1013300000000000003F404000000000FF000000EF
:1013400000000000FF0000000002027C800000009E
:101350000040403F000000000006010102020404BA
:08136000000000000000000085
:101D8100EF4E60157D087C07ED1DAA0470011C4A09
:091D910070F6EF1F70EA1E80E7F6
:011D9A002226
:101D9B008F24E5247006FD7FA6121B6DE524B4018C
:091DAB0007E4FD7FA7121B6D2265
:101BF2008F24E524700DFD7FC8121B6DE4FD7FA1CB
:101C0200121B6DE524B4010EE4FD7FC0121B6DE4CE
:071C1200FD7FA0121B6D22F3
:081EBA007F01AE071FEE70FA74
:011EC20022FD
:0F1E8E00D291D290121EBAC291121EBAC29022E5
:0A001600C291D290121EBAD29122BC
:0F1E9D00D291121EBAD290121EBAC290021EBA71
:021CD800AD0756
:101CDA00E4FCC290ED30E704D2918002C291121E58
:101CEA00BAD290121EBAC290ED25E0FD0CBC08E2F1
:011CFA0022C7
:0D1B6000121B6DE4FDFF121B6DE4FD7F10F4
:101B6D00AB05AA07121E8E7F78121CD8121E9DEB94
:101B7D0060047F408002E4FF121CD8121E9DAF024C
:091B8D00121CD8121E9D02001664
:101D1E00A907ED24B0FFE4FD121B6DE954F0C45485
:101D2E000F4410FFE4FD121B6DE9540FFFE4FD029A
:021D3E001B6D1B
:101E4100E4FD7F8D121B6DE4FD7F14121B6DE4FD1B
:051E51007FAF021B6DD4
:0E1EAC00E4FD7F8D121B66E4FD7FAE021B6D10
:101CFB00E4F9E924B0FFE4FD121B60E4F5247D0157
:101D0B00E4FF121B6D0524E524C3948040F009B950
:021D1B0008E0DE
:011D1D0022A3
:04158F008F2E8D2FDF
:10159300E4F532E531C313FDF533E4F534F535E510
:1015A30031B408087536007537068029E531131301
:1015B30013541FFF7E00E53154076005900001803E
:1015C30003900000E5822FFFE5833EFE7C001217A7
:1015D3004C8E368F37EB24E0F532AD2FAF2E121D34
:1015E3001EE4F534F535C3E5359537E534953650C6
:1015F30067E533FD7C00AE34AF3512175EED4C70FA
:101603000FE53164086009AD2F052FAF2E121D1EA3
:10161300E531B4081075F006E532A42450F582E5EF
:10162300F0340B8013E531B4102E75F010E532A4BD
:101633002478F582E5F0340DF583E5822535F582CE
:10164300E5833534F583E493FF7D01121B6D053586
:08165300E53570920534808E2C
:01165B00226C
:041DCD008F2EA905A7
:101DD1007F017E00AD0119ED6009AD2E7C00121767
:031DE1004C80F142
:011DE40022DC
:08183F008F248D258A268B27DA
:10184700E4F52CF52DE529B40803752C02E4F52AF7
:10185700E52AC395285069C3E528952A14FD7F0A10
:10186700121DCDAC26AD27CFCDCFCECCCE12175E75
:101877007C007D0A12175E8D2BE52D7025E5281457
:10188700FFE52AC39F501BE52B7014E529C31325D9
:101897002C852AF0A42524FF8529317B2080187503
:1018A7002D01E529C313252C852AF0A42524FFE55E
:1018B7002B2430FB852931AD2512158F052A809001
:0118C70022FE
:0A1B17008F248D258B268A2789284C
:101B2100E4F52AAB26AA27A928852A827583001203
:101B3100171F602AAF2A052A8F8275830012171F8B
:101B4100FB852931AD25AF2412158FE529B4080491
:0E1B510074068004E529C3132524F52480C5FD
:011B5F002263
:10165C00C2927FC87E00121D81D292E4FD7FAE1231
:10166C001B60E4FD7F40121B6DE4FD7F81121B6D3E
:10167C00E4FD7FCF121B6DE4FD7FA1121B6DE4FD19
:10168C007FC8121B6DE4FD7FA6121B6DE4FD7FA8C5
:10169C00121B6DE4FD7F3F121B6DE4FD7FD3121B0B
:1016AC006DE4FDFF121B6DE4FD7FD5121B6DE4FD97
:1016BC007F80121B6DE4FD7FD9121B6DE4FD7FF161
:1016CC00121B6DE4FD7FDA121B6DE4FD7F12121B01
:1016DC006DE4FD7FDB121B6DE4FD7F40121B6DE49E
:1016EC00FD7F20121B6DE4FD7F02121B6DE4FD7F5C
:1016FC008D121B6DE4FD7F14121B6DE4FD7FA41293
:10170C001B6DE4FD7FA6121B6D121CFBE4FD7FAF6D
:03171C00021B6D40
:101DE500C2937F147E00121D40D2931200062093E9
:081DF500063093FD2093FD224E
:101C4000E4F529F5283093FD120006E52925E0F595
:101C5000293093064329012093FD0528E528C394E4
:051C60000840E2AF297D
:011C6500225C
:1019E800121C408F24121C408F25121C408F261277
:1019F8001C408F27121C408F38120006E52425252D
:101A0800FFE433FE7C00EF2526FFEC3EFEEF2527A2
:101A1800FFEC3EFEEFB53813ECB5060F85243C8588
:0D1A2800253A85263B8527397F01227F0066
:011A3500228E
:101C1900C2B5C2B6E4FD7F8E121997E4FD7F80122A
:101C29001997E4FD7F821219977D127F8412199703
:071C39007D807F8E021997E8
:02199700A9079E
:10199900D2B5E4FB7E007401A803088005C333CEE9
:1019A90033CED8F9FFE9F582EF558224FF92B4D2FC
:1019B900B6C2B60BBB08DDE4FB7E007401A80308C0
:1019C9008005C333CE33CED8F9FFEDF582EF5582CA
:0E19D90024FF92B4D2B6C2B60BBB08DDC2B575
:0119E70022DD
:09194000E4FD7F8E1219977F80EF
:02194900AD07E8
:10194B00E4F9430501D2B5FB7E007401A8030880BE
:10195B0005C333CE33CED8F9FFEDF582EF55822494
:10196B00FF92B4C2B6D2B60BBB08DDE4FBD2B6C253
:10197B00B630B40DA8037401088002C333D8FC42FF
:0B198B00010BBB08E8C2B5C2B4AF01FD
:01199600222E
:101E5600121940AD0753057F7F801219977D807F49
:041E66008E02199738
:101E6A00121940AD074305807F801219977D807F44
:041E7A008E02199724
:0218C800AD076A
:1018CA00E4F525F526C2B6C2B5F5247E007480A8D3
:1018DA0024088006CEA2E713CE13D8F8FFEDFBEF5B
:1018EA005B24FF92B4D2B6C2B60524E524B408DB61
:1018FA00E4F524D2B6C2B630B71B7E80E4A8240829
:10190A008005CEC313CE13D8F94226EE42257F01B5
:10191A007E00121D400524E524C3941040D5D2B59B
:10192A00AE25E5267808088005CEC313CE13D8F96C
:05193A00FF8E25F526DB
:01193F002285
:101ACD00E4F52430B00320B13E7F0A7E00121D40A4
:101ADD0030B00320B1317F0F7E00121D4020B00FBA
:101AED0020B10C30B0FD30B1FA752454AF24222052
:101AFD00B00930B0FD752455AF242220B10930B1A5
:091B0D00FD752444AF2422AF242D
:011B160022AC
:101CB20048454C500A00627573313A20003A000AD6
:101CC20000627573323A2000627573333A20006500
:061CD20072726F720A003D
:0C1A7500014000013D00013F00013E0067
:101DFD005389F0438901E4F58A758C4CC28DD28CE0
:071E0D00D2A9D2AFC2B92235
:101E2B0075CBFF75CA9C75CDFF75CC9CE4F5C8D2FC
:061E3B00ADD2CAD2AF22B5
:101DB40053877F75985053890F438920758BFD7520
:091DC4008DFDC2ABD28ED2AC221F
:091EC300D288D2A8D28AD2AA2248
:101C66007C007D3C12175E7E007F0ACFCDCFCECCA6
:0A1C7600CE12175EAF05ED2430FF1B
:0C1C8000C2AC8F993099FDC299D2AC2201
:061C8C007BFF7A1C79BF0A
:061C92008B258A2689273C
:101C9800E4FEAB25AA26A9278E8275830012171F9A
:091CA800FF6006121C800E80E9A9
:011CB1002210
:03000B00021D6172
:101D6100C0E0C0D00513758A00758C4CE513C3948F
:101D7100144008751300050F750A01D0D0D0E03268
:03002B00021BC7EE
:101BC700C0E0C0D0C2CF0540E540C3946440037570
:101BD7004000E540C3953D500AE50DB4010575A0E9
:0B1BE70000800375A0FFD0D0D0E032DA
:0300130002000EDA
:04000E00753F013207
:03000300021E14C6
:101E1400C0E0C0D0C2A80517E517C39404400375F9
:071E24001700D0D0D0E0321E
:03002300021B9627
:0E1B9600C0E0C0D075D000C000C00730981A63
:101BA400C298859923E523640A600CAF1474182F36
:0A1BB400F8A62305148003753E0116
:091BBE00D007D000D0D0D0E032F5
:10136800E53FB4010C7BFF7A1C79B2121C92E4F5BC
:101378003FE53E6401600302158EE5186451600381
:101388000214C4E51960030214C47BFF7A1C79B8FF
:10139800121C92AE1FAF207C007D3C12175E7C00B1
:1013A8007D0A12175EEF2430FF121C80AE1FAF209B
:1013B8007C007D3C12175E7C007D0A121C77121C93
:1013C8008CAE1FAF207C007D3C12175E7E007F0A2A
:1013D800CFCDCFCECCCE12175EEF2430FF121C80BB
:1013E800AE1FAF20121C667BFF7A1C79C1121C92BB
:1013F8007BFF7A1C79C3121C92AE21AF227C007D40
:101408003C12175E7C007D0A12175EEF2430FF1233
:101418001C80AE21AF227C007D3C12175E7C007DD3
:101428000A121C77121C8CAE21AF227C007D3C1264
:10143800175E7E007F0ACFCDCFCECCCE12175EEFDF
:101448002430FF121C80AE21AF22121C667BFF7A6B
:101458001C79C1121C927BFF7A1C79CA121C92AEAD
:1014680008AF097C007D3C12175E7C007D0A1217CC
:101478005EEF2430FF121C80AE08AF097C007D3C73
:1014880012175E7C007D0A121C77121C8CAE08AF06
:10149800097C007D3C12175E7E007F0ACFCDCFCE3F
:1014A800CCCE12175EEF2430FF121C80AE08AF09B5
:1014B800121C667BFF7A1C79C102157AE518645301
:0514C800600302157D28
:1014CD00E51924D0F52424FE603B146069240260E4
:1014DD0003021574AF1B7E007C007D0A12174CAA07
:1014ED0006AB07AF1A7E007D6412174CEF2BFFEE93
:1014FD003AFEAD1CEF2DFFEC3ECF2430F520EF343E
:10150D00EBF51F806BAF1B7E007C007D0A12174C24
:10151D00AA06AB07AF1A7E007D6412174CEF2BFFA6
:10152D00EE3AFEAD1CEF2DFFEC3ECF2430F522EF51
:10153D0034EBF521803AAF1B7E007C007D0A12173B
:10154D004CAA06AB07AF1A7E007D6412174CEF2B29
:10155D00FFEE3AFEAD1CEF2DFFEC3ECF2430F5092A
:10156D00EF34EBF50880097BFF7A1C79D1121C92C0
:10157D00E4F514F518F519F51AF51BF51CF51DF51F
:02158D003E22FC
:030000000217B331
:0C17B300787FE4F6D8FD7581400217FA3B
:10171F00BB010CE58229F582E5833AF583E022507F
:10172F0006E92582F8E622BBFE06E92582F8E222C9
:0D173F00E58229F582E5833AF583E49322E3
:10174C00EF8DF0A4A8F0CF8CF0A428CE8DF0A42EB1
:02175C00FE226B
:10175E00BC000BBE0029EF8DF084FFADF022E4CC6F
:10176E00F875F008EF2FFFEE33FEEC33FCEE9DEC38
:10177E00984005FCEE9DFE0FD5F0E9E4CEFD22ED7E
:10178E00F8F5F0EE8420D21CFEADF075F008EF2FC8
:10179E00FFED33FD4007985006D5F0F222C398FDB9
:0517AE000FD5F0EA2256
:1017BF0002002EE493A3F8E493A34003F68001F212
:1017CF0008DFF48029E493A3F85407240CC8C3332B
:1017DF00C4540F4420C8834004F456800146F6DFFA
:1017EF00E4800B0102040810204080901A36E47E3A
:1017FF00019360BCA3FF543F30E509541FFEE493EF
:10180F00A360010ECF54C025E060A840B8E493A3B5
:10181F00FAE493A3F8E493A3C8C582C8CAC583CAE0
:10182F00F0A3C8C582C8CAC583CADFE9DEE780BE98
:011A81000064
:00000001FF
