:10116A0054656D70657261747572653A0048756D83
:10117A0069646974793A0054696D653A004C696723
:10118A0068743A003A0062757320313A006D696EEC
:10119A000062757320323A0062757320333A006236
:1011AA007573313A20006D696E0A00627573323ABE
:0F11BA002000627573333A20006572726F720005
:10133500012C0001250001290C012A0001280002C9
:10134500230001012700012600013339013428015A
:101355002163012200062D000000000000012B0082
:10152500758901E4F58A758C4CC28DD28CD2A9D20D
:04153500AFC2B92266
:1014C30053877F75985053890F438920758BFD751A
:0914D3008DFDC2ABD28ED2AC2219
:0915390075F00A84E5F02430FF8E
:081542008F993099FDC2992236
:0613B4007BFF7A1179B005
:0613BA008B0A8A0B890C6E
:1013C000E4FEAB0AAA0BA90C8E82758300120E658F
:0913D000FF60061215420E80E9CF
:0113D90022F1
:1008FE00120DA2E4FF1214DCE4FF12136612150DA2
:10090E0012121A7FAC1210998E238F247BFF7A114C
:10091E00796A7512087D03E4FF1212B67BFF7A1115
:10092E0079777512087D04E4FF1212B67BFF7A11F7
:10093E0079817512087D05E4FF1212B67BFF7A11DC
:10094E0079877512087D06E4FF1212B67BFF7A11C5
:10095E00798E7512087D057F2C1212B67BFF7A11E7
:10096E00798E7512087D057F3C1212B67BFF7A11C7
:10097E007990751208E4FDFF1212B67BFF7A117999
:10098E0097751208E4FD7F401212B67BFF7A11793B
:10099E009B7512087D01E4FF1212B67BFF7A117966
:1009AE00977512087D017F401212B67BFF7A11797E
:1009BE00A27512087D02E4FF1212B67BFF7A11793E
:1009CE00977512087D027F401212B6E529C4540FA6
:1009DE0075F00AA4FFE529540F7C002FFBEC35F0CF
:1009EE00FA7511027512087D057F20121010E52A86
:1009FE00C4540F75F00AA4FFE52A540F7C002FFB98
:100A0E00EC35F0FA7511027512087D057F30121063
:100A1E0010E528C4540F75F00AA4FFE528540F7C86
:100A2E00002FFBEC35F0FA7511027512087D057F6B
:100A3E0040121010751103751208AB24AA237D06FF
:100A4E007F28121010E54BFB7A0075110275120803
:100A5E007D037F48121010E54CFB7A00751102756C
:100A6E0012087D047F4812101012152512138D7F67
:100A7E00851212688F297F831212688F2A7F811246
:100A8E0012688F281214C3E522B401FBE4F5221577
:100A9E003315341521E533FB7A00751102751208F2
:100AAE00E4FD7F28121010E534FB7A0075110275F3
:100ABE0012087D017F28121010E521FB7A007511B6
:100ACE00027512087D027F281210107F851212689F
:100ADE008F297F831212688F2A7F811212688F28C6
:100AEE007FAC1210998E238F2412150D12121AE557
:100AFE0029C4540F75F00AA4FFE529540F7C002F6A
:100B0E00FBEC35F0FA7511027512087D057F201287
:100B1E001010E52AC4540F75F00AA4FFE52A540FED
:100B2E007C002FFBEC35F0FA7511027512087D056D
:100B3E007F30121010E528C4540F75F00AA4FFE59B
:100B4E0028540F7C002FFBEC35F0FA75110275124C
:100B5E00087D057F40121010E526C3940A5003024B
:100B6E000A95E4F526751103751208AB24AA237DA8
:100B7E00067F28121010E54BFB7A007511027512D4
:100B8E00087D037F48121010E54CFB7A00751102A8
:0D0B9E007512087D047F48121010020A95A0
:03000B0002148953
:10148900C0E0C0D00527758A00758C4CE527C39448
:101499001440087527000526752201D0D0D0E03206
:03002300020BAB22
:100BAB00C0E0C0F0C083C082C0D075D000C000C010
:0F0BBB0001C002C003C006C007209803020CBE91
:100BCA00C298859908E508640A600C742D252BF8EB
:100BDA00A608052B020CBEE52D64517060E52E7047
:100BEA005C7BFF7A1179A91213BAE53375F00A848E
:100BFA002430FF121542E5331215391213B47BFF64
:100C0A007A1179B51213BAE53475F00A842430FFE3
:100C1A00121542E5341215391213B47BFF7A117991
:100C2A00BC1213BAE52175F00A842430FF1215426A
:100C3A00E5211215397BFF7A1179B0805FE52D64C1
:030C4A0053705C88
:100C4D00E52E24D0F50924FE601D146030240270B9
:100C5D0042E53075F00AA4FFE52F75F064A42F2549
:100C6D00312430F5338035E53075F00AA4FFE52FDA
:100C7D0075F064A42F25312430F534801FE53075CF
:100C8D00F00AA4FFE52F75F064A42F25312430F56B
:0C0C9D002180097BFF7A1179C31213BA81
:100CA900752B00752D00752E00752F007530007598
:050CB90031007532005E
:100CBE00D007D006D003D002D001D000D0D0D08241
:070CCE00D083D0F0D0E0322A
:10146800E4FDFCC3ED9FEE6480F8EC6480985010B6
:101478000079027BC7DBFED9FC0DBD00010C80E3BF
:011488002241
:040003007F12DFFE8B
:0100070022D6
:100026000000000000000000002F00000000070094
:10003600070000147F147F1400242A7F2A1200620E
:1000460064081323003649552250000005030000BA
:1000560000001C224100000041221C000014083E42
:1000660008140008083E0808000000A06000000808
:10007600080808080000606000000020100804025C
:10008600003E5149453E0000427F4000004261511A
:100096004946002141454B31001814127F100027B4
:1000A60045454539003C4A49493000017109050377
:1000B60000364949493600064949291E00003636A8
:1000C600000000005636000000081422410000140B
:1000D60014141414000041221408000201510906E8
:1000E60000324959513E007C1211127C007F494969
:1000F6004936003E41414122007F4141221C007F9A
:1001060049494941007F09090901003E4149497AA7
:10011600007F0808087F0000417F41000020404121
:100126003F01007F08142241007F40404040007F8D
:10013600020C027F007F0408107F003E4141413ED1
:10014600007F09090906003E4151215E007F091919
:1001560029460046494949310001017F0101003F16
:100166004040403F001F2040201F003F4038403F96
:1001760000631408146300070870080700615149FA
:10018600454300007F41410000552A552A5500008D
:1001960041417F000004020102040040404040400B
:1001A600000001020400002054545478007F4844A3
:1001B600443800384444442000384444487F0038DA
:1001C6005454541800087E0901020018A4A4A47C03
:1001D600007F080404780000447D400000408084CD
:1001E6007D00007F102844000000417F4000007C15
:1001F60004180478007C0804047800384444443821
:1002060000FC242424180018242418FC007C08046C
:10021600040800485454542000043F444020003C45
:100226004040207C001C2040201C003C4030403CCC
:10023600004428102844001CA0A0A07C004464545C
:100246004C441414141414140000000000000000A0
:100256000000000000000000000000F800000000A0
:10026600000000333000000000100C06100C0600E1
:10027600000000000000000040C07840C078400048
:10028600043F04043F040400007088FC08300000AA
:10029600001820FF211E0000F008F000E018000002
:1002A60000211C031E211E0000F0088870000000BB
:1002B6001E2123241927211010160E00000000000D
:1002C6000000000000000000000000E0180402002A
:1002D600000000071820400000020418E00000009B
:1002E6000040201807000000404080F08040400099
:1002F6000202010F01020200000000F000000000EF
:100306000101011F010101000000000000000000C2
:1003160080B0700000000000000000000000000037
:1003260000010101010101010000000000000000C0
:10033600003030000000000000000000806018045B
:10034600006018060100000000E010080810E00038
:10035600000F102020100F00001010F80000000001
:100366000020203F20200000007008080888700048
:1003760000302824222130000030088888483000C8
:100386000018202020110E000000C02010F80000E8
:1003960000070424243F240000F808888808080081
:1003A6000019212020110E0000E010888818000096
:1003B600000F112020110E0000380808C838080068
:1003C6000000003F000000000070880808887000E8
:1003D600001C222121221C0000E010080810E00069
:1003E6000000312222110F00000000C0C0000000F2
:1003F6000000003030000000000000800000000017
:10040600000080600000000000008040201008000E
:1004160000010204081020004040404040404000D7
:1004260004040404040404000008102040800000B2
:100436000020100804020100007048080808F000B7
:100446000000003036010000C030C828E810E00087
:100456000718272423140B000000C038E000000012
:10046600203C23020227382008F88888887000007C
:10047600203F202020110E00C03008080808380050
:10048600071820202010080008F808080810E000C7
:10049600203F202020100F0008F88888E808100068
:1004A600203F20202320180008F88888E80810003C
:1004B600203F200003000000C03008080838000074
:1004C60007182020221E020008F808000008F80875
:1004D600203F210101213F20000808F808080000FC
:1004E6000020203F2020000000000808F80808002F
:1004F600C08080807F00000008F888C028180800A7
:10050600203F20012638200008F8080000000000DF
:10051600203F20202020300008F8F800F8F80800D6
:10052600203F003F003F200008F830C00008F808D0
:10053600203F200007183F00E01008080810E000E0
:100546000F10202020100F0008F808080808F000F7
:10055600203F210101010000E01008080810E0001A
:100566000F18242438504F0008F8888888887000AF
:10057600203F2000030C302000708808080838004F
:100586000038202121221C00180808F80808180045
:100596000000203F2000000008F808000008F808C6
:1005A600001F202020201F000878880000C8380877
:1005B600000007380E010000F80800F80008F800EF
:1005C600033C0700073C0300081868808068180889
:1005D60020302C03032C30200838C800C838080007
:1005E6000000203F2000000010080808C838080056
:1005F6002038262120201800000000FE02020200FA
:100606000000007F40404000000C30C000000000A9
:10061600000000010638C00000020202FE000000D1
:10062600004040407F000000000004020202040077
:1006360000000000000000000000000000000000B4
:10064600808080808080808000020204000000009C
:100656000000000000000000000080808080000094
:100666000019242222223F2008F800808000000082
:10067600003F112020110E00000000808080000045
:10068600000E112020201100000000808088F80054
:10069600000E112020103F20000080808080000086
:1006A600001F222222221300008080F088888818EA
:1006B6000020203F202000000000808080808000F5
:1006C600006B94949493600008F80080808000008A
:1006D600203F210000203F20008098980000000065
:1006E6000020203F20200000000000809898000095
:1006F60000C08080807F000008F8000080808000B5
:10070600203F24022D302000000808F800000000D9
:100716000020203F20200000808080808080800094
:10072600203F20003F20003F808000808080000026
:10073600203F210000203F200000808080800000B4
:10074600001F202020201F008080008080000000E5
:1007560080FFA12020110E00000000808080800014
:10076600000E112020A0FF80808080008080800005
:1007760020203F2120000100000080808080800032
:100786000033242424241900008080E080800000A7
:100796000000001F202000008080000000808000F4
:1007A600001F202020103F20808080000080808055
:1007B60000010E30080601008080008000808080E5
:1007C6000F300C030C300F0000808000808080000A
:1007D6000020312E0E312000808080000080808035
:1007E60080818E70180601000080808080808000E5
:1007F6000021302C2221300000000000807C020203
:1008060000000000003F404000000000FF00000024
:1008160000000000FF0000000002027C80000000D3
:100826000040403F000000000006010102020404EF
:1008360000000000000000000000F8494A4C48F89B
:10084600484C4A49F800000010101312121212FF09
:100856001212121213101000000000FE2020202099
:10086600203F2020202000000080601F020202029C
:100876000202FE00000000001010D0FF901000FEE3
:10088600020202FE00000000040300FF0083601F56
:100896000000003F4040780080828282FE82828291
:1008A6008282FE8282828000008040300F0000003B
:1008B6000000FF00000000000000181610D0B897D6
:1008C60090909092941000000020108C83804146F6
:1008D60028102844438080001010D0FF901000FCA0
:1008E60024E4242223E20000040300FF0083601FA7
:0808F600804126182641800014
:1014A900EF4E60157D087C07ED1DAA0470011C4AEA
:0914B90070F6EF1F70EA1E80E7D7
:0114C2002207
:1014DC008F0DE50D7006FD7FA612130CE50DB40102
:0914EC0007E4FD7FA712130C2296
:101366008F0DE50D700DFD7FC812130CE4FD7FA1F6
:1013760012130CE50DB4010EE4FD7FC012130CE44C
:07138600FD7FA012130C22F1
:081580007F01AE071FEE70FAB7
:011588002240
:0F154A00D291D290121580C291121580C29022B8
:0A157600C291D290121580D291228A
:0F155900D291121580D290121580C29002158087
:02140000AD0736
:10140200E4FCC290ED30E704D2918002C291121541
:1014120080D290121580C290ED25E0FD0CBC08E24E
:0114220022A7
:0D12FF0012130CE4FDFF12130CE4FD7F1030
:10130C00AB05AA0712154A7F78121400121559EB77
:10131C0060047F408002E4FF121400121559AF02E2
:09132C0012140012155902157685
:10144600A907ED24B0FFE4FD12130CE954F0C454CF
:101456000F4410FFE4FD12130CE9540FFFE4FD02E4
:02146600130C65
:10000E00E4FD7F8D12130CE4FD7F1412130CE4FD3E
:05001E007FAF02130C8E
:0E156800E4FD7F8D121305E4FD7FAE02130C2F
:10142300E4F9E924B0FFE4FD1212FFE4F50D7D01B8
:10143300E4FF12130C050DE50DC3948040F009B9C8
:0214430008E0BF
:011445002284
:040CD5008F178D18D0
:100CD900E4F51BE51AC313FDF51CE4F51DF51EE546
:100CE9001AB40808751F007520068029E51A131320
:100CF90013541FFF7E00E51A540760059000018018
:100D090003900000E5822FFFE5833EFE7C00120E72
:100D1900928E1F8F20EB24E0F51BAD18AF1712142C
:100D290046E4F51DF51EC3E51E9520E51D951F50EA
:100D390067E51CFD7C00AE1DAF1E120EA4ED4C70C4
:100D49000FE51A64086009AD180518AF17121446A3
:100D5900E51AB4081075F006E51BA42426F582E50A
:100D6900F034008013E51AB4102E75F010E51BA4B9
:100D7900244EF582E5F03402F583E582251EF582DD
:100D8900E583351DF583E493FF7D0112130C051EE0
:080D9900E51E7092051D808E1D
:010DA100222F
:0414F5008F17A9059F
:1014F9007F017E00AD0119ED6009AD177C00120E68
:031509009280F1DC
:01150C0022BC
:081010008F0D8D0E8A0F8B106D
:10101800E4F515F516E512B40803751502E4F513A1
:10102800E513C395115069C3E511951314FD7F0AA3
:101038001214F5AC0FAD10CFCDCFCECCCE120EA47E
:101048007C007D0A120EA48D14E5167025E5111496
:10105800FFE513C39F501BE5147014E512C3132555
:10106800158513F0A4250DFF85121A7B20801875AD
:101078001601E512C31325158513F0A4250DFFE508
:10108800142430FB85121AAD0E120CD5051380906E
:011098002235
:0A12B6008F0D8D0E8B0F8A10891129
:1012C000E4F513AB0FAA10A91185138275830012E0
:1012D0000E65602AAF1305138F82758300120E65A9
:1012E000FB85121AAD0EAF0D120CD5E512B4080431
:0E12F00074068004E512C313250DF50D80C5AC
:0112FE0022CD
:060F85008F408D418B42FC
:100F8B00E543131313541FFF7E00E54354077C0006
:100F9B0060047D0180027D00ED2FFFEC3EFEAD4332
:100FAB007C00120E928E468F47E4F544F545C3E55F
:100FBB00459547E5449546504BE543FD7C00AE44D3
:100FCB00AF45120EA4ED4C7009AD410541AF401277
:100FDB001446E543B4102DE542C43354E0243EF5EA
:100FEB0082E43408F583E5822545F582E5833544B3
:100FFB00F583E493FF7D0112130C0545E54570AEB7
:04100B00054480AA6E
:01100F0022BE
:061102008F358D368B379E
:10110800E4F53CF53DE538131313541FFFE5385457
:101118000760047E0180027E00EF2EF538E4F53E7C
:10112800E53EC39538503AE53E2536FDAF351214F5
:1011380046E4F53FE53FC395375022AB39AA3AA9B3
:101148003B053DE53DAE3C7002053C14F5828E83BF
:10115800120E65FF7D0112130C053F80D7053E80F6
:01116800BFC7
:011169002263
:100DA200C2927FC87E001214A9D292E4FD7FAE12D5
:100DB20012FFE4FD7F4012130CE4FD7F8112130C3D
:100DC200E4FD7FCF12130CE4FD7FA112130CE4FDAE
:100DD2007FC812130CE4FD7FA612130CE4FD7FA85A
:100DE20012130CE4FD7F3F12130CE4FD7FD31213A8
:100DF2000CE4FDFF12130CE4FD7FD512130CE4FD8D
:100E02007F8012130CE4FD7FD912130CE4FD7FF1F5
:100E120012130CE4FD7FDA12130CE4FD7F1212139D
:100E22000CE4FD7FDB12130CE4FD7F4012130CE493
:100E3200FD7F2012130CE4FD7F0212130CE4FD7FF0
:100E42008D12130CE4FD7F1412130CE4FD7FA41227
:100E5200130CE4FD7FA612130C121423E4FD7FAFE2
:030E620002130C6C
:10150D00C2937F147E00121468D2931200032093AD
:08151D00063093FD2093FD222E
:1013DA00E4F512F5113093FD120003E51225E0F54C
:1013EA00123093064312012093FD0511E511C394AF
:0513FA000840E2AF1203
:0113FF0022CB
:10121A001213DA8F0D1213DA8F0E1213DA8F0F12DE
:10122A0013DA8F101213DA8F48120003E50D250E18
:10123A00FFE433FE7C00EF250FFFEC3EFEEF2510A6
:10124A00FFEC3EFEEFB54813ECB5060F850D4C8555
:0D125A000E4A850F4B8510497F01227F0051
:011267002264
:10138D00C2B5C2B6E4FD7F8E1211C9E4FD7F801295
:10139D0011C9E4FD7F821211C97D127F841211C91A
:0713AD007D807F8E0211C953
:0211C900A90774
:1011CB00D2B5E4FB7E007401A803088005C333CEBF
:1011DB0033CED8F9FFE9F582EF558224FF92B4D2D2
:1011EB00B6C2B60BBB08DDE4FB7E007401A8030896
:1011FB008005C333CE33CED8F9FFEDF582EF5582A0
:0E120B0024FF92B4D2B6C2B60BBB08DDC2B54A
:0112190022B2
:02126800AD07D0
:10126A00E4F9430501D2B5FB7E007401A8030880A6
:10127A0005C333CE33CED8F9FFEDF582EF5582247C
:10128A00FF92B4C2B6D2B60BBB08DDE4FBD2B6C23B
:10129A00B630B40DA8037401088002C333D8FC42E7
:0B12AA00010BBB08E8C2B5C2B4AF01E5
:0112B5002216
:02109900AD07A1
:10109B00E4F50DF50EC2B6C2B5FB7E007480A80355
:1010AB00088006CEA2E713CE13D8F8FFEDF582EF3A
:1010BB00558224FF92B4D2B6C2B60BBB08DCE4FB5C
:1010CB00D2B6C2B630B7147E80E4A803088005CE32
:1010DB00C313CE13D8F9420EEE420D0BBB10E1D267
:1010EB00B5AE0DE50E7808088005CEC313CE13D828
:0610FB00F9FF8E0DF50E59
:0111010022CB
:03000000020EF9F4
:0C0EF900787FE4F6D8FD75814C020F40B4
:100E6500BB010CE58229F582E5833AF583E0225042
:100E750006E92582F8E622BBFE06E92582F8E2228C
:0D0E8500E58229F582E5833AF583E49322A6
:100E9200EF8DF0A4A8F0CF8CF0A428CE8DF0A42E74
:020EA200FE222E
:100EA400BC000BBE0029EF8DF084FFADF022E4CC32
:100EB400F875F008EF2FFFEE33FEEC33FCEE9DECFB
:100EC400984005FCEE9DFE0FD5F0E9E4CEFD22ED41
:100ED400F8F5F0EE8420D21CFEADF075F008EF2F8B
:100EE400FFED33FD4007985006D5F0F222C398FD7C
:050EF4000FD5F0EA2219
:100F05000208FEE493A3F8E493A34003F68001F2FC
:100F150008DFF48029E493A3F85407240CC8C333ED
:100F2500C4540F4420C8834004F456800146F6DFBC
:100F3500E4800B0102040810204080901335E47E04
:100F4500019360BCA3FF543F30E509541FFEE493B1
:100F5500A360010ECF54C025E060A840B8E493A378
:100F6500FAE493A3F8E493A3C8C582C8CAC583CAA3
:100F7500F0A3C8C582C8CAC583CADFE9DEE780BE5B
:011365000087
:00000001FF
