:100EBB0054656D70657261747572653A0048756D35
:100ECB0069646974793A0054696D653A31303A3224
:100EDB00313A34340062757320313A006D696E001B
:0E0EEB0062757320323A0062757320333A004C
:0710BC0002350000013400C1
:1008DB00120AC5E4FF12101FE4FF120F2F7BFF7AE1
:1008EB000E79BB750D087D03E4FF120E727BFF7A48
:1008FB000E79C8750D087D04E4FF120E727BFF7A2A
:10090B000E79D2750D087D05E4FF120E7212105090
:10091B00120E247FD07E07120FE47BFF7A0E79E054
:10092B00750D08E4FDFF120E72750C02750D08AB08
:10093B0036AA35E4FD7F28120D337BFF7A0E79E75B
:10094B00750D08E4FD7F40120E727BFF7A0E79EB7A
:10095B00750D087D01E4FF120E72750C02750D0802
:10096B00AB36AA357D017F28120D337BFF7A0E79CA
:10097B00E7750D087D017F40120E727BFF7A0E79B1
:10098B00F2750D087D02E4FF120E72750C02750DE7
:10099B0008AB36AA357D027F28120D337BFF7A0E0A
:1009AB0079E7750D087D027F40120E7212105012FE
:1009BB000E24EF64017024E532FB7A00750C02758E
:1009CB000D087D037F48120D33E533FB7A00750C60
:1009DB0002750D087D047F48120D330536E5367020
:0D09EB000205357FD07E07120FE4020925BA
:100FE400E4FDFCC3ED9FEE6480F8EC64809850103F
:100FF4000079027BC7DBFED9FC0DBD00010C80E348
:0110040022C9
:0410C4007F12DFFEBA
:0110C8002205
:100003000000000000000000002F000000000700B7
:10001300070000147F147F1400242A7F2A12006231
:1000230064081323003649552250000005030000DD
:1000330000001C224100000041221C000014083E65
:1000430008140008083E0808000000A0600000082B
:10005300080808080000606000000020100804027F
:10006300003E5149453E0000427F4000004261513D
:100073004946002141454B31001814127F100027D7
:1000830045454539003C4A4949300001710905039A
:1000930000364949493600064949291E00003636CB
:1000A300000000005636000000081422410000142E
:1000B300141414140000412214080002015109060B
:1000C30000324959513E007C1211127C007F49498C
:1000D3004936003E41414122007F4141221C007FBD
:1000E30049494941007F09090901003E4149497ACB
:1000F300007F0808087F0000417F41000020404145
:100103003F01007F08142241007F40404040007FB0
:10011300020C027F007F0408107F003E4141413EF4
:10012300007F09090906003E4151215E007F09193C
:1001330029460046494949310001017F0101003F39
:100143004040403F001F2040201F003F4038403FB9
:10015300006314081463000708700807006151491D
:10016300454300007F41410000552A552A550000B0
:1001730041417F000004020102040040404040402E
:10018300000001020400002054545478007F4844C6
:10019300443800384444442000384444487F0038FD
:1001A3005454541800087E0901020018A4A4A47C26
:1001B300007F080404780000447D400000408084F0
:1001C3007D00007F102844000000417F4000007C38
:1001D30004180478007C0804047800384444443844
:1001E30000FC242424180018242418FC007C080490
:1001F300040800485454542000043F444020003C69
:100203004040207C001C2040201C003C4030403CEF
:10021300004428102844001CA0A0A07C004464547F
:100223004C441414141414140000000000000000C3
:100233000000000000000000000000F800000000C3
:10024300000000333000000000100C06100C060004
:10025300000000000000000040C07840C07840006B
:10026300043F04043F040400007088FC08300000CD
:10027300001820FF211E0000F008F000E018000025
:1002830000211C031E211E0000F0088870000000DE
:100293001E2123241927211010160E000000000030
:1002A3000000000000000000000000E0180402004D
:1002B300000000071820400000020418E0000000BE
:1002C3000040201807000000404080F080404000BC
:1002D3000202010F01020200000000F00000000012
:1002E3000101011F010101000000000000000000E6
:1002F30080B070000000000000000000000000005B
:1003030000010101010101010000000000000000E3
:10031300003030000000000000000000806018047E
:10032300006018060100000000E010080810E0005B
:10033300000F102020100F00001010F80000000024
:100343000020203F2020000000700808088870006B
:1003530000302824222130000030088888483000EB
:100363000018202020110E000000C02010F800000B
:1003730000070424243F240000F8088888080800A4
:100383000019212020110E0000E0108888180000B9
:10039300000F112020110E0000380808C83808008B
:1003A3000000003F0000000000708808088870000B
:1003B300001C222121221C0000E010080810E0008C
:1003C3000000312222110F00000000C0C000000015
:1003D300000000303000000000000080000000003A
:1003E3000000806000000000000080402010080032
:1003F30000010204081020004040404040404000FB
:1004030004040404040404000008102040800000D5
:100413000020100804020100007048080808F000DA
:100423000000003036010000C030C828E810E000AA
:100433000718272423140B000000C038E000000035
:10044300203C23020227382008F88888887000009F
:10045300203F202020110E00C03008080808380073
:10046300071820202010080008F808080810E000EA
:10047300203F202020100F0008F88888E80810008B
:10048300203F20202320180008F88888E80810005F
:10049300203F200003000000C03008080838000097
:1004A30007182020221E020008F808000008F80898
:1004B300203F210101213F20000808F8080800001F
:1004C3000020203F2020000000000808F808080052
:1004D300C08080807F00000008F888C028180800CA
:1004E300203F20012638200008F808000000000003
:1004F300203F20202020300008F8F800F8F80800FA
:10050300203F003F003F200008F830C00008F808F3
:10051300203F200007183F00E01008080810E00003
:100523000F10202020100F0008F808080808F0001A
:10053300203F210101010000E01008080810E0003D
:100543000F18242438504F0008F8888888887000D2
:10055300203F2000030C3020007088080808380072
:100563000038202121221C00180808F80808180068
:100573000000203F2000000008F808000008F808E9
:10058300001F202020201F000878880000C838089A
:10059300000007380E010000F80800F80008F80012
:1005A300033C0700073C03000818688080681808AC
:1005B30020302C03032C30200838C800C83808002A
:1005C3000000203F2000000010080808C838080079
:1005D3002038262120201800000000FE020202001D
:1005E3000000007F40404000000C30C000000000CD
:1005F300000000010638C00000020202FE000000F5
:10060300004040407F00000000000402020204009A
:1006130000000000000000000000000000000000D7
:1006230080808080808080800002020400000000BF
:1006330000000000000000000000808080800000B7
:100643000019242222223F2008F8008080000000A5
:10065300003F112020110E00000000808080000068
:10066300000E112020201100000000808088F80077
:10067300000E112020103F200000808080800000A9
:10068300001F222222221300008080F0888888180D
:100693000020203F20200000000080808080800018
:1006A300006B94949493600008F8008080800000AD
:1006B300203F210000203F20008098980000000088
:1006C3000020203F202000000000008098980000B8
:1006D30000C08080807F000008F8000080808000D8
:1006E300203F24022D302000000808F800000000FD
:1006F3000020203F202000008080808080808000B8
:10070300203F20003F20003F808000808080000049
:10071300203F210000203F200000808080800000D7
:10072300001F202020201F00808000808000000008
:1007330080FFA12020110E00000000808080800037
:10074300000E112020A0FF80808080008080800028
:1007530020203F2120000100000080808080800055
:100763000033242424241900008080E080800000CA
:100773000000001F20200000808000000080800017
:10078300001F202020103F20808080000080808078
:1007930000010E3008060100808000800080808008
:1007A3000F300C030C300F0000808000808080002D
:1007B3000020312E0E312000808080000080808058
:1007C30080818E7018060100008080808080800008
:1007D3000021302C2221300000000000807C020226
:1007E30000000000003F404000000000FF00000048
:1007F30000000000FF0000000002027C80000000F7
:100803000040403F00000000000601010202040412
:1008130000000000000000000000F8494A4C48F8BE
:10082300484C4A49F800000010101312121212FF2C
:100833001212121213101000000000FE20202020BC
:10084300203F2020202000000080601F02020202BF
:100853000202FE00000000001010D0FF901000FE06
:10086300020202FE00000000040300FF0083601F79
:100873000000003F4040780080828282FE828282B4
:100883008282FE8282828000008040300F0000005E
:100893000000FF00000000000000181610D0B897F9
:1008A30090909092941000000020108C8380414619
:1008B30028102844438080001010D0FF901000FCC3
:1008C30024E4242223E20000040300FF0083601FCA
:0808D300804126182641800037
:10100500EF4E60157D087C07ED1DAA0470011C4A92
:0910150070F6EF1F70EA1E80E77F
:01101E0022AF
:10101F008F08E5087006FD7FA6120F06E508B401DC
:09102F0007E4FD7FA7120F062261
:100F2F008F08E508700DFD7FC8120F06E4FD7FA145
:100F3F00120F06E508B4010EE4FD7FC0120F06E4A0
:070F4F00FD7FA0120F062236
:0810B3007F01AE071FEE70FA89
:0110BB002212
:0F107D00D291D2901210B3C2911210B3C290222E
:0A10A900C291D2901210B3D291222E
:0F108C00D2911210B3D2901210B3C2900210B3CF
:020F7C00AD07BF
:100F7E00E4FCC290ED30E704D2918002C2911210CF
:100F8E00B3D2901210B3C290ED25E0FD0CBC08E276
:010F9E002230
:0D0EF900120F06E4FDFF120F06E4FD7F104E
:100F0600AB05AA0712107D7F78120F7C12108CEBAE
:100F160060047F408002E4FF120F7C12108CAF0247
:090F2600120F7C12108C0210A9BC
:100FC200A907ED24B0FFE4FD120F06E954F0C45462
:100FD2000F4410FFE4FD120F06E9540FFFE4FD0277
:020FE2000F06F8
:10106800E4FD7F8D120F06E4FD7F14120F06E4FDE8
:051078007FAF020F062E
:0E109B00E4FD7F8D120EFFE4FD7FAE020F0616
:100F9F00E4F9E924B0FFE4FD120EF9E4F5087D0150
:100FAF00E4FF120F060508E508C3948040F009B965
:020FBF0008E048
:010FC100220D
:0409F8008F128D13BA
:1009FC00E4F516E515C313FDF517E4F518F519E53F
:100A0C0015B40808751A00751B068029E515131313
:100A1C0013541FFF7E00E5155407600590000180FC
:100A2C0003900000E5822FFFE5833EFE7C00120B55
:100A3C00B58E1A8F1BEB24E0F516AD13AF12120F07
:100A4C00C2E4F518F519C3E519951BE518951A506C
:100A5C0067E517FD7C00AE18AF19120BC7ED4C7093
:100A6C000FE51564086009AD130513AF12120FC220
:100A7C00E515B4081075F006E516A42403F582E517
:100A8C00F034008013E515B4102E75F010E516A4A3
:100A9C00242BF582E5F03402F583E5822519F582E5
:100AAC00E5833518F583E493FF7D01120F060519D4
:080ABC00E51970920518808E07
:010AC400220F
:041038008F12A90565
:10103C007F017E00AD0119ED6009AD127C00120B31
:03104C00B580F17B
:01104F00227E
:080D33008F088D098A0A8B0B61
:100D3B00E4F510F511E50DB40803751002E4F50E9A
:100D4B00E50EC3950C5069C3E50C950E14FD7F0A97
:100D5B00121038AC0AAD0BCFCDCFCECCCE120BC709
:100D6B007C007D0A120BC78D0FE5117025E50C1465
:100D7B00FFE50EC39F501BE50F7014E50DC3132544
:100D8B0010850EF0A42508FF850D157B20801875A6
:100D9B001101E50DC3132510850EF0A42508FFE501
:100DAB000F2430FB850D15AD091209F8050E809047
:010DBB002215
:0A0E72008F088D098B0A8A0B890C8A
:100E7C00E4F50EAB0AAA0BA90C850E827583001241
:100E8C000B88602AAF0E050E8F82758300120B88BB
:100E9C00FB850D15AD09AF081209F8E50DB4080472
:0E0EAC0074068004E50DC3132508F50880C503
:010EBA002215
:060CA8008F278D288B2927
:100CAE00E52A131313541FFF7E00E52A54077C0018
:100CBE0060047D0180027D00ED2FFFEC3EFEAD2A2B
:100CCE007C00120BB58E2D8F2EE4F52BF52CC3E583
:100CDE002C952EE52B952D504BE52AFD7C00AE2B49
:100CEE00AF2C120BC7ED4C7009AD280528AF27129B
:100CFE000FC2E52AB4102DE529C43354E0241BF5A8
:100D0E0082E43408F583E582252CF582E583352BC4
:100D1E00F583E493FF7D01120F06052CE52C70AED2
:040D2E00052B80AA67
:010D3200229E
:060DBC008F1C8D1D8B1E33
:100DC200E4F523F524E51F131313541FFFE51F5405
:100DD2000760047E0180027E00EF2EF51FE4F525F8
:100DE200E525C3951F503AE525251DFDAF1C120FC1
:100DF200C2E4F526E526C3951E5022AB20AA21A9FE
:100E0200220524E524AE237002052314F5828E8385
:100E1200120B88FF7D01120F06052680D70525805B
:010E2200BF10
:010E230022AC
:100AC500C2927FC87E00121005D292E4FD7FAE125D
:100AD5000EF9E4FD7F40120F06E4FD7F81120F063B
:100AE500E4FD7FCF120F06E4FD7FA1120F06E4FDA2
:100AF5007FC8120F06E4FD7FA6120F06E4FD7FA84E
:100B0500120F06E4FD7F3F120F06E4FD7FD3120F9F
:100B150006E4FDFF120F06E4FD7FD5120F06E4FD86
:100B25007F80120F06E4FD7FD9120F06E4FD7FF1E9
:100B3500120F06E4FD7FDA120F06E4FD7F12120F95
:100B450006E4FD7FDB120F06E4FD7F40120F06E48D
:100B5500FD7F20120F06E4FD7F02120F06E4FD7FE4
:100B65008D120F06E4FD7F14120F06E4FD7FA4121B
:100B75000F06E4FD7FA6120F06120F9FE4FD7FAF5F
:030B8500020F0656
:10105000C2937F147E00120FE4D2931210C4209327
:08106000063093FD2093FD22F0
:100F5600E4F50DF50C3093FD1210C4E50D25E0F512
:100F66000D309306430D012093FD050CE50CC3944B
:050F76000840E2AF0D90
:010F7B002253
:100E2400120F568F08120F568F09120F568F0A127F
:100E34000F568F0B120F568F2F1210C4E508250979
:100E4400FFE433FE7C00EF250AFFEC3EFEEF250BAA
:100E5400FFEC3EFEEFB52F13ECB5060F8508338586
:0D0E64000931850A32850B307F01227F00A5
:010E7100225E
:03000000020C1CD3
:0C0C1C00787FE4F6D8FD758136020C6389
:100B8800BB010CE58229F582E5833AF583E0225022
:100B980006E92582F8E622BBFE06E92582F8E2226C
:0D0BA800E58229F582E5833AF583E4932286
:100BB500EF8DF0A4A8F0CF8CF0A428CE8DF0A42E54
:020BC500FE220E
:100BC700BC000BBE0029EF8DF084FFADF022E4CC12
:100BD700F875F008EF2FFFEE33FEEC33FCEE9DECDB
:100BE700984005FCEE9DFE0FD5F0E9E4CEFD22ED21
:100BF700F8F5F0EE8420D21CFEADF075F008EF2F6B
:100C0700FFED33FD4007985006D5F0F222C398FD5B
:050C17000FD5F0EA22F8
:100C28000208DBE493A3F8E493A34003F68001F2FF
:100C380008DFF48029E493A3F85407240CC8C333CD
:100C4800C4540F4420C8834004F456800146F6DF9C
:100C5800E4800B01020408102040809010BCE47E60
:100C6800019360BCA3FF543F30E509541FFEE49391
:100C7800A360010ECF54C025E060A840B8E493A358
:100C8800FAE493A3F8E493A3C8C582C8CAC583CA83
:100C9800F0A3C8C582C8CAC583CADFE9DEE780BE3B
:0110C300002C
:00000001FF
