:101B6A0020203A20203A2020003D3D3D3D3D3D3D8C
:101B7A003D3D3D3D3D3D3D3D3D3D3D3D3D3D0042C3
:101B8A00555320313A003A0042555320323A004226
:101B9A00555320333A00543A20204320204C3A200F
:0B1BAA002020252020483A20202500A4
:101A1C00011900010D0101140C0115000113000244
:101A2C000B0065011600010F00022300DF022500E8
:101A3C00D2020800C7010A00061C000000000000CA
:101A4C00011700011B00012200011800010E00010A
:0B1A5C001000011100011200011A002F
:10002E001216D3E4FF121E50E4FF121CCD121E9ABC
:10003E00121B1C7FAC12193F8E0B8F0C7BFF7A1B91
:10004E00796A752D10E4FD7F20121BB5E514C4549A
:10005E000F75F00AA4FFE514540F7C002FFFEC354A
:10006E00F0FE7D0A1217D5AA06AB07752C01752D69
:10007E0010E4FD7F201218B6E514C4540F75F00A73
:10008E00A4FFE514540F7C002FFFEC35F0FE7D0A23
:10009E001217D5AA04AB05752C01752D10E4FD7F42
:1000AE00281218B6E515C4540F75F00AA4FFE5150D
:1000BE00540F7C002FFFEC35F0FE7D0A1217D5AAE7
:1000CE0006AB07752C01752D10E4FD7F381218B69E
:1000DE00E515C4540F75F00AA4FFE515540F7C0006
:1000EE002FFFEC35F0FE7D0A1217D5AA04AB05756D
:1000FE002C01752D10E4FD7F401218B6E513C45483
:10010E000F75F00AA4FFE513540F7C002FFFEC359A
:10011E00F0FE7D0A1217D5AA06AB07752C01752DB8
:10012E0010E4FD7F501218B6E513C4540F75F00A93
:10013E00A4FFE513540F7C002FFFEC35F0FE7D0A73
:10014E001217D5AA04AB05752C01752D10E4FD7F91
:10015E00581218B67BFF7A1B7973752D087D02E451
:10016E00FF121BB57BFF7A1B7989752D087D03E481
:10017E00FF121BB5AE23AF247C007D3C1217D57C3D
:10018E00007D0A1217D5AA06AB07752C01752D082E
:10019E007D037F2A1218B6AE23AF247C007D3C125D
:1001AE0017D57C007D0A1217D5AA04AB05752C0154
:1001BE00752D087D037F301218B67BFF7A1B799060
:1001CE00752D087D037F37121BB5AE23AF247C003F
:1001DE007D3C1217D57E007F0ACFCDCFCECCCE126E
:1001EE0017D5AA06AB07752C01752D087D037F3C2C
:1001FE001218B6AE23AF247C007D3C1217D57E00BC
:10020E007F0ACFCDCFCECCCE1217D5AA04AB0575B3
:10021E002C01752D087D037F421218B67BFF7A1BC9
:10022E007992752D087D04E4FF121BB5AE25AF261D
:10023E007C007D3C1217D57C007D0A1217D5AA06CC
:10024E00AB07752C01752D087D047F2A1218B6AEEA
:10025E0025AF267C007D3C1217D57C007D0A121737
:10026E00D5AA04AB05752C01752D087D047F3012BF
:10027E0018B67BFF7A1B7990752D087D047F371297
:10028E001BB5AE25AF267C007D3C1217D57E007FB8
:10029E000ACFCDCFCECCCE1217D5AA06AB07752C72
:1002AE0001752D087D047F3C1218B6AE25AF267C55
:1002BE00007D3C1217D57E007F0ACFCDCFCECCCE9F
:1002CE001217D5AA04AB05752C01752D087D047F78
:1002DE00421218B67BFF7A1B7999752D087D05E4BD
:1002EE00FF121BB5AE08AF097C007D3C1217D57C02
:1002FE00007D0A1217D5AA06AB07752C01752D08BD
:10030E007D057F2A1218B6AE08AF097C007D3C121F
:10031E0017D57C007D0A1217D5AA04AB05752C01E2
:10032E00752D087D057F301218B67BFF7A1B7990EC
:10033E00752D087D057F37121BB5AE08AF097C0001
:10034E007D3C1217D57E007F0ACFCDCFCECCCE12FC
:10035E0017D5AA06AB07752C01752D087D057F3CB8
:10036E001218B6AE08AF097C007D3C1217D57E0080
:10037E007F0ACFCDCFCECCCE1217D5AA04AB057542
:10038E002C01752D087D057F421218B67BFF7A1B56
:10039E007973752D087D06E4FF121BB57BFF7A1B62
:1003AE0079A0752D087D07E4FF121BB5E53FFB7A9A
:1003BE0000752C02752D087D077F0C1218B6AE0B3A
:1003CE00AF0C7C007D051217C3EF2401FFE43EFE47
:1003DE007D031217D5AA06AB07752C03752D087D64
:1003EE00077F341218B6E540FB7A00752C02752D86
:1003FE00087D077F641218B6121CF4121F787F85D1
:10040E00121A7D8F147F83121A7D8F157F81121A17
:10041E007D8F13121E69121EB2121EE0121BFE8F6A
:10042E002212139A20950E051AE51AC3940340055D
:10043E00D295E4F51AD3E52494B4E523940050073D
:10044E007535087B2A80057535087B207D037F482E
:10045E00121606D3E52694B4E5259400500775359B
:10046E00087B2A80057535087B207D047F4812168F
:10047E0006D3E50994B4E508940050077535087B5A
:10048E002A80057535087B207D057F48121606E506
:10049E0022B45403630DFFE51B703EE518B401064C
:1004AE00121F0BE4F518E50EB40107D28CD2A9E4A5
:1004BE00F50E7535087B207D037F4E1216067535B9
:1004CE00087B207D047F4E1216067535087B207D35
:1004DE00057F4E1216060207A6121F1FC28CC2A956
:1004EE00751801750E01E51B640160030205DA75CE
:1004FE0035087B3C7D037F4E1216067535087B2032
:10050E007D047F4E1216067535087B207D057F4EC5
:10051E00121606E5226455700A0524E524701505A9
:10052E00238011E522644460030205DAE5241524D4
:10053E0070021523AE23AF247C007D3C1217D57CB0
:10054E00007D0A1217D5AA06AB07752C01752D086A
:10055E007D037F2A1218B6AE23AF247C007D3C1299
:10056E0017D57C007D0A1217D5AA04AB05752C0190
:10057E00752D087D037F301218B6AE23AF247C0094
:10058E007D3C1217D57E007F0ACFCDCFCECCCE12BA
:10059E0017D5AA06AB07752C01752D087D037F3C78
:1005AE001218B6AE23AF247C007D3C1217D57E0008
:1005BE007F0ACFCDCFCECCCE1217D5AA04AB057500
:1005CE002C01752D087D037F421218B6E51B6402BF
:1005DE0060030206C07535087B207D037F4E121620
:1005EE00067535087B3C7D047F4E12160675350860
:1005FE007B207D057F4E121606E5226455700A0596
:10060E0026E526701505258011E522644460030257
:10061E0006C0E526152670021525AE25AF267C00F0
:10062E007D3C1217D57C007D0A1217D5AA06AB07A2
:10063E00752C01752D087D047F2A1218B6AE25AFD4
:10064E00267C007D3C1217D57C007D0A1217D5AA98
:10065E0004AB05752C01752D087D047F301218B67C
:10066E00AE25AF267C007D3C1217D57E007F0ACFCB
:10067E00CDCFCECCCE1217D5AA06AB07752C0175F1
:10068E002D087D047F3C1218B6AE25AF267C007D6A
:10069E003C1217D57E007F0ACFCDCFCECCCE12170F
:1006AE00D5AA04AB05752C01752D087D047F421269
:1006BE0018B6E51B640360030207A67535087B2098
:1006CE007D037F4E1216067535087B207D047F4E06
:1006DE001216067535087B3C7D057F4E121606E513
:1006EE00226455700A0509E509701505088011E5A3
:1006FE0022644460030207A6E50915097002150875
:10070E00AE08AF097C007D3C1217D57C007D0A1225
:10071E0017D5AA06AB07752C01752D087D057F2A06
:10072E001218B6AE08AF097C007D3C1217D57C00BE
:10073E007D0A1217D5AA04AB05752C01752D087DFF
:10074E00057F301218B6AE08AF097C007D3C12173B
:10075E00D57E007F0ACFCDCFCECCCE1217D5AA062E
:10076E00AB07752C01752D087D057F3C1218B6AEB2
:10077E0008AF097C007D3C1217D57E007F0ACFCDD5
:10078E00CFCECCCE1217D5AA04AB05752C01752D84
:10079E00087D057F421218B6D2A8E4F522E50A6458
:1007AE0001600302042AF50AD3E5249400E523949C
:1007BE00004008E524152470021523D3E526940085
:1007CE00E52594004008E526152670021525D3E58B
:1007DE00099400E50894004008E509150970021512
:1007EE0008E52464B445237003751001E52664B44E
:1007FE0045257003751101E50964B445087003754C
:10080E001201AE23AF247C007D3C1217D57C007DF7
:10081E000A1217D5AA06AB07752C01752D087D0394
:10082E007F2A1218B6AE23AF247C007D3C1217D55A
:10083E007C007D0A1217D5AA04AB05752C01752D07
:10084E00087D037F301218B6AE23AF247C007D3CAA
:10085E001217D57E007F0ACFCDCFCECCCE1217D5B4
:10086E00AA06AB07752C01752D087D037F3C121867
:10087E00B6AE23AF247C007D3C1217D57E007F0AD6
:10088E00CFCDCFCECCCE1217D5AA04AB05752C0189
:10089E00752D087D037F421218B6AE25AF267C005B
:1008AE007D3C1217D57C007D0A1217D5AA06AB0720
:1008BE00752C01752D087D047F2A1218B6AE25AF52
:1008CE00267C007D3C1217D57C007D0A1217D5AA16
:1008DE0004AB05752C01752D087D047F301218B6FA
:1008EE00AE25AF267C007D3C1217D57E007F0ACF49
:1008FE00CDCFCECCCE1217D5AA06AB07752C01756F
:10090E002D087D047F3C1218B6AE25AF267C007DE7
:10091E003C1217D57E007F0ACFCDCFCECCCE12178C
:10092E00D5AA04AB05752C01752D087D047F4212E6
:10093E0018B6AE08AF097C007D3C1217D57C007D41
:10094E000A1217D5AA06AB07752C01752D087D0561
:10095E007F2A1218B6AE08AF097C007D3C1217D55F
:10096E007C007D0A1217D5AA04AB05752C01752DD6
:10097E00087D057F301218B6AE08AF097C007D3CAD
:10098E001217D57E007F0ACFCDCFCECCCE1217D583
:10099E00AA06AB07752C01752D087D057F3C121834
:1009AE00B6AE08AF097C007D3C1217D57E007F0ADB
:1009BE00CFCDCFCECCCE1217D5AA04AB05752C0158
:1009CE00752D087D057F421218B67F85121A7D8F10
:1009DE00147F83121A7D8F157F81121A7D8F137FDC
:1009EE00AC12193F8E0B8F0CE514C4540F75F00A20
:1009FE00A4FFE514540F7C002FFFEC35F0FE7D0AAA
:100A0E001217D5AA06AB07752C01752D10E4FD7FC4
:100A1E00201218B6E514C4540F75F00AA4FFE5149D
:100A2E00540F7C002FFFEC35F0FE7D0A1217D5AA6D
:100A3E0004AB05752C01752D10E4FD7F281218B638
:100A4E00E515C4540F75F00AA4FFE515540F7C008C
:100A5E002FFFEC35F0FE7D0A1217D5AA06AB0775EF
:100A6E002C01752D10E4FD7F381218B6E515C4540F
:100A7E000F75F00AA4FFE515540F7C002FFFEC351F
:100A8E00F0FE7D0A1217D5AA04AB05752C01752D43
:100A9E0010E4FD7F401218B6E513C4540F75F00A2A
:100AAE00A4FFE513540F7C002FFFEC35F0FE7D0AFA
:100ABE001217D5AA06AB07752C01752D10E4FD7F14
:100ACE00501218B6E513C4540F75F00AA4FFE513BF
:100ADE00540F7C002FFFEC35F0FE7D0A1217D5AABD
:100AEE0004AB05752C01752D10E4FD7F581218B658
:100AFE00E50FC3940A500302042AE4F50FC2AF12A5
:100B0E001E9A121B1CD2AFE53FFB7A00752C0275A4
:100B1E002D087D077F0C1218B6AE0BAF0C7C007D36
:100B2E00051217C3EF2401FFE43EFE7D031217D515
:100B3E00AA06AB07752C03752D087D077F34121896
:100B4E00B6E540FB7A00752C02752D087D077F6493
:100B5E001218B6C3E50C941EE50B94004006E4F59E
:100B6E004102042AE50C75F003A4FFC374649FF5DB
:040B7E004102042A02
:101DF500E4FDFCC3ED9FEE6480F8EC648098501020
:101E05000079027BC7DBFED9FC0DBD00010C80E328
:011E150022AA
:040006007F12DFFE88
:01000A0022D3
:0F1F3300E4FEEEC39F5008007D14DDFE0E80F328
:011F4200227C
:100B82000000000000000000002F0000000007002D
:100B9200070000147F147F1400242A7F2A120062A7
:100BA2006408132300364955225000000503000053
:100BB20000001C224100000041221C000014083EDB
:100BC20008140008083E0808000000A060000008A1
:100BD20008080808000060600000002010080402F5
:100BE200003E5149453E0000427F400000426151B3
:100BF2004946002141454B31001814127F1000274D
:100C020045454539003C4A4949300001710905030F
:100C120000364949493600064949291E0000363640
:100C220000000000563600000008142241000014A3
:100C32001414141400004122140800020151090680
:100C420000324959513E007C1211127C007F494901
:100C52004936003E41414122007F4141221C007F32
:100C620049494941007F09090901003E4149497A40
:100C7200007F0808087F0000417F410000204041BA
:100C82003F01007F08142241007F40404040007F26
:100C9200020C027F007F0408107F003E4141413E6A
:100CA200007F09090906003E4151215E007F0919B2
:100CB20029460046494949310001017F0101003FAF
:100CC2004040403F001F2040201F003F4038403F2F
:100CD2000063140814630007087008070061514993
:100CE200454300007F41410000552A552A55000026
:100CF20041417F00000402010204004040404040A4
:100D0200000001020400002054545478007F48443B
:100D1200443800384444442000384444487F003872
:100D22005454541800087E0901020018A4A4A47C9B
:100D3200007F080404780000447D40000040808465
:100D42007D00007F102844000000417F4000007CAD
:100D520004180478007C08040478003844444438B9
:100D620000FC242424180018242418FC007C080405
:100D7200040800485454542000043F444020003CDE
:100D82004040207C001C2040201C003C4030403C65
:100D9200004428102844001CA0A0A07C00446454F5
:100DA2004C44141414141414000000000000000039
:100DB2000000000000000000000000F80000000039
:100DC200000000333000000000100C06100C06007A
:100DD200000000000000000040C07840C0784000E1
:100DE200043F04043F040400007088FC0830000043
:100DF200001820FF211E0000F008F000E01800009B
:100E020000211C031E211E0000F008887000000053
:100E12001E2123241927211010160E0000000000A5
:100E22000000000000000000000000E018040200C2
:100E3200000000071820400000020418E000000033
:100E42000040201807000000404080F08040400031
:100E52000202010F01020200000000F00000000087
:100E62000101011F0101010000000000000000005B
:100E720080B07000000000000000000000000000D0
:100E82000001010101010101000000000000000059
:100E920000303000000000000000000080601804F4
:100EA200006018060100000000E010080810E000D1
:100EB200000F102020100F00001010F8000000009A
:100EC2000020203F202000000070080808887000E1
:100ED2000030282422213000003008888848300061
:100EE2000018202020110E000000C02010F8000081
:100EF20000070424243F240000F80888880808001A
:100F02000019212020110E0000E01088881800002E
:100F1200000F112020110E0000380808C838080000
:100F22000000003F00000000007088080888700080
:100F3200001C222121221C0000E010080810E00001
:100F42000000312222110F00000000C0C00000008A
:100F520000000030300000000000008000000000AF
:100F620000008060000000000000804020100800A7
:100F72000001020408102000404040404040400070
:100F8200040404040404040000081020408000004B
:100F92000020100804020100007048080808F00050
:100FA2000000003036010000C030C828E810E00020
:100FB2000718272423140B000000C038E0000000AB
:100FC200203C23020227382008F888888870000015
:100FD200203F202020110E00C030080808083800E9
:100FE200071820202010080008F808080810E00060
:100FF200203F202020100F0008F88888E808100001
:10100200203F20202320180008F88888E8081000D4
:10101200203F200003000000C0300808083800000C
:1010220007182020221E020008F808000008F8080D
:10103200203F210101213F20000808F80808000094
:101042000020203F2020000000000808F8080800C7
:10105200C08080807F00000008F888C0281808003F
:10106200203F20012638200008F808000000000078
:10107200203F20202020300008F8F800F8F808006F
:10108200203F003F003F200008F830C00008F80869
:10109200203F200007183F00E01008080810E00079
:1010A2000F10202020100F0008F808080808F00090
:1010B200203F210101010000E01008080810E000B3
:1010C2000F18242438504F0008F888888888700048
:1010D200203F2000030C30200070880808083800E8
:1010E2000038202121221C00180808F808081800DE
:1010F2000000203F2000000008F808000008F8085F
:10110200001F202020201F000878880000C838080F
:10111200000007380E010000F80800F80008F80087
:10112200033C0700073C0300081868808068180821
:1011320020302C03032C30200838C800C83808009F
:101142000000203F2000000010080808C8380800EE
:101152002038262120201800000000FE0202020092
:101162000000007F40404000000C30C00000000042
:10117200000000010638C00000020202FE0000006A
:10118200004040407F000000000004020202040010
:10119200000000000000000000000000000000004D
:1011A2008080808080808080000202040000000035
:1011B200000000000000000000008080808000002D
:1011C2000019242222223F2008F80080800000001B
:1011D200003F112020110E000000008080800000DE
:1011E200000E112020201100000000808088F800ED
:1011F200000E112020103F2000008080808000001F
:10120200001F222222221300008080F08888881882
:101212000020203F2020000000008080808080008D
:10122200006B94949493600008F800808080000022
:10123200203F210000203F200080989800000000FD
:101242000020203F2020000000000080989800002D
:1012520000C08080807F000008F80000808080004D
:10126200203F24022D302000000808F80000000072
:101272000020203F2020000080808080808080002D
:10128200203F20003F20003F8080008080800000BF
:10129200203F210000203F2000008080808000004D
:1012A200001F202020201F0080800080800000007E
:1012B20080FFA12020110E000000008080808000AD
:1012C200000E112020A0FF8080808000808080009E
:1012D20020203F21200001000000808080808000CB
:1012E2000033242424241900008080E08080000040
:1012F2000000001F2020000080800000008080008D
:10130200001F202020103F208080800000808080ED
:1013120000010E300806010080800080008080807D
:101322000F300C030C300F000080800080808000A2
:101332000020312E0E3120008080800000808080CD
:1013420080818E701806010000808080808080007D
:101352000021302C2221300000000000807C02029B
:1013620000000000003F404000000000FF000000BD
:1013720000000000FF0000000002027C800000006C
:101382000040403F00000000000601010202040488
:08139200000000000000000053
:101E3600EF4E60157D087C07ED1DAA0470011C4A53
:091E460070F6EF1F70EA1E80E740
:011E4F002270
:101E50008F28E5287006FD7FA6121C48E528B401EE
:091E600007E4FD7FA7121C4822D3
:101CCD008F28E528700DFD7FC8121C48E4FD7FA10B
:101CDD00121C48E528B4010EE4FD7FC0121C48E437
:071CED00FD7FA0121C48223C
:081F6F007F01AE071FEE70FABE
:011F77002247
:0F1F4300D291D290121F6FC291121F6FC29022C3
:0A001600C291D290121F6FD2912206
:0F1F5200D291121F6FD290121F6FC290021F6F99
:021D8D00AD07A0
:101D8F00E4FCC290ED30E704D2918002C291121FA1
:101D9F006FD290121F6FC290ED25E0FD0CBC08E2D0
:011DAF002211
:0D1C3B00121C48E4FDFF121C48E4FD7F1060
:101C4800AB05AA07121F437F78121D8D121F52EB96
:101C580060047F408002E4FF121D8D121F52AF0204
:091C6800121D8D121F520200161C
:101DD300A907ED24B0FFE4FD121C48E954F0C454F4
:101DE3000F4410FFE4FD121C48E9540FFFE4FD0209
:021DF3001C488A
:101EF600E4FD7F8D121C48E4FD7F14121C48E4FDAE
:051F06007FAF021C4842
:0E1F6100E4FD7F8D121C41E4FD7FAE021C48A2
:101DB000E4F9E924B0FFE4FD121C3BE4F5287D01C1
:101DC000E4FF121C480528E528C3948040F009B9B7
:021DD00008E029
:011DD20022EE
:041606008F328D335F
:10160A00E4F536E535C313FDF537E4F538F539E584
:10161A0035B40808753A00753B068029E535131379
:10162A0013541FFF7E00E5355407600590000180C2
:10163A0003900000E5822FFFE5833EFE7C0012172F
:10164A00C38E3A8F3BEB24E0F536AD33AF32121D31
:10165A00D3E4F538F539C3E539953BE538953A5081
:10166A0067E537FD7C00AE38AF391217D5ED4C70FF
:10167A000FE53564086009AD330533AF32121DD367
:10168A00E535B4081075F006E536A42482F582E53E
:10169A00F0340B8013E535B4102E75F010E536A43E
:1016AA0024AAF582E5F0340DF583E5822539F58221
:1016BA00E5833538F583E493FF7D01121C4805392B
:0816CA00E53970920538808EAD
:0116D20022F5
:041E82008F32A905ED
:101E86007F017E00AD0119ED6009AD327C001217AD
:031E9600C380F115
:011E99002226
:0818B6008F288D298A2A8B2B53
:1018BE00E4F530F531E52DB40803753002E4F52E6C
:1018CE00E52EC3952C5069C3E52C952E14FD7F0A89
:1018DE00121E82AC2AAD2BCFCDCFCECCCE1217D5C9
:1018EE007C007D0A1217D58D2FE5317025E52C145D
:1018FE00FFE52EC39F501BE52F7014E52DC3132556
:10190E0030852EF0A42528FF852D357B2080187577
:10191E003101E52DC3132530852EF0A42528FFE5D2
:10192E002F2430FB852D35AD29121606052E8090FD
:01193E002286
:0A1BB5008F288D298B2A8A2B892C9A
:101BBF00E4F52EAB2AAA2BA92C852E827583001251
:101BCF001796602AAF2E052E8F82758300121796F7
:101BDF00FB852D35AD29AF28121606E52DB4080467
:0E1BEF0074068004E52DC3132528F52880C553
:011BFD0022C5
:1016D300C2927FC87E00121E36D292E4FD7FAE1204
:1016E3001C3BE4FD7F40121C48E4FD7F81121C4833
:1016F300E4FD7FCF121C48E4FD7FA1121C48E4FDEA
:101703007FC8121C48E4FD7FA6121C48E4FD7FA895
:10171300121C48E4FD7F3F121C48E4FD7FD3121CDA
:1017230048E4FDFF121C48E4FD7FD5121C48E4FD8C
:101733007F80121C48E4FD7FD9121C48E4FD7FF131
:10174300121C48E4FD7FDA121C48E4FD7F12121CD0
:1017530048E4FD7FDB121C48E4FD7F40121C48E493
:10176300FD7F20121C48E4FD7F02121C48E4FD7F2C
:101773008D121C48E4FD7F14121C48E4FD7FA41263
:101783001C48E4FD7FA6121C48121DB0E4FD7FAF88
:03179300021C48ED
:101E9A00C2937F147E00121DF5D29312000620937E
:081EAA00063093FD2093FD2298
:101D1B00E4F52DF52C3093FD120006E52D25E0F5AD
:101D2B002D309306432D012093FD052CE52CC394F8
:051D3B000840E2AF2D9D
:011D40002280
:101B1C00121D1B8F28121D1B8F29121D1B8F2A12A1
:101B2C001D1B8F2B121D1B8F3C120006E52825292F
:101B3C00FFE433FE7C00EF252AFFEC3EFEEF252B65
:101B4C00FFEC3EFEEFB53C13ECB5060F8528408547
:0D1B5C00293E852A3F852B3D7F01227F0019
:011B69002259
:101CF400C2B5C2B6E4FD7F8E121ACBE4FD7F80121A
:101D04001ACBE4FD7F82121ACB7D127F84121ACB88
:071D14007D807F8E021ACBD7
:021ACB00A90769
:101ACD00D2B5E4FB7E007401A803088005C333CEB4
:101ADD0033CED8F9FFE9F582EF558224FF92B4D2C7
:101AED00B6C2B60BBB08DDE4FB7E007401A803088B
:101AFD008005C333CE33CED8F9FFEDF582EF558295
:0E1B0D0024FF92B4D2B6C2B60BBB08DDC2B53F
:011B1B0022A7
:091A7400E4FD7F8E121ACB7F8085
:021A7D00AD07B3
:101A7F00E4F9430501D2B5FB7E007401A803088089
:101A8F0005C333CE33CED8F9FFEDF582EF5582245F
:101A9F00FF92B4C2B6D2B60BBB08DDE4FBD2B6C21E
:101AAF00B630B40DA8037401088002C333D8FC42CA
:0B1ABF00010BBB08E8C2B5C2B4AF01C8
:011ACA0022F9
:101F0B00121A74AD0753057F7F80121ACB7D807F29
:041F1B008E021ACB4D
:101F1F00121A74AD074305807F80121ACB7D807F24
:041F2F008E021ACB39
:02193F00AD07F2
:10194100E4F529F52AC2B6C2B5F5287E007480A84F
:1019510028088006CEA2E713CE13D8F8FFEDFBEFDF
:101961005B24FF92B4D2B6C2B60528E528B408DBE1
:10197100E4F528D2B6C2B630B71B7E80E4A82808A9
:101981008005CEC313CE13D8F9422AEE42297F0136
:101991007E00121DF50528E528C3941040D5D2B567
:1019A100AE29E52A7808088005CEC313CE13D8F9ED
:0519B100FF8E29F52A5C
:0119B600220E
:101BFE00E4F52830B00320B1317F0F7E00121DF5C1
:101C0E0020B00F20B10C30B0FD30B1FA752854AFB2
:101C1E00282220B00930B0FD752855AF282220B1FA
:0C1C2E000930B1FD752844AF2822AF2812
:011C3A002287
:1019B7006275733120697320617070726F6163683B
:1019C700696E670A006275733220697320617070EF
:1019D700726F616368696E670A00627573332069A5
:1019E7007320617070726F616368696E670A00487F
:1019F700454C500A00627573313A20003A000A00DC
:101A0700627573323A2000627573333A200065724B
:051A1700726F720A006D
:0C1A670001440001410001430001420065
:101EB2005389F0438901E4F58A758C4CC28DD28C2A
:071EC200D2A9D2AFC2B92280
:101EE00075CBFF75CA9C75CDFF75CC9CE4F5C8D247
:061EF000ADD2CAD2AF2200
:101E690053877F75985053890F438920758BFD756A
:091E79008DFDC2ABD28ED2AC2269
:091F7800D288D2A8D28AD2AA2292
:101D41007C007D3C1217D57E007F0ACFCDCFCECC53
:0A1D5100CE1217D5AF05ED2430FFC8
:0C1D5B00C2AC8F993099FDC299D2AC2225
:061D67007BFF7A1A7903EC
:061D6D008B298A2A892B54
:101D7300E4FEAB29AA2AA92B8E827583001217963B
:091D8300FF6006121D5B0E80E9F1
:011D8C002234
:03000B00021E16BC
:101E1600C0E0C0D00516758A00758C4CE516C394D3
:101E2600144008751600050F750A01D0D0D0E032AF
:03002B00021CA212
:101CA200C0E0C0D0C2CF0544E544C394644003758C
:101CB2004400E544C39541500AE50DB4010575A001
:0B1CC20000800375A0FFD0D0D0E032FE
:03001300021F8148
:061F8100754301C2953218
:03000300021EC911
:101EC900C0E0C0D0C2A8051BE51BC394044003753C
:071ED9001B00D0D0D0E03265
:03002300021C714B
:0E1C7100C0E0C0D075D000C000C00730981A87
:101C7F00C298859927E527640A600CAF17741C2F4B
:0A1C8F00F8A627051780037542012F
:091C9900D007D000D0D0D0E03219
:10139A00E5106401600CE51164016006E512640160
:1013AA007033E510B4010CE4F5107BFF7A1979B7B4
:1013BA00121D6DE511B4010CE4F5117BFF7A197960
:1013CA00CC121D6DE512B4010CE4F5127BFF7A19FB
:1013DA0079E1121D6DE543B4010C7BFF7A1979F6A8
:1013EA00121D6DE4F543E54264016003021605E54A
:1013FA001C6451600302153BE51D600302153B7B2B
:10140A00FF7A1979FC121D6DAE23AF247C007D3C56
:10141A001217D57C007D0A1217D5EF2430FF121D52
:10142A005BAE23AF247C007D3C1217D57C007D0A7D
:10143A00121D52121D67AE23AF247C007D3C121789
:10144A00D57E007F0ACFCDCFCECCCE1217D5EF24D2
:10145A0030FF121D5BAE23AF24121D417BFF7A1AA7
:10146A007905121D6D7BFF7A1A7907121D6DAE255B
:10147A00AF267C007D3C1217D57C007D0A1217D559
:10148A00EF2430FF121D5BAE25AF267C007D3C1297
:10149A0017D57C007D0A121D52121D67AE25AF2694
:1014AA007C007D3C1217D57E007F0ACFCDCFCECCF3
:1014BA00CE1217D5EF2430FF121D5BAE25AF2612D0
:1014CA001D417BFF7A1A7905121D6D7BFF7A1A7905
:1014DA000E121D6DAE08AF097C007D3C1217D57C3B
:1014EA00007D0A1217D5EF2430FF121D5BAE08AF3C
:1014FA00097C007D3C1217D57C007D0A121D521210
:10150A001D67AE08AF097C007D3C1217D57E007FAF
:10151A000ACFCDCFCECCCE1217D5EF2430FF121D75
:10152A005BAE08AF09121D417BFF7A1A79050215D5
:0A153A00F1E51C645360030215F490
:10154400E51D24D0F52824FE603B14606924026064
:10155400030215EBAF1F7E007C007D0A1217C3AA9D
:1015640006AB07AF1E7E007D641217C3EF2BFFEEA0
:101574003AFEAD20EF2DFFEC3ECF2430F524EF34BE
:10158400EBF523806BAF1F7E007C007D0A1217C32E
:10159400AA06AB07AF1E7E007D641217C3EF2BFFB4
:1015A400EE3AFEAD20EF2DFFEC3ECF2430F526EFD2
:1015B40034EBF525803AAF1F7E007C007D0A1217BC
:1015C400C3AA06AB07AF1E7E007D641217C3EF2BC0
:1015D400FFEE3AFEAD20EF2DFFEC3ECF2430F509AF
:1015E400EF34EBF50880097BFF7A1A7915121D6D2B
:1015F400E4F517F51CF51DF51EF51FF520F521F58D
:02160400422280
:0300000002182AB9
:0C182A00787FE4F6D8FD75814402187147
:10179600BB010CE58229F582E5833AF583E0225008
:1017A60006E92582F8E622BBFE06E92582F8E22252
:0D17B600E58229F582E5833AF583E493226C
:1017C300EF8DF0A4A8F0CF8CF0A428CE8DF0A42E3A
:0217D300FE22F4
:1017D500BC000BBE0029EF8DF084FFADF022E4CCF8
:1017E500F875F008EF2FFFEE33FEEC33FCEE9DECC1
:1017F500984005FCEE9DFE0FD5F0E9E4CEFD22ED07
:10180500F8F5F0EE8420D21CFEADF075F008EF2F50
:10181500FFED33FD4007985006D5F0F222C398FD41
:051825000FD5F0EA22DE
:1018360002002EE493A3F8E493A34003F68001F29A
:1018460008DFF48029E493A3F85407240CC8C333B3
:10185600C4540F4420C8834004F456800146F6DF82
:10186600E4800B0102040810204080901A1CE47EDC
:10187600019360BCA3FF543F30E509541FFEE49377
:10188600A360010ECF54C025E060A840B8E493A33E
:10189600FAE493A3F8E493A3C8C582C8CAC583CA69
:1018A600F0A3C8C582C8CAC583CADFE9DEE780BE21
:011A73000072
:00000001FF
