:1014770054656D70657261747572653A0048756D73
:1014870069646974793A0054696D653A004C696713
:1014970068743A003A0062757320313A007300624B
:0D14A700757320323A0062757320333A00ED
:10143400013100012801012C0C012D00012B0002B7
:10144400260065012E00012A00013ADF013BD2018A
:1014540024C70125000633000000000000012F000E
:0C146400013200013900013000012900B4
:10090600120F1EE4FF12170CE4FF12158A12175677
:1009160012139D7FAC1212158E268F277BFF7A1439
:1009260079777515087D03E4FF1213EB7BFF7A14C4
:1009360079847515087D04E4FF1213EB7BFF7A14A6
:10094600798E7515087D05E4FF1213EB7BFF7A148B
:1009560079947515087D06E4FF1213EB7BFF7A1474
:10096600799B7515087D057F2C1213EB7BFF7A1496
:10097600799B7515087D057F3C1213EB7BFF7A1476
:10098600799D751508E4FDFF1213EB7BFF7A147948
:10099600A4751508E4FD7F401213EB7BFF7A1479EA
:1009A600A67515087D01E4FF1213EB7BFF7A147917
:1009B600A47515087D017F401213EB7BFF7A14792D
:1009C600AD7515087D02E4FF1213EB7BFF7A1479EF
:1009D600A47515087D027F401213EBE52CC4540F55
:1009E60075F00AA4FFE52C540F7C002FFBEC35F0C4
:1009F600FA7514027515087D057F2012118CE52DF8
:100A0600C4540F75F00AA4FFE52D540F7C002FFB8C
:100A1600EC35F0FA7514027515087D057F30121154
:100A26008CE52BC4540F75F00AA4FFE52B540F7CFC
:100A3600002FFBEC35F0FA7514027515087D057F5D
:100A46004012118C751403751508AB27AA267D066E
:100A56007F2812118CE552FB7A0075140275150871
:100A66007D037F4812118CE553FB7A0075140275DD
:100A760015087D047F4812118C1215B11218427F99
:100A8600851212FE8F2C7F831212FE8F2D7F81120C
:100A960012FE8F2B1217251217D81217851214B4AF
:100AA6008F39E539B454036328FFE532703EE530EB
:100AB600B401061217B0E4F530E529B40107D28C6B
:100AC600D2A9E4F529751D087B20E4FD7F58120E96
:100AD60051751D087B207D017F58120E51751D082A
:100AE6007B207D027F58120E51020BE31217C4C2FF
:100AF6008CC2A9753001752901E53264017046750D
:100B06001D087B3CFD7F58120E51751D087B207D0C
:100B1600017F58120E51751D087B207D027F5812E9
:100B26000E51E539B45504053A8007E539B4441544
:100B3600153AAF3AEFFB7A00751402751508E4FD15
:100B46007F2812118CE53264027046751D087B20E1
:100B5600FD7F58120E51751D087B3C7D017F581292
:100B66000E51751D087B207D027F58120E51E53906
:100B7600B45504053B8007E539B44415153BAF3B36
:100B8600EFFB7A007514027515087D017F28121196
:100B96008CE53264037046751D087B20FD7F581274
:100BA6000E51751D087B207D017F58120E51751D53
:100BB600087B3C7D027F58120E51E539B455040579
:100BC600248007E539B444151524AF24EFFB7A00D9
:100BD6007514027515087D027F2812118CD2A8E4BF
:100BE600F539E52564016003020AA3F525153A15D2
:100BF6003B1524AF3AEFFB7A00751403751508E42C
:100C0600FD7F2812118CAF3BEFFB7A00751403753C
:100C160015087D017F2812118CAF24EFFB7A007531
:100C260014037515087D027F2812118C7F85121218
:100C3600FE8F2C7F831212FE8F2D7F811212FE8F64
:100C46002B7FAC1212158E268F27E52CC4540F75F8
:100C5600F00AA4FFE52C540F7C002FFBEC35F0FACC
:100C66007514027515087D057F2012118CE52DC4BB
:100C7600540F75F00AA4FFE52D540F7C002FFBECF2
:100C860035F0FA7514027515087D057F3012118C42
:100C9600E52BC4540F75F00AA4FFE52B540F7C0016
:100CA6002FFBEC35F0FA7514027515087D057F40AB
:100CB60012118CE52AC3940A5003020AA3E4F52A0A
:100CC600C2AF12175612139DD2AF751403751508CD
:100CD600AB27AA267D067F2812118CE552FB7A00E7
:100CE6007514027515087D037F4812118CE553FBB8
:100CF6007A007514027515087D047F4812118CC39D
:100D0600E527941EE52694004006E4F554020AA35E
:100D1600E52775F003A4FFC374649FF554020AA384
:1016B100E4FDFCC3ED9FEE6480F8EC64809850106B
:1016C1000079027BC7DBFED9FC0DBD00010C80E374
:0116D10022F6
:040006007F12DFFE88
:01000A0022D3
:0F17FD00E4FEEEC39F5008007D14DDFE0E80F366
:01180C0022B9
:10002E000000000000000000002F0000000007008C
:10003E00070000147F147F1400242A7F2A12006206
:10004E0064081323003649552250000005030000B2
:10005E0000001C224100000041221C000014083E3A
:10006E0008140008083E0808000000A06000000800
:10007E000808080800006060000000201008040254
:10008E00003E5149453E0000427F40000042615112
:10009E004946002141454B31001814127F100027AC
:1000AE0045454539003C4A4949300001710905036F
:1000BE0000364949493600064949291E00003636A0
:1000CE000000000056360000000814224100001403
:1000DE0014141414000041221408000201510906E0
:1000EE0000324959513E007C1211127C007F494961
:1000FE004936003E41414122007F4141221C007F92
:10010E0049494941007F09090901003E4149497A9F
:10011E00007F0808087F0000417F41000020404119
:10012E003F01007F08142241007F40404040007F85
:10013E00020C027F007F0408107F003E4141413EC9
:10014E00007F09090906003E4151215E007F091911
:10015E0029460046494949310001017F0101003F0E
:10016E004040403F001F2040201F003F4038403F8E
:10017E0000631408146300070870080700615149F2
:10018E00454300007F41410000552A552A55000085
:10019E0041417F0000040201020400404040404003
:1001AE00000001020400002054545478007F48449B
:1001BE00443800384444442000384444487F0038D2
:1001CE005454541800087E0901020018A4A4A47CFB
:1001DE00007F080404780000447D400000408084C5
:1001EE007D00007F102844000000417F4000007C0D
:1001FE0004180478007C0804047800384444443819
:10020E0000FC242424180018242418FC007C080464
:10021E00040800485454542000043F444020003C3D
:10022E004040207C001C2040201C003C4030403CC4
:10023E00004428102844001CA0A0A07C0044645454
:10024E004C44141414141414000000000000000098
:10025E000000000000000000000000F80000000098
:10026E00000000333000000000100C06100C0600D9
:10027E00000000000000000040C07840C078400040
:10028E00043F04043F040400007088FC08300000A2
:10029E00001820FF211E0000F008F000E0180000FA
:1002AE0000211C031E211E0000F0088870000000B3
:1002BE001E2123241927211010160E000000000005
:1002CE000000000000000000000000E01804020022
:1002DE00000000071820400000020418E000000093
:1002EE000040201807000000404080F08040400091
:1002FE000202010F01020200000000F000000000E7
:10030E000101011F010101000000000000000000BA
:10031E0080B070000000000000000000000000002F
:10032E0000010101010101010000000000000000B8
:10033E000030300000000000000000008060180453
:10034E00006018060100000000E010080810E00030
:10035E00000F102020100F00001010F800000000F9
:10036E000020203F20200000007008080888700040
:10037E0000302824222130000030088888483000C0
:10038E000018202020110E000000C02010F80000E0
:10039E0000070424243F240000F808888808080079
:1003AE000019212020110E0000E01088881800008E
:1003BE00000F112020110E0000380808C838080060
:1003CE000000003F000000000070880808887000E0
:1003DE00001C222121221C0000E010080810E00061
:1003EE000000312222110F00000000C0C0000000EA
:1003FE00000000303000000000000080000000000F
:10040E000000806000000000000080402010080006
:10041E0000010204081020004040404040404000CF
:10042E0004040404040404000008102040800000AA
:10043E000020100804020100007048080808F000AF
:10044E000000003036010000C030C828E810E0007F
:10045E000718272423140B000000C038E00000000A
:10046E00203C23020227382008F888888870000074
:10047E00203F202020110E00C03008080808380048
:10048E00071820202010080008F808080810E000BF
:10049E00203F202020100F0008F88888E808100060
:1004AE00203F20202320180008F88888E808100034
:1004BE00203F200003000000C0300808083800006C
:1004CE0007182020221E020008F808000008F8086D
:1004DE00203F210101213F20000808F808080000F4
:1004EE000020203F2020000000000808F808080027
:1004FE00C08080807F00000008F888C0281808009F
:10050E00203F20012638200008F8080000000000D7
:10051E00203F20202020300008F8F800F8F80800CE
:10052E00203F003F003F200008F830C00008F808C8
:10053E00203F200007183F00E01008080810E000D8
:10054E000F10202020100F0008F808080808F000EF
:10055E00203F210101010000E01008080810E00012
:10056E000F18242438504F0008F8888888887000A7
:10057E00203F2000030C3020007088080808380047
:10058E000038202121221C00180808F8080818003D
:10059E000000203F2000000008F808000008F808BE
:1005AE00001F202020201F000878880000C838086F
:1005BE00000007380E010000F80800F80008F800E7
:1005CE00033C0700073C0300081868808068180881
:1005DE0020302C03032C30200838C800C8380800FF
:1005EE000000203F2000000010080808C83808004E
:1005FE002038262120201800000000FE02020200F2
:10060E000000007F40404000000C30C000000000A1
:10061E00000000010638C00000020202FE000000C9
:10062E00004040407F00000000000402020204006F
:10063E0000000000000000000000000000000000AC
:10064E008080808080808080000202040000000094
:10065E00000000000000000000008080808000008C
:10066E000019242222223F2008F80080800000007A
:10067E00003F112020110E0000000080808000003D
:10068E00000E112020201100000000808088F8004C
:10069E00000E112020103F2000008080808000007E
:1006AE00001F222222221300008080F088888818E2
:1006BE000020203F202000000000808080808000ED
:1006CE00006B94949493600008F800808080000082
:1006DE00203F210000203F2000809898000000005D
:1006EE000020203F2020000000000080989800008D
:1006FE0000C08080807F000008F8000080808000AD
:10070E00203F24022D302000000808F800000000D1
:10071E000020203F2020000080808080808080008C
:10072E00203F20003F20003F80800080808000001E
:10073E00203F210000203F200000808080800000AC
:10074E00001F202020201F008080008080000000DD
:10075E0080FFA12020110E0000000080808080000C
:10076E00000E112020A0FF808080800080808000FD
:10077E0020203F212000010000008080808080002A
:10078E000033242424241900008080E0808000009F
:10079E000000001F202000008080000000808000EC
:1007AE00001F202020103F2080808000008080804D
:1007BE0000010E30080601008080008000808080DD
:1007CE000F300C030C300F00008080008080800002
:1007DE000020312E0E31200080808000008080802D
:1007EE0080818E70180601000080808080808000DD
:1007FE000021302C2221300000000000807C0202FB
:10080E0000000000003F404000000000FF0000001C
:10081E0000000000FF0000000002027C80000000CB
:10082E000040403F000000000006010102020404E7
:10083E0000000000000000000000F8494A4C48F893
:10084E00484C4A49F800000010101312121212FF01
:10085E001212121213101000000000FE2020202091
:10086E00203F2020202000000080601F0202020294
:10087E000202FE00000000001010D0FF901000FEDB
:10088E00020202FE00000000040300FF0083601F4E
:10089E000000003F4040780080828282FE82828289
:1008AE008282FE8282828000008040300F00000033
:1008BE000000FF00000000000000181610D0B897CE
:1008CE0090909092941000000020108C83804146EE
:1008DE0028102844438080001010D0FF901000FC98
:1008EE0024E4242223E20000040300FF0083601F9F
:0808FE0080412618264180000C
:1016F200EF4E60157D087C07ED1DAA0470011C4A9F
:0917020070F6EF1F70EA1E80E78B
:01170B0022BB
:10170C008F10E5107006FD7FA6121536E510B4019A
:09171C0007E4FD7FA71215362237
:10158A008F10E510700DFD7FC8121536E4FD7FA19E
:10159A00121536E510B4010EE4FD7FC0121536E4CB
:0715AA00FD7FA0121536229F
:081839007F01AE071FEE70FAFB
:011841002284
:0F180D00D291D290121839C291121839C290227A
:0A001600C291D290121839D2912243
:0F181C00D291121839D290121839C2900218398D
:02164900AD07EB
:10164B00E4FCC290ED30E704D2918002C2911218F3
:10165B0039D290121839C290ED25E0FD0CBC08E28E
:01166B00225C
:0D152900121536E4FDFF121536E4FD7F10AB
:10153600AB05AA0712180D7F7812164912181CEB74
:1015460060047F408002E4FF12164912181CAF02A5
:0915560012164912181C020016BD
:10168F00A907ED24B0FFE4FD121536E954F0C45458
:10169F000F4410FFE4FD121536E9540FFFE4FD026D
:0216AF001536EE
:10179B00E4FD7F8D121536E4FD7F14121536E4FD42
:0517AB007FAF021536BE
:0E182B00E4FD7F8D12152FE4FD7FAE02153611
:10166C00E4F9E924B0FFE4FD121529E4F5107D013D
:10167C00E4FF1215360510E510C3948040F009B94B
:02168C0008E074
:01168E002239
:040E51008F1A8D1B4C
:100E5500E4F51EE51DC313FDF51FE4F520F521E5B9
:100E65001DB408087522007523068029E51D131396
:100E750013541FFF7E00E51D540760059000018097
:100E850003900000E5822FFFE5833EFE7C001210F3
:100E95000E8E228F23EB24E0F51EAD1BAF1A121622
:100EA5008FE4F520F521C3E5219523E52095225012
:100EB50067E51FFD7C00AE20AF21121020ED4C70C0
:100EC5000FE51D64086009AD1B051BAF1A12168FCF
:100ED500E51DB4081075F006E51EA4242EF582E57F
:100EE500F034008013E51DB4102E75F010E51EA436
:100EF5002456F582E5F03402F583E5822521F58255
:100F0500E5833520F583E493FF7D01121536052130
:080F1500E52170920520808E99
:010F1D0022B1
:04173E008F1AA90550
:101742007F017E00AD0119ED6009AD1A7C00121017
:031752000E80F115
:011755002271
:08118C008F108D118A128B13E4
:10119400E4F518F519E515B40803751802E4F51615
:1011A400E516C395145069C3E514951614FD7F0A1A
:1011B40012173EAC12AD13CFCDCFCECCCE12102031
:1011C4007C007D0A1210208D17E5197025E5141492
:1011D400FFE516C39F501BE5177014E515C31325CF
:1011E400188516F0A42510FF85151D7B2080187521
:1011F4001901E515C31325188516F0A42510FFE57C
:10120400172430FB85151DAD11120E510516809063
:0112140022B7
:0A13EB008F108D118B128A138914E4
:1013F500E4F516AB12AA13A914851682758300129B
:101405000FE1602AAF1605168F82758300120FE172
:10141500FB85151DAD11AF10120E51E515B408046D
:0E14250074068004E515C3132510F51080C56C
:011433002296
:061101008F478D488B4969
:10110700E54A131313541FFF7E00E54A54077C007A
:1011170060047D0180027D00ED2FFFEC3EFEAD4AAD
:101127007C0012100E8E4D8F4EE4F54BF54CC3E547
:101137004C954EE54B954D504BE54AFD7C00AE4B2B
:10114700AF4C121020ED4C7009AD480548AF47125F
:10115700168FE54AB4102DE549C43354E02446F50B
:1011670082E43408F583E582254CF582E583354B27
:10117700F583E493FF7D01121536054CE54C70AEFF
:04118700054B80AAEA
:01118B002241
:06128D008F3C8D3D8B3EFD
:10129300E4F543F544E53F131313541FFFE53F54AF
:1012A3000760047E0180027E00EF2EF53FE4F545E2
:1012B300E545C3953F503AE545253DFDAF3C121644
:1012C3008FE4F546E546C3953E5022AB40AA41A9BB
:1012D300420544E544AE437002054314F5828E8310
:1012E300120FE1FF7D01121536054680D7054580B3
:0112F300BF3B
:0112F40022D7
:100F1E00C2927FC87E001216F2D292E4FD7FAE120C
:100F2E001529E4FD7F40121536E4FD7F811215363A
:100F3E00E4FD7FCF121536E4FD7FA1121536E4FDD8
:100F4E007FC8121536E4FD7FA6121536E4FD7FA884
:100F5E00121536E4FD7F3F121536E4FD7FD31215D0
:100F6E0036E4FDFF121536E4FD7FD5121536E4FD8D
:100F7E007F80121536E4FD7FD9121536E4FD7FF120
:100F8E00121536E4FD7FDA121536E4FD7F121215C6
:100F9E0036E4FD7FDB121536E4FD7F40121536E494
:100FAE00FD7F20121536E4FD7F02121536E4FD7F1B
:100FBE008D121536E4FD7F14121536E4FD7FA41252
:100FCE001536E4FD7FA612153612166CE4FD7FAFC2
:030FDE00021536C3
:10175600C2937F147E001216B1D293120006209314
:08176600063093FD2093FD22E3
:1015D800E4F515F5143093FD120006E51525E0F540
:1015E800153093064315012093FD0514E514C394A3
:0515F8000840E2AF1500
:0115FD0022CB
:10139D001215D88F101215D88F111215D88F121251
:1013AD0015D88F131215D88F4F120006E510251181
:1013BD00FFE433FE7C00EF2512FFEC3EFEEF25131C
:1013CD00FFEC3EFEEFB54F13ECB5060F85105385C0
:0D13DD0011518512528513507F01227F00AF
:0113EA0022E0
:1015B100C2B5C2B6E4FD7F8E12134CE4FD7F8012EA
:1015C100134CE4FD7F8212134C7D127F8412134C65
:0715D1007D807F8E02134CA8
:02134C00A907EF
:10134E00D2B5E4FB7E007401A803088005C333CE3A
:10135E0033CED8F9FFE9F582EF558224FF92B4D24D
:10136E00B6C2B60BBB08DDE4FB7E007401A8030811
:10137E008005C333CE33CED8F9FFEDF582EF55821B
:0E138E0024FF92B4D2B6C2B60BBB08DDC2B5C6
:01139C00222E
:0912F500E4FD7F8E12134C7F8092
:0212FE00AD073A
:10130000E4F9430501D2B5FB7E007401A80308800F
:1013100005C333CE33CED8F9FFEDF582EF558224E5
:10132000FF92B4C2B6D2B60BBB08DDE4FBD2B6C2A4
:10133000B630B40DA8037401088002C333D8FC4250
:0B134000010BBB08E8C2B5C2B4AF014E
:01134B00227F
:1017B0001212F5AD0753057F7F8012134C7D807F99
:0417C0008E02134C36
:1017C4001212F5AD074305807F8012134C7D807F94
:0417D4008E02134C22
:02121500AD0723
:10121700E4F511F512C2B6C2B5F5107E007480A8C8
:1012270010088006CEA2E713CE13D8F8FFEDFBEF28
:101237005B24FF92B4D2B6C2B60510E510B408DB42
:10124700E4F510D2B6C2B630B71B7E80E4A810080A
:101257008005CEC313CE13D8F94212EE42117F0197
:101267007E001216B10510E510C3941040D5D2B513
:10127700AE11E5127808088005CEC313CE13D8F94E
:05128700FF8E11F512BD
:01128C00223F
:1014B400E4F51030B00320B1317F0F7E001216B175
:1014C40020B00F20B10C30B0FD30B1FA751054AF1C
:1014D400102220B00930B0FD751055AF102220B194
:0C14E4000930B1FD751044AF1022AF10AC
:0114F00022D9
:1016240048454C5000627573313A20006D696E0A6A
:1016340000627573323A2000627573333A20006594
:0516440072726F7200DC
:06147000015500015400CB
:1017D800758901E4F58A758C4CC28DD28CD2A9D258
:0417E800AFC2B922B1
:1017850075CBFF75CA9C75CDFF75CC9CE4F5C8D2A9
:06179500ADD2CAD2AF2262
:1017250053877F75985053890F438920758BFD75B5
:091735008DFDC2ABD28ED2AC22B4
:09184200D288D2A8C28AD2AA22DF
:0917EC0075F00A84E5F02430FFD9
:0817F5008F993099FDC2992281
:0615FE007BFF7A16793034
:061604008B0D8A0E890F18
:10160A00E4FEAB0DAA0EA90F8E82758300120FE1BC
:09161A00FF60061217F50E80E9CD
:0116230022A4
:03000B000216D208
:1016D200C0E0C0D0052E758A00758C4CE52EC394EF
:1016E200144008752E00052A752501D0D0D0E032AD
:03002B0002155F5C
:10155F00C0E0C0D0C2CF0555E555C39464400375B4
:10156F005500E555C39554500AE528B4010575A0FB
:0B157F0000800375A0FFD0D0D0E03248
:030013000214F1E3
:1014F100C0E0C083C082C0D075D000C000C001C0B0
:1015010002C003C006C0077BFF7A167924121604B5
:1015110030B3FDD007D006D003D002D001D000D027
:08152100D0D082D083D0E0326B
:0300030002176E73
:10176E00C0E0C0D0C2A80532E532C3940440037570
:07177E003200D0D0D0E032B0
:03002300020D26A5
:100D2600C0E0C0F0C083C082C0D075D000C000C093
:0F0D360001C002C003C006C007209803020E3A96
:100D4500C29885990BE50B640A600DAF2F74332F9C
:100D5500F8A60B052F020E3AE53364517060E534B1
:100D6500705C7BFF7A167929121604E53A75F00A4C
:100D7500842430FF1217F5E53A1217EC1215FE7BA5
:100D8500FF7A167935121604E53B75F00A8424308E
:100D9500FF1217F5E53B1217EC1215FE7BFF7A16CD
:100DA500793C121604E52475F00A842430FF1217E5
:100DB500F5E5241217EC7BFF7A167930805FE53371
:040DC5006453705CA7
:100DC900E53424D0F50C24FE601D14603024027033
:100DD90042E53675F00AA4FFE53575F064A42F25C0
:100DE900372430F53A8035E53675F00AA4FFE53544
:100DF90075F064A42F25372430F53B801FE536753F
:100E0900F00AA4FFE53575F064A42F25372430F5E1
:0C0E19002480097BFF7A1679431216042E
:100E2500752F0075330075340075350075360075FE
:050E35003700753800D4
:100E3A00D007D006D003D002D001D000D0D0D082C3
:070E4A00D083D0F0D0E032AC
:0300000002107576
:0C107500787FE4F6D8FD7581550210BCB0
:100FE100BB010CE58229F582E5833AF583E02250C5
:100FF10006E92582F8E622BBFE06E92582F8E2220F
:0D100100E58229F582E5833AF583E4932228
:10100E00EF8DF0A4A8F0CF8CF0A428CE8DF0A42EF6
:02101E00FE22B0
:10102000BC000BBE0029EF8DF084FFADF022E4CCB4
:10103000F875F008EF2FFFEE33FEEC33FCEE9DEC7D
:10104000984005FCEE9DFE0FD5F0E9E4CEFD22EDC3
:10105000F8F5F0EE8420D21CFEADF075F008EF2F0D
:10106000FFED33FD4007985006D5F0F222C398FDFE
:051070000FD5F0EA229B
:10108100020906E493A3F8E493A34003F68001F276
:1010910008DFF48029E493A3F85407240CC8C33370
:1010A100C4540F4420C8834004F456800146F6DF3F
:1010B100E4800B0102040810204080901434E47E87
:1010C100019360BCA3FF543F30E509541FFEE49334
:1010D100A360010ECF54C025E060A840B8E493A3FB
:1010E100FAE493A3F8E493A3C8C582C8CAC583CA26
:1010F100F0A3C8C582C8CAC583CADFE9DEE780BEDE
:011476000075
:00000001FF
